:060003001219CF02157076
:10109500D6B2CEEFB4F3D5BDBDA9CAAC00D3CECF81
:1010A500B7BCF2BDE900202000BFAACABCD3CECF91
:1010B500B700D3CECFB7BDE9C9DC00D6D6D6B2D6F8
:1010C500B2CEEFB7C0D3F9BDA9CAAC0035312B4CB0
:1010D5004344D6C6D7F700B0B4C8CED2E2BCFCB7FD
:1010E500B5BBD800C4D1B6C8D1A1D4F100BCF2B506
:1010F500A500C0A7C4D100B0B4C8CED2E2BCFCD311
:10110500CECFB7BFAACABC00C4D1B6C8A3BABCF279
:0E111500B5A500C4D1B6C8A3BAC0A7C4D10006
:0C123500014200014100014000013F00A7
:1013A500121A207BFF7A107995E4FD7F011215D280
:1013B500E54170137D017F0112182C7F201218B3AF
:1013C5007F101218B3800D7BFF7A1079AB7D017FFA
:1013D500011215D27BFF7A1079A27D017F021215C9
:1013E500D2E541B401137D027F0112182C7F201232
:1013F50018B37F101218B3800D7BFF7A1079AB7D7F
:10140500027F011215D27BFF7A1079AE7D027F0231
:041415001215D222B8
:10186400121A207BFF7A1079B7E4FD7F021215D299
:101874007BFF7A1079C07D01E4FF1215D27BFF7AD9
:101884001079D17D027F011215D27BFF7A1079DCA9
:071894007D037F010215D264
:10141900121A207BFF7A1079E9E4FD7F021215D2B6
:10142900E54070137D017F0112182C7F201218B33B
:101439007F101218B3800D7BFF7A1079AB7D017F85
:10144900011215D27BFF7A1079F27D017F03121503
:10145900D2E540B401137D027F0112182C7F2012BE
:1014690018B37F101218B3800D7BFF7A1079AB7D0A
:10147900027F011215D27BFF7A1079F77D027F0373
:041489001215D22244
:1018CF00121A207BFF7A1079FCE4FDFF1215D2E586
:1018DF003F700D7BFF7A11790D7D037F031215D2B7
:1018EF00E53FB4010D7BFF7A1179187D037F031259
:0318FF0015D222DD
:10190200BF0209E541D3940040021541BF0A09E52F
:1019120041C3940150020541BF060FE541700375B2
:0D1922004201E541B401037542020213A524
:101A98008F0A121864E50A6006E4F5421213A522BB
:10198400BF0209E540D3940040021540BF0A09E5AF
:1019940040C3940150020540BF060985403F121818
:0719A400CF75420302141984
:101570007509FF1213A5E54265096024854209E556
:101580004214600F146011146013240370121213BC
:10159000A5800D121864800812141980031218CF48
:1015A0001204968F08E50860CDE5421460111460BE
:1015B00015146019240370BEAF0812190280B7AF6A
:1015C00008121A9880B0AF0812198480A912162B3D
:0215D00080A4F5
:0419AB007D017C003E
:1019AF008F19ED4C6003121A4CC2A6C2A58519807F
:1019BF007F017E00121AE0D2A7D2A7D2A7C2A72218
:10189B007E00E5182515FFEE3517FEE5122FF582B4
:0818AB00E5113EF583E493FF13
:1018B3008F19121A4CD2A6C2A58519807F017E000A
:0C18C300121AE0D2A7D2A7D2A7C2A72217
:101A4C007580FFC2A6D2A5D2A7E58020E7FBC2A76E
:031A5C00AF802236
:1019CF007F301219AB7D017C007F011219AF7D01B1
:1019DF007C007F061219AF7D017C007F0C0219AFCE
:101A20007D017C007F011219AF7F341219AB7D015B
:071A30007C007F300219AFBA
:10182C00ED1460111460151460192403701AEF2460
:10183C0080F50B8013EF2490F50B800CEF2488F5CA
:10184C000B8005EF2498F50B7D017C00AF0B121972
:08185C00AF7F0A7E00021AE0D2
:101684007D017C007F081219AF7F907E01121A370A
:101694007D017C007F0C1219AF7F907E01121A37F6
:1016A4007D017C007F081219AF7F907E01121A37EA
:1016B4007D017C007F0C1219AF7F907E01121A37D6
:1016C4007D017C007F081219AF7F907E01021A37DA
:1015D2008B0C8A0D890EEDD394005002E4FDEDD3FD
:1015E200940340027D0353070FED14600F14601142
:1015F20014601324037012430780800D4307908008
:101602000843078880034307981219ABAB0CAA0D55
:10161200A90E1219EFFF60101218B37401250EF50E
:091622000EE4350DF50D80E42203
:1017AC008B0CEDD394005002E4FDEDD39403400276
:1017BC007D0353070FED14600F1460111460132494
:1017CC00037012430780800D4307908008430788FD
:1017DC008003430798E4FDFC1219AFAF0C0218B359
:0411AF008E0C8F0D06
:1011B300E4F511F5127D01FC7F341219AF7D017C3A
:1011C300007F361219AFE4F510E510C394095050AF
:1011D300E4F50EE50E2480FF1219ABE5102480FF21
:1011E3001219ABE4F50F7E00E512250FFFEE351162
:1011F300FEE50D2FF582E50C1218AD050FE50FC3C3
:10120300941040E274102512F512E43511F511051E
:101213000EE50EC3942040BB74082510F51080A979
:101223007D017C007F361219AF7D017C007F300287
:0212330019AFF1
:0612B9008E118F128D134F
:1012BF00E4F516F5177D01FC7F341219AF7D017C23
:1012CF00007F361219AF75140DE5142480FF121923
:1012DF00ABE5132480FF1219ABE4F5157E00E5177B
:1012EF002515FFEE3516FEE5122FF582E5111218C2
:1012FF00AD0515E515C3940240E274022517F517E5
:10130F00E43516F5160514E514C3941D40BB7D0195
:10131F007C007F361219AF7D017C007F300219AF40
:060DCE008E118F128D133F
:100DD400E4F517F5187D01FC7F341219AF7D017C11
:100DE400007F361219AFE4F516E516C394094003E3
:100DF400020E76E516703A75141EE5142480FF126F
:100E040019ABE51624802513FF1219ABE4F515126E
:100E1400189B0515E515C3940240F474022518F5D2
:100E240018E43517F5170514E514C3942040CB8056
:100E340038E4F514E5142480FF1219ABE516248078
:100E44002513FF1219ABE4F51512189B0515E515CA
:100E5400C3940240F474022518F518E43517F51705
:100E64000514E514C3940E40CB74082516F5160238
:100E74000DED7D017C007F361219AF7D017C007F72
:040E8400300219AF70
:06132F008E118F128D13D8
:10133500E4F516F5177D01FC7F341219AF7D017CAC
:10134500007F361219AF75140FE5142480FF1219AA
:10135500ABE5132488FF1219ABE4F5157E00E517FC
:101365002515FFEE3516FEE5122FF582E51112184B
:10137500AD0515E515C3940240E274022517F5176E
:10138500E43516F5160514E514C3941F40BB7D011D
:101395007C007F361219AF7D017C007F300219AFCA
:0B1AE000EF1FAC0670011E4C70F622D8
:101A3700EF1FAC0670011E4C600A7D027CEFDCFED6
:041A4700DDFC80EC56
:011A4B002278
:10049600E4F50C7590FFC2932097137F14FE121A91
:1004A600373097FD7F147E00121A37750C0120969F
:1004B600147F147E00121A373096FD7F147E0012C8
:1004C6001A37750C052095147F147E00121A3730E2
:1004D60095FD7F147E00121A37750C092094147F3F
:1004E600147E00121A373094FD7F147E00121A37DC
:1004F600750C0D7590FFC2922097147F147E001222
:100506001A373097FD7F147E00121A37750C0220B9
:1005160096147F147E00121A373096FD7F147E00E3
:10052600121A37750C062095147F147E00121A379E
:100536003095FD7F147E00121A37750C0A2094142C
:100546007F147E00121A373094FD7F147E00121A33
:1005560037750C0E7590FFC2912097147F147E009C
:10056600121A373097FD7F147E00121A37750C0366
:100576002096147F147E00121A373096FD7F147E63
:1005860000121A37750C072095147F147E00121A74
:10059600373095FD7F147E00121A37750C0B2094A8
:1005A600147F147E00121A373094FD7F147E0012D9
:1005B6001A37750C0F7590FFC2902097147F147E22
:1005C60000121A373097FD7F147E00121A37750C09
:1005D600042096147F147E00121A373096FD7F147D
:1005E6007E00121A37750C082095147F147E0012AF
:1005F6001A373095FD7F147E00121A37750C0C20C1
:1006060094147F147E00121A373094FD7F147E00F6
:08061600121A37750C10AF0C2D
:01061E0022B9
:10000E00526F756E643A310000000000000000006F
:10001E000FF008100BD00BD00BD00BD008100FF038
:10002E0000000000000000000000000000000000C2
:10003E0000000000000000000000000000000000B2
:10004E0000000000000000000000180039E070F20F
:10005E0030CE300E300E0C3E07C002000000000005
:10006E000F800FE01FE00C00FFFFFFFFFFFFFFFF01
:10007E00FFFFFFFFFFFFFFFF8000000000000000FA
:10008E0000000000000000018000000000000000E1
:10009E0000000000000000018000000000000000D1
:1000AE0000000000000000018000000000000000C1
:1000BE0000000000000000018000000000000000B1
:1000CE0000000000000000018000000000000000A1
:1000DE000000000000000001800000000000000091
:1000EE000000000000000001800000000000000081
:1000FE000000000000000001800000000000000071
:10010E000000000000000001800000000000000060
:10011E000000000000000001800000000000000050
:10012E000000000000000001FFFFFFFFFFFFFFFFC8
:10013E00FFFFFFFFFFFFFFFF800000000000000039
:10014E000000000000000001800000000000000020
:10015E000000000000000001800000000000000010
:10016E000000000000000001800000000000000000
:10017E0000000000000000018000000000000000F0
:10018E0000000000000000018000000000000000E0
:10019E0000000000000000018000000000000000D0
:1001AE0000000000000000018000000000000000C0
:1001BE0000000000000000018000000000000000B0
:1001CE0000000000000000018000000000000000A0
:1001DE000000000000000001800000000000000090
:1001EE000000000000000001800000000000000080
:1001FE000000000000000001800000000000000070
:10020E00000000000000000180000000000000005F
:10021E00000000000000000180000000000000004F
:10022E00000000000000000180000000000000003F
:10023E000000000000000001FFFFFFFFFFFFFFFFB7
:10024E00FFFFFFFFFFFFFFFF800000000000000028
:10025E00000000000000000180000000000000000F
:10026E0000000000000000018000000000000000FF
:10027E0000000000000000018000000000000000EF
:10028E0000000000000000018000000000000000DF
:10029E0000000000000000018000000000000000CF
:1002AE0000000000000000018000000000000000BF
:1002BE0000000000000000018000000000000000AF
:1002CE00000000000000000180000000000000009F
:1002DE00000000000000000180000000000000008F
:1002EE00000000000000000180000000000000007F
:1002FE00000000000000000180000000000000006F
:10030E00000000000000000180000000000000005E
:10031E00000000000000000180000000000000004E
:10032E00000000000000000180000000000000003E
:10033E00000000000000000180000000000000002E
:10034E000000000000000001FFFFFFFFFFFFFFFFA6
:10035E00FFFFFFFFFFFFFFFF800000000000000017
:10036E0000000000000000018000000000000000FE
:10037E0000000000000000018000000000000000EE
:10038E0000000000000000018000000000000000DE
:10039E0000000000000000018000000000000000CE
:1003AE0000000000000000018000000000000000BE
:1003BE0000000000000000018000000000000000AE
:1003CE00000000000000000180000000000000009E
:1003DE00000000000000000180000000000000008E
:1003EE00000000000000000180000000000000007E
:1003FE00000000000000000180000000000000006E
:10040E00000000000000000180000000000000005D
:10041E00000000000000000180000000000000004D
:10042E00000000000000000180000000000000003D
:10043E00000000000000000180000000000000002D
:10044E00000000000000000180000000000000001D
:10045E000000000000000001FFFFFFFFFFFFFFFF95
:10046E00FFFFFFFFFFFFFFFF07C01C302808080437
:10047E00531E54A294978289A001A001A00180016D
:08048E0050023006180C07F0C3
:0312410001460063
:10162B00750BFF1219CF7F907E01121A37121A20F9
:10163B00121AB87E007F761211AF7BFF7A00790EFB
:10164B00E4FD7F031215D27B24E4FDFF1217AC7C63
:10165B00007D16AF451217691204968F0AE54614E2
:10166B00600A04700CAF0A12148D8005AF0A1215B4
:09167B0000121AD4121AC880DF13
:091AEB007F187847E4F608DFFCDF
:011AF40022CF
:100E8800EF24F5B41C004003020F3D900EA175F04D
:100E980003A4C58325F0C58373020EF5020EFE0276
:100EA8000F07020F10020F19020F22020F2B020F59
:100EB80034020F3D020F3D020EF8020F01020F0A25
:100EC800020F13020F1C020F25020F2E020F37020A
:100ED8000F3D020F3D020EFB020F04020F0D020F21
:100EE80016020F1F020F28020F31020F3A7F00224D
:100EF8007F01227F02227F03227F04227F05227F37
:100F080006227F07227F08227F09227F0A227F0B81
:100F1800227F0C227F0D227F0E227F0F227F10223C
:100F28007F11227F12227F13227F14227F15227FB6
:080F380016227F17227FFF2221
:101A5F00120E88EFC3941840037FFF2274472FF8AC
:021A6F00E6FF90
:011A71002252
:0F1AA800120E88EFC39418500674472FF8A60546
:011AB700220C
:0912440001450B01440B014300BC
:10148D008F0CE50CB40216E54575F00A8464016015
:10149D000985454474F62545F54512195BE50CB4EF
:1014AD000A16E54575F00A846403600985454474A0
:1014BD000A2545F54512195BE50CB40514E545758E
:1014CD00F00A84E5F064016005854544154512195F
:1014DD005BE50CB40714E54575F00A84E5F064028C
:1014ED006005854544054512195BE50CB406037589
:0314FD0046012283
:101500008F0CE50C64057029E543D3940040021567
:1015100043E543600D24FE600F0470157C007D16CA
:10152000800A7C007D5680047C047D76AF451217CE
:1015300069E50C64077029E543C394025002054332
:10154000E543600D24FE600F0470157C007D16805D
:101550000A7C007D5680047C047D76AF45121769B5
:10156000E50CB4060AAD45AF431216D4E4F54622A5
:101769008C0F8D10EF24F4601E24F7601214602092
:1017790024F7600F14602224157027E4FD800AE421
:10178900FD800FE4FD80147D01AF10AE0F0212B988
:101799007D01AF10AE0F020DCE7D01AF10AE0F125D
:0317A900132F22D9
:04195B00AD45AF44A3
:10195F008F0D8D0E121A5FEF70097C007D36AF0D63
:10196F00121769AF0E121A5FEF70097C007D16AF68
:05197F000E12176922A1
:1016D4008D0DEF14601B14602C2402703F7C007D80
:1016E40056AF0D1217697D01AF0D121AA87D28801F
:1016F400267C007D16AF0D121769E4FDAF0D121A9A
:10170400A8E4FD80127C047D76AF0D1217697D027A
:0D171400AF0D121AA87D50AF0D121A082259
:1017EC00000000000000018003C003C00180000065
:1017FC0000000000000000000000000000000000DD
:10180C0000000000000018183C3C3C3C181800007C
:10181C0000000000000000000000000000000000BC
:10124D0001300B01311501321F012D0D012E17013A
:10125D002F21012A02013302013602012B02013432
:0D126D0002013702012C0201350201380296
:0C1AC800120D0912061F12079B020917DD
:100D09007847E6B401047F0180027F00784AE6FE55
:100D1900B401047D0180027D00EEB402047E0180ED
:100D2900027E00EF6008ED6005752A018014EF70FE
:100D390009ED7006EF6008EE6005E4F52A80037599
:100D49002A027848E6B401047F0180027F00784BCB
:100D5900E6FEB401047D0180027D00EEB402047E4A
:100D69000180027E00EF6008ED6005752B0180149B
:100D7900EF7009ED7006EF6008EE6005E4F52B8071
:100D890003752B027849E6B401047F0180027F00D4
:100D9900784CE6FEB401047D0180027D00EEB402C8
:100DA900047E0180027E00EF6007ED6004752C016E
:100DB90022EF7009ED7006EF6007EE6004E4F52C90
:040DC90022752C0261
:010DCD002203
:10061F00E52AB40216E5336402600C7E177FECAD59
:10062F00361212B9753602753302227DC87C00E48A
:10063F00FF12192FEF7003020797E53004FF121A0C
:10064F005FEF64046010E5302402FF121A5FEF645D
:10065F000460030206FF852A33E53004FF121A5F98
:10066F00EF64047032E52A700EAF2D121A85EF2455
:10067F00ECFDAF2D121A08AF2D121A85EFD394008F
:10068F00400302079AE53004FFE4FD121AA87E002A
:10069F007F36E530048052E5302402FF121A5FEFF7
:1006AF006404704CE52A700EAF2D121A85EF24ECFE
:1006BF00FDAF2D121A08E52AB4010EAF2D121A85BF
:1006CF00EF24D8FDAF2D121A08AF2D121A85EFD3D4
:1006DF009400400302079AE5302402FFE4FD121A4A
:1006EF00A87E007F36E5302402FD1212B9052D22B7
:1006FF00E5302536FF121A5FEF640460137E007F2A
:10070F0036AD361212B9E5302536FFE4FD121AA8C0
:10071F000536E5302536FF121A5FEF640470418508
:10072F002A33E52AAF2DB40108121A85EF24D88099
:10073F0006121A85EF24ECFDAF2D121A08AF2D12F9
:10074F001A85EFD394005015E5302536FFE4FD12DE
:10075F001AA87E007F36AD361212B9052D753602F6
:10076F00E536C394084003753602E52AB401067EC8
:10077F00187F0C80047E177FECAD361212B9E5306E
:0C078F002536FF7D03121AA8852A3322AC
:10079B00E52BB40216E5346402600C7E177FECADDA
:1007AB0037120DCE753702753402227DC87C007F5F
:1007BB000112192FEF7003020913E53104FF121A0E
:1007CB005FEF64046010E5312402FF121A5FEF64DF
:1007DB0004600302087B852B34E53104FF121A5F9A
:1007EB00EF64047032E52B700EAF2E121A85EF24D6
:1007FB00ECFDAF2E121A08AF2E121A85EFD3940010
:10080B004003020916E53104FFE4FD121AA87E002D
:10081B007F36E531048052E5312402FF121A5FEF77
:10082B006404704CE52B700EAF2E121A85EF24EC7E
:10083B00FDAF2E121A08E52BB4010EAF2E121A853E
:10084B00EF24D8FDAF2E121A08AF2E121A85EFD354
:10085B0094004003020916E5312402FFE4FD121A4D
:10086B00A87E007F36E5312402FD120DCE052E2227
:10087B00E5312537FF121A5FEF640460137E007FAA
:10088B0036AD37120DCEE5312537FFE4FD121AA830
:10089B000537E5312537FF121A5FEF640470418588
:1008AB002B34E52BAF2EB40108121A85EF24D88018
:1008BB0006121A85EF24ECFDAF2E121A08AF2E127A
:1008CB001A85EFD394005015E5312537FFE4FD125F
:1008DB001AA87E007F36AD37120DCE052E75370266
:1008EB00E537C394084003753702E52BB401067E48
:1008FB00187F0C80047E177FECAD37120DCEE531DF
:0C090B002537FF7D03121AA8852B34222B
:10091700E52CB40216E5356402600C7E177FECAD5A
:100927003812132F753802753502227DC87C007F77
:100937000212192FEF7003020A8FE53204FF121A11
:100947005FEF64046010E5322402FF121A5FEF6460
:100957000460030209F7852C35E53204FF121A5F9C
:10096700EF64047032E52C700EAF2F121A85EF2456
:10097700ECFDAF2F121A08AF2F121A85EFD3940090
:100987004003020A92E53204FFE4FD121AA87E0032
:100997007F36E532048052E5322402FF121A5FEFF8
:1009A7006404704CE52C700EAF2F121A85EF24ECFF
:1009B700FDAF2F121A08E52CB4010EAF2F121A85BE
:1009C700EF24D8FDAF2F121A08AF2F121A85EFD3D5
:1009D70094004003020A92E5322402FFE4FD121A52
:1009E700A87E007F36E5322402FD12132F052F2241
:1009F700E5322538FF121A5FEF640460137E007F2B
:100A070036AD3812132FE5322538FFE4FD121AA848
:100A17000538E5322538FF121A5FEF640470418507
:100A27002C35E52CAF2FB40108121A85EF24D88096
:100A370006121A85EF24ECFDAF2F121A08AF2F12FA
:100A47001A85EFD394005015E5322538FFE4FD12DF
:100A57001AA87E007F36AD3812132F052F7538027E
:100A6700E538C394084003753802E52CB401067EC7
:100A7700187F0C80047E177FECAD3812132FE532F8
:0C0A87002538FF7D03121AA8852C3522AB
:10127A00021A00000E1C000000000000000000001E
:04128A000000000060
:101AB800438901758CFC758A67D2A9D28CD2AF2272
:03000B00021A7264
:101A7200C0E0758CFC758A67051BE51B7002051AB0
:031A8200D0E0327F
:10192F00EF25E0241CF8E6FA08E6FBC3E51B9BFB5A
:10193F00E51A9AFAC3EB9DEA9C400EEF25E0241CB2
:0C194F00F8A61A08A61B7F01227F0022C8
:10172100526F756E643A320001C00638300C6004A5
:10173100466740B2710A496A4B1070E63E010F8854
:101741000DD0183409D4011403801CF820EC304466
:10175100180208020C060A021206105E320C122749
:081761001FCB0D100E14031440
:10128E000883020103000301020A0C770302030024
:10129E00010201040302010A013E00013D08013A68
:0A12AE000C01390D013B17013C2132
:100FF800E53EC3953D40030210947DA07C0F7F061B
:1010080012192FEF7003021094E53EC3953D507CF2
:101018007483253EF8E6606524FE6025146040244C
:10102800027067E5302407FF7D04121AA87E177F37
:10103800497D071212B97D78AF39121A080539802F
:1010480049E5312407FF7D04121AA87E177F297D00
:1010580007120DCE7D78AF3B121A08053B802BE5B1
:10106800322407FF7D04121AA87E177F297D0712F4
:10107800132F7D78AF3C121A08053C800D7BFF7A50
:0D108800177921E4FD7F031215D2053E22E9
:100A93007DB87C0B7F0312192FEF7003020B647573
:100AA3000C01E530250CFF121A5FEF6404600302AA
:100AB3000B58E530250C14FF121A5FEF6404700322
:100AC300020B58E530250C14FF121A5FEF64016026
:100AD3000EE530250C14FF121A5FEF6402703AE53D
:100AE30030250C14FF121A85EF24ECFDE530250C9C
:100AF30014FF121A08E530250C14FF121A85EFD3E0
:100B030094005051E530250C14FFE4FD121AA87E21
:100B1300007F36E50C14FD8039E530250CFF7D049C
:100B2300121AA87E177F49AD0C1212B9E50C1425D1
:100B330030FF7D04121AA87E177F49E50C14FD12BD
:100B430012B9E530250CFFE4FD121AA87E007F36AA
:100B5300AD0C1212B9050CE50CD394075003020A2D
:010B6300A5EC
:010B6400226E
:100B65007DD07C077F0412192FEF7003020C3675B8
:100B75000C01E531250CFF121A5FEF6404600302D6
:100B85000C2AE531250C14FF121A5FEF640470037B
:100B9500020C2AE531250C14FF121A5FEF6401607F
:100BA5000EE531250C14FF121A5FEF6402703AE569
:100BB50031250C14FF121A85EF24ECFDE531250CC7
:100BC50014FF121A08E531250C14FF121A85EFD30C
:100BD50094005051E531250C14FFE4FD121AA87E4E
:100BE500007F36E50C14FD8039E531250CFF7D04C9
:100BF500121AA87E177F29AD0C120DCEE50C14250F
:100C050031FF7D04121AA87E177F29E50C14FD1209
:100C15000DCEE531250CFFE4FD121AA87E007F36C6
:100C2500AD0C120DCE050CE50CD394075003020B49
:010C35007747
:010C3600229B
:100C37007DA07C0F7F0512192FEF7003020D087539
:100C47000C01E532250CFF121A5FEF640460030202
:100C57000CFCE532250C14FF121A5FEF64047003D5
:100C6700020CFCE532250C14FF121A5FEF640160D9
:100C77000EE532250C14FF121A5FEF6402703AE595
:100C870032250C14FF121A85EF24ECFDE532250CF2
:100C970014FF121A08E532250C14FF121A85EFD338
:100CA70094005051E532250C14FFE4FD121AA87E7A
:100CB700007F36E50C14FD8039E532250CFF7D04F5
:100CC700121AA87E177F29AD0C12132FE50C1425D5
:100CD70032FF7D04121AA87E177F29E50C14FD1236
:100CE700132FE532250CFFE4FD121AA87E007F368C
:100CF700AD0C12132F050CE50CD394075003020C0F
:010D070049A2
:010D080022C8
:0C1AD400120FF8120A93120B65020C3777
:091AF5007F18785FE4F608DFFCBD
:011AFE0022C5
:100F4000EF24F5B41C004003020FF5900F5975F023
:100F500003A4C58325F0C58373020FAD020FB6024B
:100F60000FBF020FC8020FD1020FDA020FE3020F08
:100F7000EC020FF5020FF5020FB0020FB9020FC21B
:100F8000020FCB020FD4020FDD020FE6020FEF02B9
:100F90000FF5020FF5020FB3020FBC020FC5020FCF
:100FA000CE020FD7020FE0020FE9020FF27F0022FC
:100FB0007F01227F02227F03227F04227F05227F7E
:100FC00006227F07227F08227F09227F0A227F0BC9
:100FD000227F0C227F0D227F0E227F0F227F102284
:100FE0007F11227F12227F13227F14227F15227FFE
:080FF00016227F17227FFF2269
:101A8500120F40EFC3941840037FFF22745F2FF8B5
:021A9500E6FF6A
:011A9700222C
:101A0800120F40EFC39418500EEDD394005002E427
:071A1800FD745F2FF8A60525
:011A1F0022A4
:03000000021123C7
:0C112300787FE4F6D8FD75818A02116A1D
:1019EF00BB010689828A83E0225002E722BBFE02F6
:0919FF00E32289828A83E4932229
:10112F00020003E493A3F8E493A34003F68001F2D3
:10113F0008DFF48029E493A3F85407240CC8C333C1
:10114F00C4540F4420C8834004F456800146F6DF90
:10115F00E4800B0102040810204080901235E47ED9
:10116F00019360BCA3FF543F30E509541FFEE49385
:10117F00A360010ECF54C025E060A840B8E493A34C
:10118F00FAE493A3F8E493A3C8C582C8CAC583CA77
:10119F00F0A3C8C582C8CAC583CADFE9DEE780BE2F
:0112B8000035
:00000001FF
