:1000030000000000000000000000000000000000ED
:1000130000000000000000000000000000000000DD
:100023000000001E000000000000000000000000AF
:100033000000005F800000000000000000000000DE
:10004300000000FFC00000000000000000000000EE
:10005300000001FFE00000000000000000000000BD
:100063000001E1FFE080000000000000000000004C
:10007300000FF9FFEFF00000000000000000000097
:10008300001FFDFFFFF8000018008700180000C0E4
:10009300001FFEFFFFF8000018018D801801F7C054
:1000A300003FFFFFFFFC000018018DA01800038034
:1000B300003FFFFFFFFC00001827FFF1FFC0060011
:1000C300003FFFFFFFFC0003FFF19D0108C00C0090
:1000D300003FFFFFFFFC000018017D6118C00860AE
:1000E300001FFFFFFFFC00001801DFE1FFC7FFF067
:1000F300001FFFFFFFFC00001C03ED0118C00800F8
:10010300001FFF01FFF8000016028D6118C00800F0
:10011300000FFE00FFF800003202AD81FFC00800AF
:100123000007F8003FD0000023073D011820080016
:1001330000FDF8003FE000006185FD201820080065
:1001430001FFF0001F40000080F00FE0182078004E
:1001530003FFF0000F80000300600C000FE01800A5
:1001630003FFE0000FF000000000000000000000AB
:1001730007FFE0000FF40000000000000000000093
:1001830007FFE0000FFE0000000000000000000079
:1001930007FFE0000FFF0000000000000000000068
:1001A30003FFE0000FFF80000000000000000000DC
:1001B30003FFE0001FFFC00000000000000000007C
:1001C30003FFF0001FFFC00000000000000000005C
:1001D30001FFF0003FFFC00000000000000000002E
:1001E30001FFF8007FFFC0000000000000000000D6
:1001F30000FFFC00FFFF8000000000000000000083
:10020300003FFF87FFFF80000000000000000000A8
:100213000003FFFFFFFF00000000000000000000DC
:100223000003FFFFFFFE00000000000000000000CD
:100233000003FFFFFFFC00000000000000000000BF
:100243000003FFFFFF0000000000000000000000AB
:100253000003FFFFFF00000000000000000000009B
:100263000003FFFFFF00000000000000000000008B
:100273000003FFFFFE00000000000000000000007C
:100283000003FFFFFE00000000000000000000006C
:100293000003FFFFFC00000000000000000000005E
:1002A3000001FFFFF8000000000000000000000054
:1002B3000000FE77E00000000000000000000000E6
:1002C3000000007001F000000000000000000000CA
:1002D300000000700FFC00000000000000000000A0
:1002E300000000703FFE000000000000000000005E
:1002F30000000078FFFE0000000000000000000086
:10030300001FFC79FFFE0000000000000000000059
:10031300007FFF39FFFE0000000000000000000026
:1003230000FFFFFDFFFC00000000000000000000D4
:1003330000FFFFFFFFF800000000000000000000C6
:1003430000FFFFFFFFF000000000000000000000BE
:10035300007FFFFEFFE0000000000000000000003F
:10036300003FFFEF7E0000000000000000000000DF
:10037300000FFFEF0000000000000000000000007D
:100383000007FFC78000000000000000000000001D
:100393000001FF83C0000000000000000000000017
:1003A30000001E01E000000000000000000000004B
:1003B30000000001F0000000000000000000000049
:1003C30000000000600000000000000000000000CA
:1003D300000000000000000000000000000000001A
:1003E300000000000000000000000000000000000A
:1003F30000000000000000000000000000000000FA
:100403000000180039E070F230CE300E300E0C3E92
:1004130007C00200000000000F800FE01FE00C0087
:10042300FFFFFFFFFFFFFFFFFFFFFFFFFFFFFFFFD9
:100433008000000000000000000000000000000138
:100443008000000000000000000000000000000128
:100453008000000000000000000000000000000118
:100463008000000000000000000000000000000108
:1004730080000000000000000000000000000001F8
:1004830080000000000000000000000000000001E8
:1004930080000000000000000000000000000001D8
:1004A30080000000000000000000000000000001C8
:1004B30080000000000000000000000000000001B8
:1004C30080000000000000000000000000000001A8
:1004D3008000000000000000000000000000000198
:1004E300FFFFFFFFFFFFFFFFFFFFFFFFFFFFFFFF19
:1004F3008000000000000000000000000000000178
:100503008000000000000000000000000000000167
:100513008000000000000000000000000000000157
:100523008000000000000000000000000000000147
:100533008000000000000000000000000000000137
:100543008000000000000000000000000000000127
:100553008000000000000000000000000000000117
:100563008000000000000000000000000000000107
:1005730080000000000000000000000000000001F7
:1005830080000000000000000000000000000001E7
:1005930080000000000000000000000000000001D7
:1005A30080000000000000000000000000000001C7
:1005B30080000000000000000000000000000001B7
:1005C30080000000000000000000000000000001A7
:1005D3008000000000000000000000000000000197
:1005E3008000000000000000000000000000000187
:1005F300FFFFFFFFFFFFFFFFFFFFFFFFFFFFFFFF08
:100603008000000000000000000000000000000166
:100613008000000000000000000000000000000156
:100623008000000000000000000000000000000146
:100633008000000000000000000000000000000136
:100643008000000000000000000000000000000126
:100653008000000000000000000000000000000116
:100663008000000000000000000000000000000106
:1006730080000000000000000000000000000001F6
:1006830080000000000000000000000000000001E6
:1006930080000000000000000000000000000001D6
:1006A30080000000000000000000000000000001C6
:1006B30080000000000000000000000000000001B6
:1006C30080000000000000000000000000000001A6
:1006D3008000000000000000000000000000000196
:1006E3008000000000000000000000000000000186
:1006F3008000000000000000000000000000000176
:10070300FFFFFFFFFFFFFFFFFFFFFFFFFFFFFFFFF6
:100713008000000000000000000000000000000155
:100723008000000000000000000000000000000145
:100733008000000000000000000000000000000135
:100743008000000000000000000000000000000125
:100753008000000000000000000000000000000115
:100763008000000000000000000000000000000105
:1007730080000000000000000000000000000001F5
:1007830080000000000000000000000000000001E5
:1007930080000000000000000000000000000001D5
:1007A30080000000000000000000000000000001C5
:1007B30080000000000000000000000000000001B5
:1007C30080000000000000000000000000000001A5
:1007D3008000000000000000000000000000000195
:1007E3008000000000000000000000000000000185
:1007F3008000000000000000000000000000000175
:100803008000000000000000000000000000000164
:10081300FFFFFFFFFFFFFFFFFFFFFFFFFFFFFFFFE5
:1008230001C00638300C6004466740B2710A496A59
:100833004B1070E63E010F880DD0183409D4011413
:1008430007C01C3028080804531E54A294978289B9
:10085300A001A001A001800150023006180C07F08E
:100CEF00120DCE7F907E01120E1E120E077E047F14
:100CFF00231209EC7F907E01120E1E7E047F0312D9
:100D0F000AE77E047F0312093B7E047F03120A72F7
:100D1F007E047F03120BD17E087F431208637E0887
:070D2F007F23120B5C80FE24
:0B0E5200EF1FAC0670011E4C70F62272
:100E1E00EF1FAC0670011E4C600A7D027CEFDCFEFB
:040E2E00DDFC80EC7B
:010E3200229D
:040DAA007D017C004B
:100DAE008F0FED4C6003120E33C2A6C2A5850F80C5
:100DBE007F017E00120E52D2A7D2A7D2A7C2A722BF
:100D76007E00E50E250BFFEE350DFEE5092FF5820B
:080D8600E5083EF583E493FF4C
:100D8E008F0F120E33D2A6C2A5850F807F017E0073
:0C0D9E00120E52D2A7D2A7D2A7C2A722E1
:100E33007580FFC2A6D2A5D2A7E58020E7FBC2A793
:030E4300AF80225B
:100DCE007F30120DAA7D017C007F01120DAE7D01D8
:100DDE007C007F06120DAE7D017C007F0C020DAEF5
:100E07007D017C007F01120DAE7F34120DAA7D019A
:070E17007C007F30020DAEEC
:100C9F007D017C007F08120DAE7F907E01120E1E2B
:100CAF007D017C007F0C120DAE7F907E01120E1E17
:100CBF007D017C007F08120DAE7F907E01120E1E0B
:100CCF007D017C007F0C120DAE7F907E01120E1EF7
:100CDF007D017C007F08120DAE7F907E01020E1EFB
:100C46008B108A118912EDD394005002E4FDEDD386
:100C5600940340027D0353070FED14600F146011D7
:100C660014601324037012430780800D430790809D
:100C7600084307888003430798120DAAAB10AA11F0
:100C8600A912120DEEFF6010120D8E74012512F5D9
:090C960012E43511F51180E4228D
:100D36008B13EDD394005002E4FDEDD394034002EF
:100D46007D0353070FED14600F1460111460132414
:100D5600037012430780800D43079080084307887D
:100D66008003430798E4FDFC120DAEAF13020D8E0F
:0409EC008E088F09D9
:1009F000E4F50DF50E7D01FC7F34120DAE7D017C1A
:100A0000007F36120DAEE4F50CE50CC3940950508E
:100A1000E4F50AE50A2480FF120DAAE50C2480FF04
:100A2000120DAAE4F50B7E00E50E250BFFEE350D49
:100A3000FEE5092FF582E508120D88050BE50BC3CD
:100A4000941040E27410250EF50EE4350DF50D05F9
:100A50000AE50AC3942040BB7408250CF50C80A954
:100A60007D017C007F36120DAE7D017C007F30025F
:020A70000DAEC9
:04093B008E088F098A
:10093F00E4F50DF50E7D01FC7F34120DAE7D017CCB
:10094F00007F36120DAEE4F50CE50CC39409507B15
:10095F00E50C7038750A1EE50A2480FF120DAAE512
:10096F000C2480FF120DAAE4F50B120D76050BE592
:10097F000BC3940240F47402250EF50EE4350DF509
:10098F000D050AE50AC3942040CD8036E4F50AE54B
:10099F000A2480FF120DAAE50C2480FF120DAAE491
:1009AF00F50B120D76050BE50BC3940240F47402A0
:1009BF00250EF50EE4350DF50D050AE50AC3940F66
:1009CF0040CD7408250CF50C0209587D017C007F81
:0D09DF0036120DAE7D017C007F30020DAEA2
:040A72008E088F0952
:100A7600E4F50CF50D7D01FC7F34120DAE7D017C95
:100A8600007F36120DAE750A0FE50A2480FF120D9F
:100A9600AA7D017C007F88120DAEE4F50B7E00E591
:100AA6000D250BFFEE350CFEE5092FF582E5081244
:100AB6000D88050BE50BC3940240E27402250DF583
:100AC6000DE4350CF50C050AE50AC3941F40BA7D02
:100AD600017C007F36120DAE7D017C007F30020D59
:010AE600AE61
:040AE7008E088F09DD
:100AEB00E4F50CF50D7D01FC7F34120DAE7D017C20
:100AFB00007F36120DAE750A0DE50A2480FF120D2C
:100B0B00AA7D017C007F80120DAEE4F50B7E00E523
:100B1B000D250BFFEE350CFEE5092FF582E50812CE
:100B2B000D88050BE50BC3940240E27402250DF50D
:100B3B000DE4350CF50C050AE50AC3941E40BA7D8D
:100B4B00017C007F36120DAE7D017C007F30020DE3
:010B5B00AEEB
:040863008E088F0963
:10086700E4F50DF50E7D01FC7F34120DAE7D017CA4
:10087700007F36120DAEE4F50CE50CC39409400376
:10088700020929E50C704A750A1EE50A2480FF1241
:100897000DAAE50C2481FF120DAAE4F50B7E00E5F5
:1008A7000E250BFFEE350DFEE5092FF582E5081243
:1008B7000D88050BE50BC3940240E27402250EF583
:1008C7000EE4350DF50D050AE50AC3942040BB80FB
:1008D70048E4F50AE50A2480FF120DAAE50C2481F5
:1008E700FF120DAAE4F50B7E00E50E250BFFEE3592
:1008F7000DFEE5092FF582E508120D88050BE50BBE
:10090700C3940240E27402250EF50EE4350DF50D91
:10091700050AE50AC3940F40BB7408250CF50C02C1
:1009270008807D017C007F36120DAE7D017C007F43
:0409370030020DAECF
:040B5C008E088F0967
:100B6000E4F50CF50D7D01FC7F34120DAE7D017CAA
:100B7000007F36120DAE750A0FE50A2480FF120DB4
:100B8000AA7D017C007F89120DAEE4F50B7E00E5A5
:100B90000D250BFFEE350CFEE5092FF582E5081259
:100BA0000D88050BE50BC3940240E27402250DF598
:100BB0000DE4350CF50C050AE50AC3941F40BA7D17
:100BC000017C007F36120DAE7D017C007F30020D6E
:010BD000AE76
:040BD1008E088F09F2
:100BD500E4F50CF50D7D01FC7F34120DAE7D017C35
:100BE500007F36120DAE750A0DE50A2480FF120D41
:100BF500AA7D017C007F81120DAEE4F50B7E00E538
:100C05000D250BFFEE350CFEE5092FF582E50812E3
:100C15000D88050BE50BC3940240E27402250DF522
:100C25000DE4350CF50C050AE50AC3941E40BA7DA2
:100C3500017C007F36120DAE7D017C007F30020DF8
:010C4500AE00
:03000000020E46A7
:0C0E4600787FE4F6D8FD758113020CEFF4
:100DEE00BB010689828A83E0225002E722BBFE0203
:090DFE00E32289828A83E4932236
:00000001FF
