:0600030012181002136444
:100B5F00D6B2CEEFB4F3D5BDBDA9CAAC00D3CECFBC
:100B6F00B7BCF2BDE900202000BFAACABCD3CECFCC
:100B7F00B700D3CECFB7BDE9C9DC00D6D6D6B2D633
:100B8F00B2CEEFB7C0D3F9BDA9CAAC0035312B4CEB
:100B9F004344D6C6D7F700B0B4C8CED2E2BCFCB738
:100BAF00B5BBD800C4D1B6C8D1A1D4F100BCF2B541
:100BBF00A500C0A7C4D100B0B4C8CED2E2BCFCD34C
:100BCF00CECFB7BFAACABC00C4D1B6C8A3BABCF2B5
:0E0BDF00B5A500C4D1B6C8A3BAC0A7C4D10042
:0C0D7D0001460001450001440001430054
:1010BA0012196D7BFF7A0B795FE4FD7F011213C66B
:1010CA00E54570137D017F011216997F20121720C2
:1010DA007F10121720800D7BFF7A0B79757D017FB7
:1010EA00011213C67BFF7A0B796C7D017F02121302
:1010FA00C6E545B401137D027F011216997F2012BD
:10110A0017207F10121720800D7BFF7A0B79757DCF
:10111A00027F011213C67BFF7A0B79787D027F0268
:04112A001213C622B4
:1016D10012196D7BFF7A0B7981E4FD7F021213C62B
:1016E1007BFF7A0B798A7D01E4FF1213C67BFF7AB7
:1016F1000B799B7D027F011213C67BFF7A0B79A6C2
:071701007D037F010213C606
:10112E0012196D7BFF7A0B79B3E4FD7F021213C6A1
:10113E00E54470137D017F011216997F201217204E
:10114E007F10121720800D7BFF7A0B79757D017F42
:10115E00011213C67BFF7A0B79BC7D017F0312133C
:10116E00C6E544B401137D027F011216997F201249
:10117E0017207F10121720800D7BFF7A0B79757D5B
:10118E00027F011213C67BFF7A0B79C17D027F03AA
:04119E001213C62240
:10173C0012196D7BFF7A0B79C6E4FDFF1213C6E517
:10174C0043700D7BFF7A0B79D77D037F031213C691
:10175C00E543B4010D7BFF7A0B79E27D037F031225
:03176C0013C6227F
:10176F00BF0209E545D3940040021545BF0A09E5BC
:10177F0045C3940150020545BF060FE5457003753B
:0D178F004601E545B401037546020210BA9B
:1019EB008F0A1216D1E50A6006E4F5461210BA22E8
:1017C500BF0209E544D3940040021544BF0A09E568
:1017D50044C3940150020544BF06098544431217CA
:0717E5003C75460302112EC2
:101364007509FF1210BAE54665096024854609E54A
:101374004614600F146011146013240370121210C9
:10138400BA800D1216D1800812112E800312173C58
:101394001204958F08E50860CDE5461460111460C9
:1013A40015146019240370BEAF0812176F80B7AF0D
:1013B400081219EB80B0AF081217C580A912141FC8
:0213C40080A403
:0417EC007D017C00FF
:1017F0008F18ED4C60031219C5C2A6C2A5851880CA
:101800007F017E00121A23D2A7D2A7D2A7C2A72295
:101708007E00E5172514FFEE3516FEE5122FF5824B
:08171800E5113EF583E493FFA7
:101720008F181219C5D2A6C2A58518807F017E0028
:0C173000121A23D2A7D2A7D2A7C2A72268
:1019C5007580FFC2A6D2A5D2A7E58020E7FBC2A7F6
:0319D500AF8022BE
:101810007F301217EC7D017C007F011217F07D01F3
:101820007C007F061217F07D017C007F0C0217F010
:10196D007D017C007F011217F07F341217EC7D0191
:07197D007C007F300217F02F
:10169900ED1460111460151460192403701AEF24F5
:1016A90080F50B8013EF2490F50B800CEF2488F55F
:1016B9000B8005EF2498F50B7D017C00AF0B121709
:0816C900F07F0A7E00021A23E3
:101583007D017C007F081217F07F907E011219B055
:101593007D017C007F0C1217F07F907E011219B041
:1015A3007D017C007F081217F07F907E011219B035
:1015B3007D017C007F0C1217F07F907E011219B021
:1015C3007D017C007F081217F07F907E010219B025
:1013C6008B0C8A0D890EEDD394005002E4FDEDD30B
:1013D600940340027D0353070FED14600F14601150
:1013E60014601324037012430780800D4307908016
:1013F6000843078880034307981217ECAB0CAA0D25
:10140600A90E121954FF60101217207401250EF54B
:091416000EE4350DF50D80E42211
:101619008B0CEDD394005002E4FDEDD3940340020A
:101629007D0353070FED14600F1460111460132428
:10163900037012430780800D430790800843078891
:101649008003430798E4FDFC1217F0AF0C02172042
:040C79008E0C8F0D41
:100C7D00E4F511F5127D01FC7F341217F07D017C36
:100C8D00007F361217F0E4F510E510C394095050AB
:100C9D00E4F50EE50E2480FF1217ECE5102480FF1D
:100CAD001217ECE4F50F7E00E512250FFFEE35115E
:100CBD00FEE50D2FF582E50C12171A050FE50FC392
:100CCD00941040E274102512F512E43511F511055A
:100CDD000EE50EC3942040BB74082510F51080A9B5
:100CED007D017C007F361217F07D017C007F300284
:020CFD0017F0EE
:040EE6008E118F12C8
:100EEA00E4F515F5167D01FC7F341217F07D017CBF
:100EFA00007F361217F075130DE5132480FF1217C1
:100F0A00EC7D017C007F801217F0E4F5147E00E589
:100F1A00162514FFEE3515FEE5122FF582E511129E
:100F2A00171A0514E514C3940240E274022516F553
:100F3A0016E43515F5150513E513C3941D40BA7D5E
:100F4A00017C007F361217F07D017C007F3002178A
:010F5A00F0A6
:040A0F008E118F12A3
:100A1300E4F516F5177D01FC7F341217F07D017C98
:100A2300007F361217F0E4F515E515C39409507BE2
:100A3300E515703875131EE5132480FF1217ECE5D6
:100A4300152480FF1217ECE4F5141217080514E5BA
:100A530014C3940240F474022517F517E43516F510
:100A6300160513E513C3942040CD8036E4F513E552
:100A7300132480FF1217ECE5152480FF1217ECE412
:100A8300F5141217080514E514C3940240F4740214
:100A93002517F517E43516F5160513E513C3940E5C
:100AA30040CD74082515F515020A2C7D017C007FC5
:0D0AB300361217F07D017C007F300217F035
:040F5B008E118F1252
:100F5F00E4F515F5167D01FC7F341217F07D017C49
:100F6F00007F361217F075130FE5132480FF121749
:100F7F00EC7D017C007F881217F0E4F5147E00E50C
:100F8F00162514FFEE3515FEE5122FF582E5111229
:100F9F00171A0514E514C3940240E274022516F5DE
:100FAF0016E43515F5150513E513C3941F40BA7DE7
:100FBF00017C007F361217F07D017C007F30021715
:010FCF00F031
:040FD0008E118F12DD
:100FD400E4F515F5167D01FC7F341217F07D017CD4
:100FE400007F361217F075130DE5132480FF1217D6
:100FF400EC7D017C007F811217F0E4F5147E00E59E
:10100400162514FFEE3515FEE5122FF582E51112B3
:10101400171A0514E514C3940240E274022516F568
:1010240016E43515F5150513E513C3941D40BA7D73
:10103400017C007F361217F07D017C007F3002179F
:01104400F0BB
:0406FC008E118F12BA
:10070000E4F516F5177D01FC7F341217F07D017CAE
:10071000007F361217F0E4F515E515C39409400380
:100720000207C2E515704A75131EE5132480FF12F7
:1007300017ECE5152481FF1217ECE4F5147E00E5B3
:10074000172514FFEE3516FEE5122FF582E511127E
:10075000171A0514E514C3940240E274022517F534
:1007600017E43516F5160513E513C3942040BB8036
:1007700048E4F513E5132480FF1217ECE5152481F6
:10078000FF1217ECE4F5147E00E5172514FFEE3593
:1007900016FEE5122FF582E51112171A0514E5145D
:1007A000C3940240E274022517F517E43516F516D6
:1007B0000513E513C3940E40BB74082515F5150207
:1007C00007197D017C007F361217F07D017C007FC8
:0407D000300217F0EC
:041045008E118F1267
:10104900E4F515F5167D01FC7F341217F07D017C5E
:10105900007F361217F075130FE5132480FF12175E
:10106900EC7D017C007F891217F0E4F5147E00E520
:10107900162514FFEE3515FEE5122FF582E511123E
:10108900171A0514E514C3940240E274022516F5F3
:1010990016E43515F5150513E513C3941F40BA7DFC
:1010A900017C007F361217F07D017C007F3002172A
:0110B900F046
:060DFA008E0D8F0E8D0F1F
:100E0000E4F512F5137D01FC7F341217F07D017CAF
:100E1000007F361217F075100DE5102480FF1217B1
:100E2000ECE50F2480FF1217ECE4F5117E00E513CA
:100E30002511FFEE3512FEE50E2FF582E50D121796
:100E40001A0511E511C3940240E274022513F5134B
:100E5000E43512F5120510E510C3941D40BB7D0169
:100E60007C007F361217F07D017C007F300217F086
:06061E008E0D8F0E8D0F02
:10062400E4F513F5147D01FC7F341217F07D017C91
:10063400007F361217F0E4F512E512C39409400363
:100644000206EAE512704C75101EE5102480FF12B4
:1006540017ECE5122480250FFF1217ECE4F5117E48
:1006640000E5142511FFEE3513FEE50E2FF582E5A6
:100674000D12171A0511E511C3940240E274022504
:1006840014F514E43513F5130510E510C394204054
:10069400B9804AE4F510E5102480FF1217ECE51246
:1006A4002480250FFF1217ECE4F5117E00E51425D4
:1006B40011FFEE3513FEE50E2FF582E50D12171A24
:1006C4000511E511C3940240E274022514F514E403
:1006D4003513F5130510E510C3940E40B9740825BD
:1006E40012F51202063D7D017C007F361217F07D63
:0806F400017C007F300217F0C9
:060E70008E0D8F0E8D0FA8
:100E7600E4F512F5137D01FC7F341217F07D017C39
:100E8600007F361217F075100FE5102480FF121739
:100E9600ECE50F2488FF1217ECE4F5117E00E5134C
:100EA6002511FFEE3512FEE50E2FF582E50D121720
:100EB6001A0511E511C3940240E274022513F513D5
:100EC600E43512F5120510E510C3941F40BB7D01F1
:100ED6007C007F361217F07D017C007F300217F010
:0B1A2300EF1FAC0670011E4C70F62295
:1019B000EF1FAC0670011E4C600A7D027CEFDCFE5E
:0419C000DDFC80ECDE
:0119C4002200
:10049500E4F50C7590FFC2932097137F14FE121993
:1004A500B03097FD7F147E001219B0750C012096AF
:1004B500147F147E001219B03096FD7F147E001251
:1004C50019B0750C052095147F147E001219B030F3
:1004D50095FD7F147E001219B0750C092094147FC8
:1004E500147E001219B03094FD7F147E001219B0ED
:1004F500750C0D7590FFC2922097147F147E001223
:1005050019B03097FD7F147E001219B0750C0220CA
:1005150096147F147E001219B03096FD7F147E006C
:100525001219B0750C062095147F147E001219B0AF
:100535003095FD7F147E001219B0750C0A209414B5
:100545007F147E001219B03094FD7F147E001219BD
:10055500B0750C0E7590FFC2912097147F147E0024
:100565001219B03097FD7F147E001219B0750C0377
:100575002096147F147E001219B03096FD7F147EEC
:10058500001219B0750C072095147F147E001219FE
:10059500B03095FD7F147E001219B0750C0B2094B8
:1005A500147F147E001219B03094FD7F147E001262
:1005B50019B0750C0F7590FFC2902097147F147EAB
:1005C500001219B03097FD7F147E001219B0750C1A
:1005D500042096147F147E001219B03096FD7F1406
:1005E5007E001219B0750C082095147F147E001238
:1005F50019B03095FD7F147E001219B0750C0C20D2
:1006050094147F147E001219B03094FD7F147E007F
:080615001219B0750C10AF0CB6
:01061D0022BA
:10000E00526F756E643A0000000000000000000F91
:10001E00F008100BD00BD00BD00BD008100FF00047
:10002E0000000000000000000000000000000000C2
:10003E0000000000000000000000000000000000B2
:10004E00000000000000000000180039E070F230DF
:10005E00CE300E300E0C3E07C00200000000000F26
:10006E00800FE01FE00C00FFFFFFFFFFFFFFFFFF11
:10007E00FFFFFFFFFFFFFF800000000000000000F9
:10008E0000000000000001800000000000000000E1
:10009E0000000000000001800000000000000000D1
:1000AE0000000000000001800000000000000000C1
:1000BE0000000000000001800000000000000000B1
:1000CE0000000000000001800000000000000000A1
:1000DE000000000000000180000000000000000091
:1000EE000000000000000180000000000000000081
:1000FE000000000000000180000000000000000071
:10010E000000000000000180000000000000000060
:10011E000000000000000180000000000000000050
:10012E0000000000000001FFFFFFFFFFFFFFFFFFC9
:10013E00FFFFFFFFFFFFFF80000000000000000038
:10014E000000000000000180000000000000000020
:10015E000000000000000180000000000000000010
:10016E000000000000000180000000000000000000
:10017E0000000000000001800000000000000000F0
:10018E0000000000000001800000000000000000E0
:10019E0000000000000001800000000000000000D0
:1001AE0000000000000001800000000000000000C0
:1001BE0000000000000001800000000000000000B0
:1001CE0000000000000001800000000000000000A0
:1001DE000000000000000180000000000000000090
:1001EE000000000000000180000000000000000080
:1001FE000000000000000180000000000000000070
:10020E00000000000000018000000000000000005F
:10021E00000000000000018000000000000000004F
:10022E00000000000000018000000000000000003F
:10023E0000000000000001FFFFFFFFFFFFFFFFFFB8
:10024E00FFFFFFFFFFFFFF80000000000000000027
:10025E00000000000000018000000000000000000F
:10026E0000000000000001800000000000000000FF
:10027E0000000000000001800000000000000000EF
:10028E0000000000000001800000000000000000DF
:10029E0000000000000001800000000000000000CF
:1002AE0000000000000001800000000000000000BF
:1002BE0000000000000001800000000000000000AF
:1002CE00000000000000018000000000000000009F
:1002DE00000000000000018000000000000000008F
:1002EE00000000000000018000000000000000007F
:1002FE00000000000000018000000000000000006F
:10030E00000000000000018000000000000000005E
:10031E00000000000000018000000000000000004E
:10032E00000000000000018000000000000000003E
:10033E00000000000000018000000000000000002E
:10034E0000000000000001FFFFFFFFFFFFFFFFFFA7
:10035E00FFFFFFFFFFFFFF80000000000000000016
:10036E0000000000000001800000000000000000FE
:10037E0000000000000001800000000000000000EE
:10038E0000000000000001800000000000000000DE
:10039E0000000000000001800000000000000000CE
:1003AE0000000000000001800000000000000000BE
:1003BE0000000000000001800000000000000000AE
:1003CE00000000000000018000000000000000009E
:1003DE00000000000000018000000000000000008E
:1003EE00000000000000018000000000000000007E
:1003FE00000000000000018000000000000000006E
:10040E00000000000000018000000000000000005D
:10041E00000000000000018000000000000000004D
:10042E00000000000000018000000000000000003D
:10043E00000000000000018000000000000000002D
:10044E00000000000000018000000000000000001D
:10045E0000000000000001FFFFFFFFFFFFFFFFFF96
:10046E00FFFFFFFFFFFFFF07C01C302808080453E3
:10047E001E54A294978289A001A001A00180015070
:07048E00023006180C07F014
:030D8900014A001C
:10141F00750BFF1218107F907E011219B012196D03
:10142F001219FB7E007F75120C797BFF7A00790E03
:10143F00E4FD7F031213C67B24E4FDFF1216197C13
:10144F00007D15AF491215D31204958F0AE54A1482
:10145F00600A04700CAF0A1211A28005AF0A120ABB
:09146F00C0121A17121A0B80DFDB
:0A1A2E007F18900000E4F0A3DFFC35
:011A3800228B
:10089F00EF24F5B41C0040030209549008B875F01A
:1008AF0003A4C58325F0C5837302090C0209150241
:1008BF00091E0209270209300209390209420209F9
:1008CF004B02095402095402090F020918020921A7
:1008DF0002092A02093302093C02094502094E02A4
:1008EF00095402095402091202091B0209240209C0
:1008FF002D02093602093F0209480209517F0022E1
:10090F007F01227F02227F03227F04227F05227F25
:10091F0006227F07227F08227F09227F0A227F0B70
:10092F00227F0C227F0D227F0E227F0F227F10222B
:10093F007F11227F12227F13227F14227F15227FA5
:08094F0016227F17227FFF2210
:1019220012089FEFC3941840037FFF2274002FF523
:0819320082E43400F583E0FFBC
:01193A00228A
:1019840012089FEFC39418500C74002FF582E434AE
:0519940000F583EDF0F9
:01199900222B
:090D8C0001490B01480B0147006D
:1011A2008F0CE50CB40216E54975F00A84640160FF
:1011B2000985494874F62549F54912179CE50CB48E
:1011C2000A16E54975F00A84640360098549487482
:1011D2000A2549F54912179CE50CB40514E5497531
:1011E200F00A84E5F0640160058549481549121743
:1011F2009CE50CB40714E54975F00A84E5F0640235
:101202006005854948054912179CE50CB40603752B
:031212004A01226C
:100AC0008F0CE50C64057029E547D39400400215AE
:100AD00047E547600D24FE600F0470157C007D150E
:100AE000800A7C007D5580047C047D75AF49121519
:100AF000D3E50C64077029E547C39402500205470B
:100B0000E547600D24FE600F0470157C007D1580A4
:100B10000A7C007D5580047C047D75AF491215D395
:100B2000E50C64067038E547601424FE601D04700F
:100B30002A7C007D15AF491215D3E4FD80187C0096
:100B40007D55AF491215D37D01800B7C047D75AFB7
:0F0B5000491215D37D02AF49121984E4F54A22E8
:1015D3008C0F8D10EF24F4602724F7601514602717
:1015E30024F760151460272415702AAF10AE0F027C
:1015F3000EE6AF10AE0F020A0FAF10AE0F020F5B75
:10160300AF10AE0F020FD0AF10AE0F0206FCAF103B
:06161300AE0F121045228B
:04179C00AD49AF485C
:1017A0008F0D8D0E121922EF70097C007D35AF0D63
:1017B0001215D3AF0E121922EF70097C007D15AF00
:0517C0000E1215D322FA
:10165900000000000000018003C003C001800000F9
:101669000000000000000000000000000000000071
:1016790000000000000018183C3C3C3C1818000011
:101689000000000000000000000000000000000051
:100D950001380B013A15013C1F013702013D0201E3
:100DA5004002013902013E02014102013B02013FBD
:040DB50002014202F3
:0C1A0B001207D4120CFF121215021288F0
:1007D400900000E0B401047F0180027F00900003D8
:1007E400E0FEB401047D0180027D00EEB402047ECB
:1007F4000180027E00EF6008ED600575370180140A
:10080400EF7009ED7006EF6008EE6005E4F53780DF
:1008140003753702900001E0B401047F0180027F78
:1008240000900004E0FEB401047D0180027D00EE2E
:10083400B402047E0180027E00EF6008ED6005755D
:1008440039018014EF7009ED7006EF6008EE600561
:10085400E4F5398003753902900002E0B401047FA5
:100864000180027F00900005E0FEB401047D018058
:10087400027D00EEB402047E0180027E00EF600778
:10088400ED6004753B0122EF7009ED7006EF60071F
:0A089400EE6004E4F53B22753B0220
:01089E002237
:100CFF00E53764027020E53D640260167E007F35A3
:100D0F00AD40120DFAE5382540FFE4FD1219847548
:100D1F004002753D02227F2C7E01121850EF604A6F
:100D2F007E007F35AD40120DFAE5382540FFE4FD1A
:100D3F001219840540E5382540FF121922EF64048B
:100D4F00602BE540C394084003754002E537B401BA
:100D5F00067E167F7980047E167F59AD40120DFAFC
:0E0D6F00E5382540FF7D0312198485373D22AB
:10121500E539B40216E53E6402600C7E007F35AD0B
:101225004112061E754102753E02227F2C7E011277
:10123500186EEF604A7E007F35AD4112061EE53A15
:101245002541FFE4FD1219840541E53A2541FF12C8
:101255001922EF6404602BE541C3940840037541EE
:1012650002E539B401067E167F7980047E167F5922
:10127500AD4112061EE5382541FF7D03121984850F
:03128500393E22CD
:10128800E53BB40216E53F6402600C7E007F35AD95
:1012980042120E70754202753F02227F2C7E0112A7
:1012A800188CEF604A7E007F35AD42120E70E53C27
:1012B8002542FFE4FD1219840542E53C2542FF1250
:1012C8001922EF6404602BE542C394084003754279
:1012D80002E53BB401067E167F7980047E167F59AD
:1012E800AD42120E70E5382542FF7D031219848540
:0312F8003B3F2257
:100DB9000221000002230000022500000227000092
:100DC90002190000021B0000021D0000021F0000A2
:1019FB00438901758CFC758A67D2A9D28CD2AF2230
:03000B000219D8FF
:1019D800C0E0758CFC758A670522E5227002052136
:0319E800D0E0321A
:10185000C3E5229524FDE5219523FCC3ED9FEC9E75
:0E18600040098521238522247F01227F00225A
:10186E00C3E5229526FDE5219525FCC3ED9FEC9E53
:0E187E0040098521258522267F01227F002238
:10188C00C3E5229528FDE5219527FCC3ED9FEC9E31
:0E189C0040098521278522287F01227F002216
:1018AA00C3E522951AFDE5219519FCC3ED9FEC9E2F
:0E18BA00400985211985221A7F01227F002214
:1018C800C3E522951CFDE521951BFCC3ED9FEC9E0D
:0E18D800400985211B85221C7F01227F0022F2
:1018E600C3E522951EFDE521951DFCC3ED9FEC9EEB
:0E18F600400985211D85221E7F01227F0022D0
:10190400C3E5229520FDE521951FFCC3ED9FEC9EC8
:0E191400400985211F8522207F01227F0022AD
:1018300001C00638300C6004466740B2710A496A3C
:101840004B1070E63E010F880DD0183409D40114F6
:100DD9000629030201020103013600013506012F2C
:100DE9000701300701310701320B01331501341FA7
:0C1A17001212FB1214781214D102152ACE
:1012FB00E536C3953550617FA07E0F121904EF6060
:10130B0057E536C39535505074292536F8E624FE3B
:10131B00601C14602E2402703DE5322407FF7D040F
:10132B001219847E187F307D07120DFA8028E53361
:10133B002407FF7D041219847E187F307D07120667
:10134B001E8013E5342407FF7D041219847E187F59
:09135B00307D07120E70053622E8
:101478007FDC7E051218AAEF604E750C01E5322557
:101488000CFF121922EF64047035E50C142532FFA5
:10149800121922EF70297E007F35AD0C120DFAE586
:1014A80032250CFFE4FD1219847E187F30E50C14F8
:1014B800FD120DFAE50C142532FF7D04121984057E
:0814C8000CE50CD3940740B5BC
:0114D00022F9
:1014D1007FD07E071218C8EF604E750C01E53325E9
:1014E1000CFF121922EF64047035E50C142533FF4B
:1014F100121922EF70297E007F35AD0C12061EE510
:1015010033250CFFE4FD1219847E187F30E50C149D
:10151100FD12061EE50C142533FF7D041219840506
:081521000CE50CD3940740B562
:01152900229F
:10152A007FB87E0B1218E6EF604E750C01E5342584
:10153A000CFF121922EF64047035E50C142534FFF0
:10154A00121922EF70297E007F35AD0C120E70E55C
:10155A0034250CFFE4FD1219847E187F30E50C1443
:10156A00FD120E70E50C142534FF7D041219840552
:08157A000CE50CD3940740B509
:011582002246
:0A1A39007F18900018E4F0A3DFFC12
:011A43002280
:10095700EF24F5B41C004003020A0C90097075F0EF
:1009670003A4C58325F0C583730209C40209CD0218
:1009770009D60209DF0209E80209F10209FA020AA7
:1009870003020A0C020A0C0209C70209D00209D99C
:100997000209E20209EB0209F40209FD020A060252
:1009A7000A0C020A0C0209CA0209D30209DC02096D
:1009B700E50209EE0209F7020A00020A097F00228E
:1009C7007F01227F02227F03227F04227F05227F6D
:1009D70006227F07227F08227F09227F0A227F0BB8
:1009E700227F0C227F0D227F0E227F0F227F102273
:1009F7007F11227F12227F13227F14227F15227FED
:080A070016227F17227FFF2257
:10193B00120957EFC3941840037FFF2274182FF539
:08194B0082E43400F583E0FFA3
:011953002271
:10199A00120957EFC39418500C74182FF582E434C7
:0519AA0000F583EDF0E3
:0119AF002215
:03000000020BED03
:0C0BED00787FE4F6D8FD75814A020C34D4
:10195400BB010689828A83E0225002E722BBFE0291
:09196400E32289828A83E49322C4
:100BF900020003E493A3F8E493A34003F68001F20F
:100C090008DFF48029E493A3F85407240CC8C333FC
:100C1900C4540F4420C8834004F456800146F6DFCB
:100C2900E4800B0102040810204080900D7DE47ED1
:100C3900019360BCA3FF543F30E509541FFEE493C0
:100C4900A360010ECF54C025E060A840B8E493A387
:100C5900FAE493A3F8E493A3C8C582C8CAC583CAB2
:100C6900F0A3C8C582C8CAC583CADFE9DEE780BE6A
:010DF90000F9
:00000001FF
