:0B04F5006A0069004D61784E756D00D3
:03053600014A0077
:100026001204C61204807F411203A58F4BE54BF4E0
:100036006021E4F548E548C3954B5017AF481203D5
:10004600A58F4C7F057E001204B1AF4C1205270523
:100056004880E2E4F54A7BFF7A0479F57D017F0169
:100066001204227BFF7A0479F77D067F01120422AF
:100076007BFF7A0479F97D017F02120422E54BFBAE
:100086007A007551027D037F01120463E548FB7A0D
:10009600007551027D037F02120463E54AFB7A0074
:1000A6007551027D087F0112046312020C8F49E527
:1000B6004960A3B403A0E4F548E548C3954A50193E
:1000C60074082548F8E6FD7C00AF481203FE7F055C
:1000D6007E001204B1054880E0E548FD7C007F41C2
:0600E6001203FE02005CA3
:0300230002026D69
:10026D00C0E0C0F0C083C082C0D075D000C000C057
:10027D0001C002C003C004C005C006C007309813FA
:10028D007408254AF8A6997408254AF8E6FF120560
:10029D0027C298054AE54AD394404003754A00D0D9
:1002AD0007D006D005D004D003D002D001D000D0A5
:0A02BD00D0D082D083D0F0D0E03220
:1003FE008F4D8C4E8D4F12051E7FA01203D5120409
:10040E00E9AF4D1203D51204E9AF4F1203D5120412
:04041E00E902052FBB
:0203A5008F4D7A
:1003A70012051E7FA01203D51204E9AF4D1203D523
:1003B7001204E912051E7FA11203D51204E91200E7
:0D03C700038F4E7F0112050012052FAF4E6F
:0103D4002206
:1004B100EF1FAC0670011E4C600A7D027CEFDCFE72
:0404C100DDFC80ECF2
:0104C5002214
:09051E00D2A0D2A1C2A0C2A12208
:07052F00C2A0D2A1D2A0225C
:0203D500AD0772
:1003D700E4FB74807E00A803088006CEA2E713CE54
:1003E70013D8F8FFEDF582EF558224FF92A0D2A132
:0603F700C2A10BBB08DCF3
:0103FD0022DD
:10000300E4FFD2A0FED2A130A00D7480A806088020
:0D00130002C313D8FC4207C2A10EBE08E8CC
:0100200022BD
:0A050000EF24FF92A0D2A1C2A122B5
:0B04E900D2A0D2A1A2A0E433FFC2A168
:0104F40022E5
:10020C00E4F54D20B1137F14FE1204B130B1FD7F23
:10021C00147E001204B1754D0120B0147F147E00C1
:10022C001204B130B0FD7F147E001204B1754D0282
:10023C0020B2147F147E001204B130B2FD7F147E04
:10024C00001204B1754D0320B3147F147E00120408
:10025C00B130B3FD7F147E001204B1754D04AF4D67
:01026C00226F
:0604DA00C2A58F80D2A72D
:0804E0007F027EEFDEFEDFFC6F
:0104E80022F1
:0A050A00C2A61204DAC2A70204E040
:10044500CFCDCFCECCCE12012B7C007D0A12012B55
:04045500ED2430FF63
:0A045900D2A61204DAC2A70204E0E2
:10049B00AE07BE0104ED148006BE0209ED243F44F5
:0604AB0080FF12050A2289
:1004C6007F3812050A7F0C12050A7F0612050A7F7D
:0404D6000102050A10
:0A051400AC0312049BAF040204596B
:060422008B4D8A4E894F4C
:1004280012049BE4FDAB4DAA4EA94F8D8275830043
:0C0438001200ECFF60061204590D80E970
:010444002295
:0C0372007F0AEA24FFFDE434FFFC7E005B
:08037E008E528F538C548D55F3
:100386007F017E00E4FBEBC39555E5546480F87469
:0E0396008098500AAC52AD531201190B80E84A
:0103A4002236
:040463008A4F8B50E1
:1004670012049BAA51EAD39400400D120372AC4FB9
:08047700AD501204451A80ED9E
:01047F00225A
:1002C70012049BC3EA64809480400B7F2B1204596D
:1002D7008A5B8B5C800E7F2D120459C3E49BF55C0F
:1002E700E49AF55BAA5AEAD39400400D120372AC64
:0902F7005BAD5C1204451A80EDB8
:0103000022DA
:040301008A5F8B6024
:1003050012049BAA61EAD3940040297F101203745A
:10031500AC5FAD60CFCDCFCECCCE12012BEF540F5D
:10032500FEC3940AEE5004243080022437FF1204E1
:04033500591A80D100
:0103390022A1
:04033A008A648B65E1
:10033E0012049BAA66EAD394004028EA24FFFDE447
:10034E0034FFFC7F027E0012037EAC64AD65CFCD20
:10035E00CFCECCCE12012BEF54012430FF12045914
:03036E001A80D220
:010371002269
:1004800075985043878053890F438920758BF47585
:0B0490008DF4C2ABD28ED2AFD2AC22F2
:080527008F993099FDC2992261
:030000000201807A
:0C018000787FE4F6D8FD7581660201C7A7
:1000EC00BB010CE58229F582E5833AF583E02250C9
:1000FC0006E92582F8E622BBFE06E92582F8E22213
:0D010C00E58229F582E5833AF583E493222C
:10011900EF8DF0A4A8F0CF8CF0A428CE8DF0A42EFA
:02012900FE22B4
:10012B00BC000BBE0029EF8DF084FFADF022E4CCB8
:10013B00F875F008EF2FFFEE33FEEC33FCEE9DEC81
:10014B00984005FCEE9DFE0FD5F0E9E4CEFD22EDC7
:10015B00F8F5F0EE8420D21CFEADF075F008EF2F11
:10016B00FFED33FD4007985006D5F0F222C398FD02
:05017B000FD5F0EA229F
:10018C00020026E493A3F8E493A34003F68001F263
:10019C0008DFF48029E493A3F85407240CC8C33374
:1001AC00C4540F4420C8834004F456800146F6DF43
:1001BC00E4800B0102040810204080900536E47E98
:1001CC00019360BCA3FF543F30E509541FFEE49338
:1001DC00A360010ECF54C025E060A840B8E493A3FF
:1001EC00FAE493A3F8E493A3C8C582C8CAC583CA2A
:1001FC00F0A3C8C582C8CAC583CADFE9DEE780BEE2
:0105390000C1
:00000001FF
