:060003001213F3020F18B6
:1008F400D6B2CEEFB4F3D5BDBDA9CAAC00D3CECF2A
:10090400B7BCF2BDE900202000BFAACABCD3CECF39
:10091400B700D3CECFB7BDE9C9DC00D6D6D6B2D6A0
:10092400B2CEEFB7C0D3F9BDA9CAAC0035312B4C58
:100934004344D6C6D7F700B0B4C8CED2E2BCFCB7A5
:10094400B5BBD800C4D1B6C8D1A1D4F100BCF2B5AE
:10095400A500C0A7C4D100B0B4C8CED2E2BCFCD3B9
:10096400CECFB7BFAACABC00C4D1B6C8A3BABCF222
:0E097400B5A500C4D1B6C8A3BAC0A7C4D100AF
:0C0EB000013E00013D00013C00013B0040
:100CEA0012144C7BFF7A0879F4E4FD7F0112108B11
:100CFA00E53D70137D017F011212507F201212D739
:100D0A007F101212D7800D7BFF7A09790A7D017F45
:100D1A000112108B7BFF7A0979017D017F02121083
:100D2A008BE53DB401137D027F011212507F201220
:100D3A0012D77F101212D7800D7BFF7A09790A7DAC
:100D4A00027F0112108B7BFF7A09790D7D027F02E7
:040D5A0012108B22C6
:1012880012144C7BFF7A097916E4FD7F0212108B49
:101298007BFF7A09791F7D01E4FF12108B7BFF7AAF
:1012A8000979307D027F0112108B7BFF7A09793B27
:0712B8007D037F0102108B92
:100D5E0012144C7BFF7A097948E4FD7F0212108B46
:100D6E00E53C70137D017F011212507F201212D7C5
:100D7E007F101212D7800D7BFF7A09790A7D017FD1
:100D8E000112108B7BFF7A0979517D017F031210BE
:100D9E008BE53CB401137D027F011212507F2012AD
:100DAE0012D77F101212D7800D7BFF7A09790A7D38
:100DBE00027F0112108B7BFF7A0979567D027F0329
:040DCE0012108B2252
:1012F30012144C7BFF7A09795BE4FDFF12108BE536
:101303003B700D7BFF7A09796C7D037F0312108B91
:10131300E53BB4010D7BFF7A0979777D037F0312E7
:03132300108B220A
:10132600BF0209E53DD394004002153DBF0A09E519
:101336003DC394015002053DBF060FE53D700375A0
:0D1346003E01E53DB40103753E02020CEAD4
:1014B1008F0A121288E50A6006E4F53E120CEA2250
:1013A800BF0209E53CD394004002153CBF0A09E599
:1013B8003CC394015002053CBF0609853C3B121210
:0713C800F3753E03020D5E08
:100F18007509FF120CEAE53E65096024853E09E57E
:100F28003E14600F14601114601324037012120C25
:100F3800EA800D1212888008120D5E80031212F3E7
:100F48001204958F08E50860CDE53E146011146021
:100F580015146019240370BEAF0812132680B7AFAA
:100F6800081214B180B0AF081213A880A91210E4B7
:020F780080A453
:0413CF007D017C0020
:1013D3008F19ED4C6003121478C2A6C2A58519803B
:1013E3007F017E001214F9D2A7D2A7D2A7C2A722E7
:1012BF007E00E5182515FFEE3517FEE5122FF58296
:0812CF00E5113EF583E493FFF5
:1012D7008F19121478D2A6C2A58519807F017E00C6
:0C12E7001214F9D2A7D2A7D2A7C2A722E6
:101478007580FFC2A6D2A5D2A7E58020E7FBC2A748
:03148800AF802210
:1013F3007F301213CF7D017C007F011213D37D0157
:101403007C007F061213D37D017C007F0C0213D373
:10144C007D017C007F011213D37F341213CF7D01F9
:07145C007C007F300213D376
:10125000ED1460111460151460192403701AEF2442
:1012600080F50B8013EF2490F50B800CEF2488F5AC
:101270000B8005EF2498F50B7D017C00AF0B12135A
:08128000D37F0A7E000214F97D
:10113D007D017C007F081213D37F907E0112146312
:10114D007D017C007F0C1213D37F907E01121463FE
:10115D007D017C007F081213D37F907E01121463F2
:10116D007D017C007F0C1213D37F907E01121463DE
:10117D007D017C007F081213D37F907E01021463E2
:10108B008B0C8A0D890EEDD394005002E4FDEDD349
:10109B00940340027D0353070FED14600F1460118E
:1010AB0014601324037012430780800D4307908054
:1010BB000843078880034307981213CFAB0CAA0D84
:1010CB00A90E121433FF60101212D77401250EF5FE
:0910DB000EE4350DF50D80E42250
:1011D0008B0CEDD394005002E4FDEDD39403400258
:1011E0007D0353070FED14600F1460111460132476
:1011F000037012430780800D4307908008430788DF
:101200008003430798E4FDFC1213D3AF0C0212D7FE
:040A0E008E0C8F0DAE
:100A1200E4F511F5127D01FC7F341213D37D017CC4
:100A2200007F361213D3E4F510E510C39409505039
:100A3200E4F50EE50E2480FF1213CFE5102480FFAB
:100A42001213CFE4F50F7E00E512250FFFEE3511EC
:100A5200FEE50D2FF582E50C1212D1050FE50FC34D
:100A6200941040E274102512F512E43511F51105C7
:100A72000EE50EC3942040BB74082510F51080A922
:100A82007D017C007F361213D37D017C007F300212
:020A920013D37C
:060B14008E118F128D13FB
:100B1A00E4F516F5177D01FC7F341213D37D017CB1
:100B2A00007F361213D375140DE5142480FF1213B7
:100B3A00CFE5132480FF1213CFE4F5157E00E517E5
:100B4A002515FFEE3516FEE5122FF582E511121274
:100B5A00D10515E515C3940240E274022517F5176D
:100B6A00E43516F5160514E514C3941D40BB7D0142
:100B7A007C007F361213D37D017C007F300213D3B1
:0606E3008E118F128D1331
:1006E900E4F517F5187D01FC7F341213D37D017CE5
:1006F900007F361213D3E4F516E516C394094003B7
:1007090002078BE516703A75141EE5142480FF1252
:1007190013CFE51624802513FF1213CFE4F5151224
:1007290012BF0515E515C3940240F474022518F5A6
:1007390018E43517F5170514E514C3942040CB8048
:1007490038E4F514E5142480FF1213CFE51624804C
:100759002513FF1213CFE4F5151212BF0515E51580
:10076900C3940240F474022518F518E43517F517F7
:100779000514E514C3940E40CB74082516F516022A
:1007890007027D017C007F361213D37D017C007F37
:04079900300213D344
:060B8A008E118F128D1385
:100B9000E4F516F5177D01FC7F341213D37D017C3B
:100BA000007F361213D375140FE5142480FF12133F
:100BB000CFE5132488FF1213CFE4F5157E00E51767
:100BC0002515FFEE3516FEE5122FF582E5111212FE
:100BD000D10515E515C3940240E274022517F517F7
:100BE000E43516F5160514E514C3941F40BB7D01CA
:100BF0007C007F361213D37D017C007F300213D33B
:0B14F900EF1FAC0670011E4C70F622C5
:10146300EF1FAC0670011E4C600A7D027CEFDCFEB0
:04147300DDFC80EC30
:011477002252
:10049500E4F50C7590FFC2932097137F14FE121498
:1004A500633097FD7F147E00121463750C0120964E
:1004B500147F147E001214633096FD7F147E0012A3
:1004C5001463750C052095147F147E001214633097
:1004D50095FD7F147E00121463750C092094147F1A
:1004E500147E001214633094FD7F147E0012146391
:1004F500750C0D7590FFC2922097147F147E001223
:1005050014633097FD7F147E00121463750C02206E
:1005150096147F147E001214633096FD7F147E00BE
:10052500121463750C062095147F147E0012146353
:100535003095FD7F147E00121463750C0A20941407
:100545007F147E001214633094FD7F147E00121414
:1005550063750C0E7590FFC2912097147F147E0071
:100565001214633097FD7F147E00121463750C031B
:100575002096147F147E001214633096FD7F147E3E
:1005850000121463750C072095147F147E00121455
:10059500633095FD7F147E00121463750C0B209457
:1005A500147F147E001214633094FD7F147E0012B4
:1005B5001463750C0F7590FFC2902097147F147EFD
:1005C500001214633097FD7F147E00121463750CBE
:1005D500042096147F147E001214633096FD7F1458
:1005E5007E00121463750C082095147F147E00128A
:1005F50014633095FD7F147E00121463750C0C2076
:1006050094147F147E001214633094FD7F147E00D1
:08061500121463750C10AF0C08
:01061D0022BA
:10000E00526F756E643A0000000000000000000F91
:10001E00F008100BD00BD00BD00BD008100FF00047
:10002E0000000000000000000000000000000000C2
:10003E0000000000000000000000000000000000B2
:10004E00000000000000000000180039E070F230DF
:10005E00CE300E300E0C3E07C00200000000000F26
:10006E00800FE01FE00C00FFFFFFFFFFFFFFFFFF11
:10007E00FFFFFFFFFFFFFF800000000000000000F9
:10008E0000000000000001800000000000000000E1
:10009E0000000000000001800000000000000000D1
:1000AE0000000000000001800000000000000000C1
:1000BE0000000000000001800000000000000000B1
:1000CE0000000000000001800000000000000000A1
:1000DE000000000000000180000000000000000091
:1000EE000000000000000180000000000000000081
:1000FE000000000000000180000000000000000071
:10010E000000000000000180000000000000000060
:10011E000000000000000180000000000000000050
:10012E0000000000000001FFFFFFFFFFFFFFFFFFC9
:10013E00FFFFFFFFFFFFFF80000000000000000038
:10014E000000000000000180000000000000000020
:10015E000000000000000180000000000000000010
:10016E000000000000000180000000000000000000
:10017E0000000000000001800000000000000000F0
:10018E0000000000000001800000000000000000E0
:10019E0000000000000001800000000000000000D0
:1001AE0000000000000001800000000000000000C0
:1001BE0000000000000001800000000000000000B0
:1001CE0000000000000001800000000000000000A0
:1001DE000000000000000180000000000000000090
:1001EE000000000000000180000000000000000080
:1001FE000000000000000180000000000000000070
:10020E00000000000000018000000000000000005F
:10021E00000000000000018000000000000000004F
:10022E00000000000000018000000000000000003F
:10023E0000000000000001FFFFFFFFFFFFFFFFFFB8
:10024E00FFFFFFFFFFFFFF80000000000000000027
:10025E00000000000000018000000000000000000F
:10026E0000000000000001800000000000000000FF
:10027E0000000000000001800000000000000000EF
:10028E0000000000000001800000000000000000DF
:10029E0000000000000001800000000000000000CF
:1002AE0000000000000001800000000000000000BF
:1002BE0000000000000001800000000000000000AF
:1002CE00000000000000018000000000000000009F
:1002DE00000000000000018000000000000000008F
:1002EE00000000000000018000000000000000007F
:1002FE00000000000000018000000000000000006F
:10030E00000000000000018000000000000000005E
:10031E00000000000000018000000000000000004E
:10032E00000000000000018000000000000000003E
:10033E00000000000000018000000000000000002E
:10034E0000000000000001FFFFFFFFFFFFFFFFFFA7
:10035E00FFFFFFFFFFFFFF80000000000000000016
:10036E0000000000000001800000000000000000FE
:10037E0000000000000001800000000000000000EE
:10038E0000000000000001800000000000000000DE
:10039E0000000000000001800000000000000000CE
:1003AE0000000000000001800000000000000000BE
:1003BE0000000000000001800000000000000000AE
:1003CE00000000000000018000000000000000009E
:1003DE00000000000000018000000000000000008E
:1003EE00000000000000018000000000000000007E
:1003FE00000000000000018000000000000000006E
:10040E00000000000000018000000000000000005D
:10041E00000000000000018000000000000000004D
:10042E00000000000000018000000000000000003D
:10043E00000000000000018000000000000000002D
:10044E00000000000000018000000000000000001D
:10045E0000000000000001FFFFFFFFFFFFFFFFFF96
:10046E00FFFFFFFFFFFFFF07C01C302808080453E3
:10047E001E54A294978289A001A001A00180015070
:07048E00023006180C07F014
:030EBC00014200F0
:1010E400750BFF1213F37F907E0112146312144CDC
:1010F4001214D17E007F75120A0E7BFF7A00790EDE
:10110400E4FD7F0312108B7B24E4FDFF1211D07CDD
:10111400007D15AF4112118D1204958F0AE542141A
:10112400600A04700CAF0A120DD28005AF0A1208CF
:09113400551214ED1214E180DFE4
:091504007F187843E4F608DFFCCF
:01150D0022BB
:10079D00EF24F5B41C0040030208529007B675F023
:1007AD0003A4C58325F0C5837302080A020813024A
:1007BD00081C02082502082E02083702084002080C
:1007CD004902085202085202080D02081602081FBB
:1007DD0002082802083102083A02084302084C02B6
:1007ED0008520208520208100208190208220208D3
:1007FD002B02083402083D02084602084F7F0022F2
:10080D007F01227F02227F03227F04227F05227F28
:10081D0006227F07227F08227F09227F0A227F0B73
:10082D00227F0C227F0D227F0E227F0F227F10222E
:10083D007F11227F12227F13227F14227F15227FA8
:08084D0016227F17227FFF2213
:10148B0012079DEFC3941840037FFF2274432FF87C
:02149B00E6FF6A
:01149D00222C
:0F14C10012079DEFC39418500674432FF8A60529
:0114D00022F9
:090EBF0001410B01400B013F0051
:100DD2008F0CE50CB40216E54175F00A84640160DB
:100DE2000985414074F62541F54112137FE50CB4A3
:100DF2000A16E54175F00A8464036009854140746E
:100E02000A2541F54112137FE50CB40514E541753D
:100E1200F00A84E5F0640160058541401541121332
:100E22007FE50CB40714E54175F00A84E5F064022D
:100E32006005854140054112137FE50CB406037538
:030E420042012248
:100855008F0CE50C64057029E53FD3940040021523
:100865003FE53F600D24FE600F0470157C007D158B
:10087500800A7C007D5580047C047D75AF41121192
:100885008DE50C64077029E53FC394025002053FCE
:10089500E53F600D24FE600F0470157C007D15801A
:1008A5000A7C007D5580047C047D75AF4112118D55
:1008B500E50C64067038E53F601424FE601D047085
:1008C5002A7C007D15AF4112118DE4FD80187C0056
:1008D5007D55AF4112118D7D01800B7C047D75AF77
:0F08E5004112118D7D02AF411214C1E4F5422280
:10118D008C0F8D10EF24F4601E24F7601214602074
:10119D0024F7600F14602224157027E4FD800AE403
:1011AD00FD800FE4FD80147D01AF10AE0F020B1416
:1011BD007D01AF10AE0F0206E37D01AF10AE0F1231
:0311CD000B8A2268
:04137F00AD41AF408D
:101383008F0D8D0E12148BEF70097C007D35AF0D20
:1013930012118DAF0E12148BEF70097C007D15AF07
:0513A3000E12118D2265
:10121000000000000000018003C003C00180000046
:1012200000000000000000000000000000000000BE
:1012300000000000000018183C3C3C3C181800005E
:10124000000000000000000000000000000000009E
:100EC800012B0B012D15012F1F012A0201300201F0
:100ED8003302012C02013102013402012E020132D7
:040EE80002013502CC
:10061E007843E6B401047F0180027F007846E6FE4F
:10062E00B401047D0180027D00EEB402047E0180DF
:10063E00027E00EF6008ED6005752A018014EF70F0
:10064E0009ED7006EF6008EE6005E4F52A8003758B
:10065E002A027844E6B401047F0180027F007847C5
:10066E00E6FEB401047D0180027D00EEB402047E3C
:10067E000180027E00EF6008ED6005752C0180148C
:10068E00EF7009ED7006EF6008EE6005E4F52C8062
:10069E0003752C027845E6B401047F0180027F00C9
:1006AE007848E6FEB401047D0180027D00EEB402BE
:1006BE00047E0180027E00EF6007ED6004752E015E
:1006CE0022EF7009ED7006EF6007EE6004E4F52E80
:0406DE0022752E0251
:0106E20022F5
:100A9400E52A64027020E530640260167E007F352A
:100AA400AD33120B14E52B2533FFE4FD1214C1758D
:100AB4003302753002227D2C7C01E4FF121353EFC4
:100AC400604A7E007F35AD33120B14E52B2533FFCE
:100AD400E4FD1214C10533E52B2533FF12148BEF0B
:100AE4006404602BE533C394084003753302E52A9C
:100AF400B401067E127F3080047E127F10AD331263
:100B04000B14E52B2533FF7D031214C1852A3022F3
:100C0000E52CB40216E5316402600C7E007F35AD40
:100C1000341206E3753402753102227D2C7C017F8B
:100C200001121353EF604A7E007F35AD341206E3A4
:100C3000E52D2534FFE4FD1214C10534E52D2534DE
:100C4000FF12148BEF6404602BE534C39408400357
:100C5000753402E52CB401067E127F3080047E12CA
:100C60007F10AD341206E3E52D2534FF7D03121409
:050C7000C1852C3122BA
:100C7500E52EB40216E5326402600C7E007F35ADC8
:100C850035120B8A753502753202227D2C7C017F67
:100C950002121353EF604A7E007F35AD35120B8A81
:100CA500E52F2535FFE4FD1214C10535E52F253562
:100CB500FF12148BEF6404602BE535C394084003E1
:100CC500753502E52EB401067E127F3080047E1252
:100CD5007F10AD35120B8AE52F2535FF7D031214E4
:050CE500C1852E322242
:0C14E10012061E120A94120C00020C7578
:100EEC00021A00000E1C00000000000000000000B0
:040EFC0000000000F2
:1014D100438901758CFC758A67D2A9D28CD2AF225F
:03000B0002149E3E
:10149E00C0E0758CFC758A67051BE51B7002051A8A
:0314AE00D0E03259
:10135300EF25E0241CF8E6FA08E6FBC3E51B9BFB3C
:10136300E51A9AFAC3EB9DEA9C400EEF25E0241C94
:0C137300F8A61A08A61B7F01227F0022AA
:1014130001C00638300C6004466740B2710A496A5D
:101423004B1070E63E010F880DD0183409D4011417
:100F0000065B030201020103013A000139060136C2
:070F10000B01371501381F2A
:100E4500E53AC3953950637DA07C0F7F0612135395
:100E5500EF6057E53AC395395050745B253AF8E68B
:100E650024FE601C14602E2402703DE5362407FF25
:100E75007D041214C17E147F137D07120B14802884
:100E8500E5372407FF7D041214C17E147F137D0707
:100E95001206E38013E5382407FF7D041214C17E92
:0B0EA500147F137D07120B8A053A2210
:100F7A007DDC7C057F03121353EF604E750C01E58F
:100F8A0036250CFF12148BEF64047035E50C14251A
:100F9A0036FF12148BEF70297E007F35AD0C120BD1
:100FAA0014E536250CFFE4FD1214C17E147F13E507
:100FBA000C14FD120B14E50C142536FF7D041214D3
:0A0FCA00C1050CE50CD3940740B5F7
:010FD40022FA
:100FD5007DD07C077F04121353EF604E750C01E53D
:100FE50037250CFF12148BEF64047035E50C1425BE
:100FF50037FF12148BEF70297E007F35AD0C12067A
:10100500E3E537250CFFE4FD1214C17E147F13E5DB
:101015000C14FD1206E3E50C142537FF7D041214AC
:0A102500C1050CE50CD3940740B59B
:01102F00229E
:101030007DB87C0B7F05121353EF604E750C01E5F4
:1010400038250CFF12148BEF64047035E50C142561
:1010500038FF12148BEF70297E007F35AD0C120B18
:101060008AE538250CFFE4FD1214C17E147F13E5D8
:101070000C14FD120B8AE50C142538FF7D041214A4
:0A108000C1050CE50CD3940740B540
:01108A002243
:0C14ED00120E45120F7A120FD5021030BB
:0100090022D4
:0300000002098270
:0C098200787FE4F6D8FD7581600209C999
:10143300BB010689828A83E0225002E722BBFE02B7
:09144300E32289828A83E49322EA
:10098E00020003E493A3F8E493A34003F68001F27C
:10099E0008DFF48029E493A3F85407240CC8C3336A
:1009AE00C4540F4420C8834004F456800146F6DF39
:1009BE00E4800B0102040810204080900EB0E47E0B
:1009CE00019360BCA3FF543F30E509541FFEE4932E
:1009DE00A360010ECF54C025E060A840B8E493A3F5
:1009EE00FAE493A3F8E493A3C8C582C8CAC583CA20
:1009FE00F0A3C8C582C8CAC583CADFE9DEE780BED8
:010F170000D9
:00000001FF
