:0900BD0074082FF876010200031B
:0700C60074082FF8E4F62294
:10005D007E007F91E4FD1200327E007FA17D0112B2
:0F006D000032E4F508F509F50A784BE6F5812233
:10000300744B250AF8A681E50A04FFC39402400253
:10001300E4FF74082FF8E6B4010B0FEFC39402401A
:0E002300F1E4FF80ED8F0A744B2FF8E6F581B3
:0100310022AC
:10009100C2A07FE87E0312007CB2A012000380F2AE
:1000A100C2A77FE87E0312007CB2A712000380F290
:10003200AB07AA06AF02EDC43354E0240CF8A607BE
:10004200AF03EDC43354E0240BF8A607EDC43354D8
:0B005200E0240CFF744B2DF8A60722E1
:10007C00EF1FAC0670011E4C600A7D027CEFDCFEAB
:04008C00DDFC80EC2B
:01009000224D
:030000000200B14A
:0C00B100787FE4F6D8FD75814C02005DFC
:00000001FF
