:0900C20074082FF8760102000316
:0700CB0074082FF8E4F6228F
:10005D007E007F7CE4FD1200327E007FA67D0112C2
:0F006D000032E4F508F509F50A784BE6F5812233
:10000300744B250AF8A681E50A04FFC39402400253
:10001300E4FF74082FF8E6B4010B0FEFC39402401A
:0E002300F1E4FF80ED8F0A744B2FF8E6F581B3
:0100310022AC
:10007C00C2A07FE87E03120091B2A0120003E4FF3D
:05008C001200C280ED2E
:1000A600C2A77FF47E01120091B2A712000380F26C
:10003200AB07AA06AF02EDC43354E0240CF8A607BE
:10004200AF03EDC43354E0240BF8A607EDC43354D8
:0B005200E0240CFF744B2DF8A60722E1
:10009100EF1FAC0670011E4C600A7D027CEFDCFE96
:0400A100DDFC80EC16
:0100A5002238
:030000000200B645
:0C00B600787FE4F6D8FD75814C02005DF7
:00000001FF
