:060003001217C3021317DF
:100A9B00D6B2CEEFB4F3D5BDBDA9CAAC00D3CECF81
:100AAB00B7BCF2BDE900202000BFAACABCD3CECF91
:100ABB00B700D3CECFB7BDE9C9DC00D6D6D6B2D6F8
:100ACB00B2CEEFB7C0D3F9BDA9CAAC0035312B4CB0
:100ADB004344D6C6D7F700B0B4C8CED2E2BCFCB7FD
:100AEB00B5BBD800C4D1B6C8D1A1D4F100BCF2B506
:100AFB00A500C0A7C4D100B0B4C8CED2E2BCFCD311
:100B0B00CECFB7BFAACABC00C4D1B6C8A3BABCF279
:0E0B1B00B5A500C4D1B6C8A3BAC0A7C4D10006
:0C0CB9000165000164000163000162009D
:10106D001218EE7BFF7A0A799BE4FD7F011213794A
:10107D00E56470137D017F0112164C7F201216D38B
:10108D007F101216D3800D7BFF7A0A79B17D017F17
:10109D00011213797BFF7A0A79A87D017F02121361
:1010AD0079E564B401137D027F0112164C7F201285
:1010BD0016D37F101216D3800D7BFF7A0A79B17D7E
:1010CD00027F011213797BFF7A0A79B47D027F02C8
:0410DD00121379224F
:101684001218EE7BFF7A0A79BDE4FD7F021213790A
:101694007BFF7A0A79C67D01E4FF1213797BFF7A16
:1016A4000A79D77D027F011213797BFF7A0A79E2E6
:0716B4007D037F01021379A1
:1010E1001218EE7BFF7A0A79EFE4FD7F0212137981
:1010F100E56370137D017F0112164C7F201216D318
:101101007F101216D3800D7BFF7A0A79B17D017FA2
:10111100011213797BFF7A0A79F87D017F0312139B
:1011210079E563B401137D027F0112164C7F201211
:1011310016D37F101216D3800D7BFF7A0A79B17D09
:10114100027F011213797BFF7A0A79FD7D027F0309
:0411510012137922DA
:1016EF001218EE7BFF7A0B7902E4FDFF121379E5F6
:1016FF0062700D7BFF7A0B79137D037F03121379D1
:10170F00E562B4010D7BFF7A0B791E7D037F031217
:03171F0013792219
:10172200BF0209E564D3940040021564BF0A09E5CB
:1017320064C3940150020564BF060FE5647003752B
:0D1742006501E564B4010375650202106DD8
:101953008F22121684E5226006E4F56512106D22CB
:10177800BF0209E563D3940040021563BF0A09E577
:1017880063C3940150020563BF060985636212169C
:07179800EF7565030210E18B
:101317007521FF12106DE56565216024856521E55E
:101327006514600F146011146013240370121210F7
:101337006D800D12168480081210E180031216EFDB
:101347001204958F20E52060CDE5651460111460C7
:1013570015146019240370BEAF2012172280B7AF8F
:101367002012195380B0AF2012177880A91213D218
:0213770080A450
:04179F007D017C004C
:1017A3008F30ED4C600312191AC2A6C2A585308092
:1017B3007F017E0012199BD2A7D2A7D2A7C2A7226C
:1016BB007E00E52F252CFFEE352EFEE52A2FF58239
:0816CB00E5293EF583E493FFDD
:1016D3008F3012191AD2A6C2A58530807F017E00F1
:0C16E30012199BD2A7D2A7D2A7C2A7223F
:10191A007580FFC2A6D2A5D2A7E58020E7FBC2A7A1
:03192A00AF802269
:1017C3007F3012179F7D017C007F011217A37D01DB
:1017D3007C007F061217A37D017C007F0C0217A3F8
:1018EE007D017C007F011217A37F3412179F7D01AB
:0718FE007C007F300217A3FC
:10164C00ED1460111460151460192403701AEF2442
:10165C0080F5238013EF2490F523800CEF2488F57C
:10166C00238005EF2498F5237D017C00AF2312170E
:08167C00A37F0A7E0002199B06
:101536007D017C007F081217A37F907E011219059A
:101546007D017C007F0C1217A37F907E0112190586
:101556007D017C007F081217A37F907E011219057A
:101566007D017C007F0C1217A37F907E0112190566
:101576007D017C007F081217A37F907E010219056A
:101379008B248A258926EDD394005002E4FDEDD310
:10138900940340027D0353070FED14600F1460119D
:1013990014601324037012430780800D4307908063
:1013A90008430788800343079812179FAB24AA258F
:1013B900A9261218D5FF60101216D374012526F537
:0913C90026E43525F52580E42217
:1015CC008B24EDD394005002E4FDEDD39403400240
:1015DC007D0353070FED14600F1460111460132476
:1015EC00037012430780800D4307908008430788DF
:1015FC008003430798E4FDFC1217A3AF240216D313
:040BB5008E248F25D6
:100BB900E4F529F52A7D01FC7F341217A37D017C18
:100BC900007F361217A3E4F528E528C3940950508D
:100BD900E4F526E5262480FF12179FE5282480FFE7
:100BE90012179FE4F5277E00E52A2527FFEE352910
:100BF900FEE5252FF582E5241216CD0527E527C345
:100C0900941040E27410252AF52AE43529F52905BE
:100C190026E526C3942040BB74082528F52880A919
:100C29007D017C007F361217A37D017C007F300295
:020C390017A3FF
:040E99008E298F2AE5
:100E9D00E4F52DF52E7D01FC7F341217A37D017C29
:100EAD00007F361217A3752B0DE52B2480FF12172B
:100EBD009F7D017C007F801217A3E4F52C7E00E559
:100ECD002E252CFFEE352DFEE52A2FF582E5291274
:100EDD0016CD052CE52CC3940240E27402252EF5A7
:100EED002EE4352DF52D052BE52BC3941D40BA7D34
:100EFD00017C007F361217A37D017C007F30021725
:010F0D00A340
:04094B008E298F2A38
:10094F00E4F52EF52F7D01FC7F341217A37D017C7A
:10095F00007F361217A3E4F52DE52DC39409507BC4
:10096F00E52D7038752B1EE52B2480FF12179FE5A0
:10097F002D2480FF12179FE4F52C1216BB052CE5D2
:10098F002CC3940240F47402252FF52FE4352EF575
:10099F002E052BE52BC3942040CD8036E4F52BE5B7
:1009AF002B2480FF12179FE52D2480FF12179FE441
:1009BF00F52C1216BB052CE52CC3940240F47402DF
:1009CF00252FF52FE4352EF52E052BE52BC3940E91
:1009DF0040CD7408252DF52D0209687D017C007F1F
:0D09EF00361217A37D017C007F300217A394
:040F0E008E298F2A6F
:100F1200E4F52DF52E7D01FC7F341217A37D017CB3
:100F2200007F361217A3752B0FE52B2480FF1217B3
:100F32009F7D017C007F881217A3E4F52C7E00E5DB
:100F42002E252CFFEE352DFEE52A2FF582E52912FE
:100F520016CD052CE52CC3940240E27402252EF531
:100F62002EE4352DF52D052BE52BC3941F40BA7DBC
:100F7200017C007F361217A37D017C007F300217AF
:010F8200A3CB
:040F83008E298F2AFA
:100F8700E4F52DF52E7D01FC7F341217A37D017C3E
:100F9700007F361217A3752B0DE52B2480FF121740
:100FA7009F7D017C007F811217A3E4F52C7E00E56D
:100FB7002E252CFFEE352DFEE52A2FF582E5291289
:100FC70016CD052CE52CC3940240E27402252EF5BC
:100FD7002EE4352DF52D052BE52BC3941D40BA7D49
:100FE700017C007F361217A37D017C007F3002173A
:010FF700A356
:0406FC008E298F2A8A
:10070000E4F52EF52F7D01FC7F341217A37D017CCB
:10071000007F361217A3E4F52DE52DC3940940039D
:100720000207C2E52D704A752B1EE52B2480FF12AF
:10073000179FE52D2481FF12179FE4F52C7E00E51D
:100740002F252CFFEE352EFEE52A2FF582E5291206
:1007500016CD052CE52CC3940240E27402252FF53A
:100760002FE4352EF52E052BE52BC3942040BB80BE
:1007700048E4F52BE52B2480FF12179FE52D2481FB
:10078000FF12179FE4F52C7E00E52F252CFFEE3598
:100790002EFEE52A2FF582E5291216CD052CE52C33
:1007A000C3940240E27402252FF52FE4352EF52E76
:1007B000052BE52BC3940E40BB7408252DF52D02A7
:1007C00007197D017C007F361217A37D017C007F15
:0407D000300217A339
:040FF8008E298F2A85
:100FFC00E4F52DF52E7D01FC7F341217A37D017CC9
:10100C00007F361217A3752B0FE52B2480FF1217C8
:10101C009F7D017C007F891217A3E4F52C7E00E5EF
:10102C002E252CFFEE352DFEE52A2FF582E5291213
:10103C0016CD052CE52CC3940240E27402252EF546
:10104C002EE4352DF52D052BE52BC3941F40BA7DD1
:10105C00017C007F361217A37D017C007F300217C4
:01106C00A3E0
:060DAD008E258F268D2724
:100DB300E4F52AF52B7D01FC7F341217A37D017C1A
:100DC300007F361217A375280DE5282480FF12171C
:100DD3009FE5272480FF12179FE4F5297E00E52B6A
:100DE3002529FFEE352AFEE5262FF582E525121685
:100DF300CD0529E529C3940240E27402252BF52B86
:100E0300E4352AF52A0528E528C3941D40BB7D0156
:100E13007C007F361217A37D017C007F300217A36D
:06061E008E258F268D27BA
:10062400E4F52BF52C7D01FC7F341217A37D017CAE
:10063400007F361217A3E4F52AE52AC39409400380
:100644000206EAE52A704C75281EE5282480FF126C
:10065400179FE52A24802527FF12179FE4F5297E9A
:1006640000E52C2529FFEE352BFEE5262FF582E546
:10067400251216CD0529E529C3940240E27402250A
:100684002CF52CE4352BF52B0528E528C3942040C4
:10069400B9804AE4F528E5282480FF12179FE52A4B
:1006A40024802527FF12179FE4F5297E00E52C25D9
:1006B40029FFEE352BFEE5262FF582E5251216CD12
:1006C4000529E529C3940240E27402252CF52CE4A3
:1006D400352BF52B0528E528C3940E40B97408255D
:1006E4002AF52A02063D7D017C007F361217A37D80
:0806F400017C007F300217A316
:060E23008E258F268D27AD
:100E2900E4F52AF52B7D01FC7F341217A37D017CA3
:100E3900007F361217A375280FE5282480FF1217A3
:100E49009FE5272488FF12179FE4F5297E00E52BEB
:100E59002529FFEE352AFEE5262FF582E52512160E
:100E6900CD0529E529C3940240E27402252BF52B0F
:100E7900E4352AF52A0528E528C3941F40BB7D01DE
:100E89007C007F361217A37D017C007F300217A3F7
:060D36008E5B8F5C8D5DF9
:100D3C00E4F560F5617D01FC7F341217A37D017C25
:100D4C00007F361217A3755E0DE55E2480FF121727
:100D5C009FC37487955DFF12179FE4F55F7E00E5D6
:100D6C0061255FFFEE3560FEE55C2FF582E55B12D9
:100D7C0016CD055FE55FC3940240E274022561F570
:100D8C0061E43560F560055EE55EC3941D40BA7D97
:100D9C00017C007F361217A37D017C007F30021787
:010DAC00A3A3
:0B199B00EF1FAC0670011E4C70F6221E
:10190500EF1FAC0670011E4C600A7D027CEFDCFE09
:04191500DDFC80EC89
:0119190022AB
:10049500E4F5247590FFC2932097137F14FE12197B
:1004A500053097FD7F147E001219057524012096ED
:1004B500147F147E001219053096FD7F147E0012FC
:1004C50019057524052095147F147E001219053031
:1004D50095FD7F147E001219057524092094147F5B
:1004E500147E001219053094FD7F147E0012190543
:1004F50075240D7590FFC2922097147F147E00120B
:1005050019053097FD7F147E001219057524022008
:1005150096147F147E001219053096FD7F147E0017
:100525001219057524062095147F147E00121905ED
:100535003095FD7F147E0012190575240A20941448
:100545007F147E001219053094FD7F147E00121968
:100555000575240E7590FFC2912097147F147E00B7
:100565001219053097FD7F147E00121905752403B5
:100575002096147F147E001219053096FD7F147E97
:10058500001219057524072095147F147E00121991
:10059500053095FD7F147E0012190575240B2094F6
:1005A500147F147E001219053094FD7F147E00120D
:1005B500190575240F7590FFC2902097147F147E3E
:1005C500001219053097FD7F147E00121905752458
:1005D500042096147F147E001219053096FD7F14B1
:1005E5007E001219057524082095147F147E0012CB
:1005F50019053095FD7F147E0012190575240C2010
:1006050094147F147E001219053094FD7F147E002A
:08061500121905752410AF2431
:01061D0022BA
:10000E00526F756E643A0000000000000000000F91
:10001E00F008100BD00BD00BD00BD008100FF00047
:10002E0000000000000000000000000000000000C2
:10003E0000000000000000000000000000000000B2
:10004E00000000000000000000180039E070F230DF
:10005E00CE300E300E0C3E07C00200000000000F26
:10006E00800FE01FE00C00FFFFFFFFFFFFFFFFFF11
:10007E00FFFFFFFFFFFFFF800000000000000000F9
:10008E0000000000000001800000000000000000E1
:10009E0000000000000001800000000000000000D1
:1000AE0000000000000001800000000000000000C1
:1000BE0000000000000001800000000000000000B1
:1000CE0000000000000001800000000000000000A1
:1000DE000000000000000180000000000000000091
:1000EE000000000000000180000000000000000081
:1000FE000000000000000180000000000000000071
:10010E000000000000000180000000000000000060
:10011E000000000000000180000000000000000050
:10012E0000000000000001FFFFFFFFFFFFFFFFFFC9
:10013E00FFFFFFFFFFFFFF80000000000000000038
:10014E000000000000000180000000000000000020
:10015E000000000000000180000000000000000010
:10016E000000000000000180000000000000000000
:10017E0000000000000001800000000000000000F0
:10018E0000000000000001800000000000000000E0
:10019E0000000000000001800000000000000000D0
:1001AE0000000000000001800000000000000000C0
:1001BE0000000000000001800000000000000000B0
:1001CE0000000000000001800000000000000000A0
:1001DE000000000000000180000000000000000090
:1001EE000000000000000180000000000000000080
:1001FE000000000000000180000000000000000070
:10020E00000000000000018000000000000000005F
:10021E00000000000000018000000000000000004F
:10022E00000000000000018000000000000000003F
:10023E0000000000000001FFFFFFFFFFFFFFFFFFB8
:10024E00FFFFFFFFFFFFFF80000000000000000027
:10025E00000000000000018000000000000000000F
:10026E0000000000000001800000000000000000FF
:10027E0000000000000001800000000000000000EF
:10028E0000000000000001800000000000000000DF
:10029E0000000000000001800000000000000000CF
:1002AE0000000000000001800000000000000000BF
:1002BE0000000000000001800000000000000000AF
:1002CE00000000000000018000000000000000009F
:1002DE00000000000000018000000000000000008F
:1002EE00000000000000018000000000000000007F
:1002FE00000000000000018000000000000000006F
:10030E00000000000000018000000000000000005E
:10031E00000000000000018000000000000000004E
:10032E00000000000000018000000000000000003E
:10033E00000000000000018000000000000000002E
:10034E0000000000000001FFFFFFFFFFFFFFFFFFA7
:10035E00FFFFFFFFFFFFFF80000000000000000016
:10036E0000000000000001800000000000000000FE
:10037E0000000000000001800000000000000000EE
:10038E0000000000000001800000000000000000DE
:10039E0000000000000001800000000000000000CE
:1003AE0000000000000001800000000000000000BE
:1003BE0000000000000001800000000000000000AE
:1003CE00000000000000018000000000000000009E
:1003DE00000000000000018000000000000000008E
:1003EE00000000000000018000000000000000007E
:1003FE00000000000000018000000000000000006E
:10040E00000000000000018000000000000000005D
:10041E00000000000000018000000000000000004D
:10042E00000000000000018000000000000000003D
:10043E00000000000000018000000000000000002D
:10044E00000000000000018000000000000000001D
:10045E0000000000000001FFFFFFFFFFFFFFFFFF96
:10046E00FFFFFFFFFFFFFF07C01C302808080453E3
:10047E001E54A294978289A001A001A00180015070
:07048E00023006180C07F014
:030CC500016900C2
:1013D2007523FF1217C37F907E011219051218EEB2
:1013E2001219737E007F75120BB57BFF7A00790E9E
:1013F200E4FD7F031213797B24E4FDFF1215CC7CFC
:10140200007D15AF681215861204958F22E56914C6
:10141200600A04700CAF221211558005AF22120926
:09142200FC12198F12198380DFFE
:0919A6007F187808E4F608DFFC64
:0119AF002215
:10089300EF24F5B41C0040030209489008AC75F03E
:1008A30003A4C58325F0C583730209000209090265
:1008B300091202091B02092402092D020936020941
:1008C3003F02094802094802090302090C020915FB
:1008D30002091E02092702093002093902094202EC
:1008E300094802094802090602090F020918020908
:1008F3002102092A02093302093C0209457F002229
:100903007F01227F02227F03227F04227F05227F31
:1009130006227F07227F08227F09227F0A227F0B7C
:10092300227F0C227F0D227F0E227F0F227F102237
:100933007F11227F12227F13227F14227F15227FB1
:0809430016227F17227FFF221C
:10192D00120893EFC3941840037FFF2274082FF819
:02193D00E6FFC3
:01193F002285
:0F196300120893EFC39418500674082FF8A605C6
:011972002252
:090CC80001680B01670B016600D5
:101155008F24E524B40216E56875F00A84640160FD
:101165000985686774F62568F56812174FE524B494
:101175000A16E56875F00A84640360098568677472
:101185000A2568F56812174FE524B40514E5687556
:10119500F00A84E5F0640160058568671568121733
:1011A5004FE524B40714E56875F00A84E5F0640298
:1011B5006005856867056812174FE524B406037551
:0311C5006901229B
:1009FC008F24E52464057029E566D3940040021524
:100A0C0066E566600D24FE600F0470157C007D1594
:100A1C00800A7C007D5580047C047D75AF681215BE
:100A2C0086E52464077029E566C3940250020566C6
:100A3C00E566600D24FE600F0470157C007D15804A
:100A4C000A7C007D5580047C047D75AF6812158688
:100A5C00E52464067038E566601424FE601D04709D
:100A6C002A7C007D15AF68121586E4FD80187C0089
:100A7C007D55AF681215867D01800B7C047D75AFAA
:0F0A8C00681215867D02AF68121963E4F56922BE
:101586008C278D28EF24F4602724F7601514602734
:1015960024F760151460272415702AAF28AE270299
:1015A6000E99AF28AE2702094BAF28AE27020F0EC1
:1015B600AF28AE27020F83AF28AE270206FCAF285E
:0615C600AE27120FF8220F
:04174F00AD68AF676B
:101753008F258D2612192DEF70097C007D35AF255D
:10176300121586AF2612192DEF70097C007D15AF77
:0517730026121586227C
:10160C00000000000000018003C003C00180000046
:10161C0000000000000000000000000000000000BE
:10162C0000000000000018183C3C3C3C181800005E
:10163C00000000000000000000000000000000009E
:100CD10001500B01521501541F014F020155020130
:100CE10058020151020156020159020153020157F2
:040CF10002015A02A0
:0C1983001207D4120C3B1211C802123BD8
:1007D400E508B401047F0180027F00E50BB4010445
:1007E4007E0180027E00E50BB402047D0180027D5F
:1007F40000EF6008EE6005754F018014EF7009EE9C
:100804007006EF6008ED6005E4F54F8003754F0254
:10081400E509B401047F0180027F00E50CB4010402
:100824007E0180027E00E50CB402047D0180027D1D
:1008340000EF6008EE60057551018014EF7009EE59
:100844007006EF6008ED6005E4F551800375510210
:10085400E50AB401047F0180027F00E50DB40104C0
:100864007E0180027E00E50DB402047D0180027DDC
:1008740000EF6007EE600475530122EF7009EE701B
:0E08840006EF6007ED6004E4F55322755302A1
:010892002243
:100C3B00E54F64027020E555640260167E007F3537
:100C4B00AD58120DADE5502558FFE4FD1219637533
:100C5B005802755502227F2C7E01121803EF604A51
:100C6B007E007F35AD58120DADE5502558FFE4FDE4
:100C7B001219630558E5502558FF12192DEF64041E
:100C8B00602BE558C394084003755802E54FB40137
:100C9B00067E167F2C80047E167F0CAD58120DAD90
:0E0CAB00E5502558FF7D03121963854F552231
:1011C800E551B40216E5566402600C7E007F35AD29
:1011D8005912061E755902755602227F2C7E01127D
:1011E8001821EF604A7E007F35AD5912061EE55280
:1011F8002559FFE4FD1219630559E5522559FF12D7
:10120800192DEF6404602BE559C394084003755900
:1012180002E551B401067E167F2C80047E167F0CF1
:10122800AD5912061EE5502559FF7D031219638535
:03123800515622EA
:10123B00E553B40216E5576402600C7E007F35ADB2
:10124B005A120E23755A02755702227F2C7E0112F9
:10125B00183FEF604A7E007F35AD5A120E23E554DE
:10126B00255AFFE4FD121963055AE554255AFF125E
:10127B00192DEF6404602BE55AC394084003755A8B
:10128B0002E553B401067E167F2C80047E167F0C7C
:10129B00AD5A120E23E550255AFF7D0312196385B3
:0312AB0053572274
:100CF50002390000023B0000023D0000023F0000F7
:100D05000231000002330000023500000237000006
:10197300438901758CFC758A67D2A9D28CD2AF22B8
:03000B0002194097
:10194000C0E0758CFC758A67053AE53A7002053986
:03195000D0E032B2
:10180300C3E53A953CFDE539953BFCC3ED9FEC9E62
:0E181300400985393B853A3C7F01227F002247
:10182100C3E53A953EFDE539953DFCC3ED9FEC9E40
:0E183100400985393D853A3E7F01227F002225
:10183F00C3E53A9540FDE539953FFCC3ED9FEC9E1E
:0E184F00400985393F853A407F01227F002203
:10185D00C3E53A9532FDE5399531FCC3ED9FEC9E1C
:0E186D004009853931853A327F01227F002201
:10187B00C3E53A9534FDE5399533FCC3ED9FEC9EFA
:0E188B004009853933853A347F01227F0022DF
:10189900C3E53A9536FDE5399535FCC3ED9FEC9ED8
:0E18A9004009853935853A367F01227F0022BD
:1018B700C3E53A9538FDE5399537FCC3ED9FEC9EB6
:0E18C7004009853937853A387F01227F00229B
:1017E30001C00638300C6004466740B2710A496A8A
:1017F3004B1070E63E010F880DD0183409D4011444
:100D15000641030201020103014E00014D06014790
:100D250007014807014907014A0B014B15014C1FF3
:0C198F001212AE12142B1214840214DD8C
:1012AE00E54EC3954D50617FA07E0F1218B7EF60CB
:1012BE0057E54EC3954D50507441254EF8E624FE29
:1012CE00601C14602E2402703DE54A2407FF7D0445
:1012DE001219637E177FE37D07120DAD8028E54B53
:1012EE002407FF7D041219637E177FE37D07120624
:1012FE001E8013E54C2407FF7D041219637E177FB1
:09130E00E37D07120E23054E22B7
:10142B007FDC7E0512185DEF604E752401E54A25C1
:10143B0024FF12192DEF64047035E52414254AFF9F
:10144B0012192DEF70297E007F35AD24120DADE5FD
:10145B004A2524FFE4FD1219637E177FE3E524146C
:10146B00FD120DADE52414254AFF7D041219630509
:08147B0024E524D3940740B5D9
:011483002246
:101484007FD07E0712187BEF604E752401E54B2553
:1014940024FF12192DEF64047035E52414254BFF45
:1014A40012192DEF70297E007F35AD2412061EE53A
:1014B4004B2524FFE4FD1219637E177FE3E5241412
:1014C400FD12061EE52414254BFF7D041219630545
:0814D40024E524D3940740B580
:0114DC0022ED
:1014DD007FB87E0B121899EF604E752401E54C25EF
:1014ED0024FF12192DEF64047035E52414254CFFEB
:1014FD0012192DEF70297E007F35AD24120E23E5D4
:10150D004C2524FFE4FD1219637E177FE3E52414B7
:10151D00FD120E23E52414254CFF7D0412196305DD
:08152D0024E524D3940740B526
:011535002293
:0100090022D4
:03000000020B29C7
:0C0B2900787FE4F6D8FD758169020B703E
:1018D500BB010689828A83E0225002E722BBFE0211
:0918E500E32289828A83E4932244
:100B3500020003E493A3F8E493A34003F68001F2D3
:100B450008DFF48029E493A3F85407240CC8C333C1
:100B5500C4540F4420C8834004F456800146F6DF90
:100B6500E4800B0102040810204080900CB9E47E5B
:100B7500019360BCA3FF543F30E509541FFEE49385
:100B8500A360010ECF54C025E060A840B8E493A34C
:100B9500FAE493A3F8E493A3C8C582C8CAC583CA77
:100BA500F0A3C8C582C8CAC583CADFE9DEE780BE2F
:010D350000BD
:00000001FF
