:1004370032302020C4EA2020D4C22020C8D500D0E2
:10044700C7C6DA00D2BB00B6FE00C8FD00CBC400A9
:10045700CEE500C1F900C8D500000000000000008B
:100467000000000000000000000000000000000085
:100477000000000000000000000000000000000075
:100487000000000000000000003C383C000F0000A6
:1004970000000000003C383C000F00000000000096
:1004A700003C3C3C000F000000000000003C3C3CCE
:1004B700000F000000000000001C7C78000F000007
:1004C70000000000001E7C783F0F0FC0FC3FE78351
:1004D700F01E7E787F8F1FE1FE3FFFC7F81E7E78F4
:1004E700FFCF3FF3FF3FFFCFFC1EFE78F3CF3CF378
:1004F700CF3CF3CF3C1EEE78F3CF3CF3CF3CF3CFAA
:100507003C1EEF78F3CF3CF3CF3CF3CF3C1EEFF824
:10051700F3CF3CF3CF3CF3CF3C1FEFF0F3CF3CF3EB
:10052700CF3CF3CF3C0FE7F0FFCF3CF3CF3CF3CF0B
:10053700FC0FC7F0FFCF3C03CF3CF3CFFC0FC7F056
:10054700FFCF3CF3CF3CF3CFFC0FC3F0F00F3CF3EE
:10055700CF3CF3CF000FC3F0F3CF3CF3CF3CF3CF47
:100567003C0FC3F0F3CF3CF3CF3CF3CF3C0F83F00A
:10057700F3CF3CF3CF3CF3CF3C0F81F0F3CF3CF309
:10058700CF3CF3CF3C0781E0FFCF3FF3FF3CF3CFF6
:10059700FC0781E07F8F1FE1FE3CF3C7F80781E08E
:1005A7003F0F0FC0FC3CF3C3F00000000000000049
:1005B7000000000000000000000000000000000034
:1005C7000000000000000000000000000000000024
:0905D7000000000000000000001B
:0B13AB00C102013200013000013300DC
:10136100753215753001753307D2A6E4F580C2A632
:10137100D2AF7F807E251217FE7FE87E031210CF49
:101381001211281216CE300105120780C201300356
:101391000FE536700BC2037D02FF1206BB120E2F42
:0A13A1003002E3121692C20280DC53
:1016CE007B08E4FDFF1218A3750B20750CFF750D3A
:1016DE0004750E607B60E4FD7F01120EB37BFF7A12
:1016EE000479377D03E4FF12173B7BFF7A047946BA
:0716FE007D027F0502173B8E
:10154D00EBC4540FFED39409748094805007EE249D
:10155D0030F5088008EBC4540F2437F508EB540F11
:10156D00FED39409748094805007EE2430F50980E1
:10157D0007EB540F2437F509E4F50AFB7A007908D7
:03158D0002173B07
:1006BB00E51CC4540FFED39409748094805007EE4C
:1006CB002430F5088009E51CC4540F2437F508E5E0
:1006DB001C540FFED39409748094805007EE243081
:1006EB00F5098008E51C540F2437F509750A3AE51E
:1006FB001DC4540FFED39409748094805007EE24CC
:10070B0030F50B8009E51DC4540F2437F50BE51D9F
:10071B00540FFED39409748094805007EE2430F567
:10072B000C8008E51D540F2437F50C750D3AE51EAA
:10073B00C4540FFED39409748094805007EE243078
:10074B00F50E8009E51EC4540F2437F50EE51E5433
:10075B000FFED39409748094805007EE2430F50F6C
:10076B008008E51E540F2437F50FE4F510FB7A00D3
:05077B00790802173BA4
:100E2F00AB327D037F0112154DAB307D037F031273
:100E3F00154DAB337D037F0512154DE53114B40706
:100E4F00005060900E6075F003A4C58325F0C58334
:100E5F0073020E75020E7D020E85020E8D020E9527
:100E6F00020E9D020EA57BFF7A04794B802E7BFF2D
:100E7F007A04794E80267BFF7A047951801E7BFF9E
:100E8F007A04795480167BFF7A047957800E7BFFA2
:100E9F007A04795A80067BFF7A04795D7D027F0799
:040EAF0012173B22B9
:05000300007F2BDFFE71
:0100080022D5
:081B1E007F097EF4DEFEDFFC0E
:011B2600229C
:101AD6007580FFC290D291D2A5AF80C2A5EF20E754
:011AE600F609
:011AE70022DC
:04199E00EF4480FF93
:1019A200AE07121AD6C290C291D2A58E80C2A502EB
:0219B200000330
:101AE800AE07121AD6D290C291D2A58E80C2A50294
:021AF8000003E9
:10177000ED1460111460151460192403701AEF241D
:1017800080F5168013EF2490F516800CEF2488F571
:10179000168005EF2498F516AF161219A202000361
:10173B008F118D128B138A1489157F301219A2AD5C
:10174B0012AF11121770AB13AA14A915120267600E
:10175B00130515E5157002051414F9120267FF1233
:05176B001AE880E222F3
:0618A3008F0C8D0D8B0E71
:1018A9007F301219A2AD0DAF0C121770E50E25E0AD
:1018B900F50FAF0F150FEF60077F20121AE880F2BE
:0118C90022FC
:060EB3008F088D098B0A77
:100EB900E4F50FF510E50A131313541FF50A7F36ED
:100EC9001219A2E4F512E512C3950B5057E509C4AE
:100ED90054F02512FF850813C39420748094804030
:100EE9000A74E02FFF74082513F51312199EE513F0
:100EF9004480FF1219A2E4F511E511C3950A5020A7
:100F0900AB0CAA0DA90E0510E510AE0F7002050F66
:100F190014F5828E83120280FF121AE8051180D916
:040F2900051280A28B
:010F2D0022A1
:060FA8008F088D098B0A81
:100FAE00E50A131313541FF50A7F361219A2E4F53E
:100FBE000DE50DC3950B5047E509C454F0250DFF03
:100FCE0085080EC3942074809480400A74E02FFF2D
:100FDE007408250EF50E12199EE50E4480FF1219A7
:100FEE00A2E4F50CE50CC3950A50103005047FFF02
:0F0FFE008002E4FF121AE8050C80E9050D80B2AD
:01100D0022C0
:101128007F301219A2121B1E7F011219A2121B1E58
:101138007F021219A27F0C1219A27F341219A2E49D
:10114800F509C3E5099420748094805028E5094482
:1011580080FF1219A27F801219A2E4F508C3E508DE
:101168009420748094805009E4FF121AE8050880DE
:05117800EC050980CD2B
:01117D00224F
:10193400EB75F00A842430F508EB75F00A84E5F0C1
:0F1944002430F509E4F50AFB7A00790802173B15
:091B2700D0B400212100B6C10078
:0413B600C101C100B0
:1017FE00AB07AA06E4F9F87F807E70FDFC1215098E
:10180E00EFF404F58D858D8BE589540F4420F58911
:0A181E00759850C2ABD2ACD28E22F6
:10078000E53712034307E60D07F21B07DA2507C218
:100790002607E02707CE2807EC2D07F83B07C856A9
:1007A00007D45807FEA00806A1081FA20823A30823
:1007B00027A4082BA5082FAB0833AC0837AD0000E1
:1007C000083A12083BD20422121B0AD20422120851
:1007D000CFD20422121B14D2042212196ED2042288
:1007E000121986D204221218F1D20422121074D2E5
:1007F000042212143CD20422121692D204227BFF4D
:100800007A1B792780067BFF7A1B792DE4FDFF1286
:10081000173B7BFF7A1B792AE4FD7F0702173B8594
:100820003832228538312285383022853833228586
:0B083000381C2285381D2285381E224E
:0300230002182898
:09182800C0E0C0D075D000C00082
:10183100309812C298A200E4332437F8A6993000F8
:0A18410002D201B200309902C299F0
:07184B00D000D0D0D0E03244
:1013BA00C103011E00011D00011C000117000118D4
:0413CA000001193CC9
:1010CF00E4FCFDFB7A10790EF81202E17B407A42C4
:1010DF00790F78001215098F0B8E0A8D098C08C3B2
:1010EF00E4950BF50BE4950AF50A74019509F509DA
:1010FF00E49508F508AF0BAE0AAD09FC78081203AA
:10110F00308F1A850B1B851A8C851B8AE58954F045
:08111F004401F589D2A9D28C2C
:0111270022A5
:03000B000212C816
:0412C800C0E0C0D0F2
:1012CC00851A8C851B8A0517C3E51794C8748094FE
:1012DC00804032751700D2030518E5189405748008
:1012EC0094804021751800E536601A1519300405F4
:1012FC0075193CC204D3E519940074809480500590
:05130C0075193CD2023E
:05131100D0D0D0E03255
:10122900312ECFEEC4BF4100322ECFEEC4BF4200F3
:10123900332ECFEEC4BF4300342ECFEEC4BF4400DB
:10124900352ECFEEC4BF4500362ECFEEC4BF4600C3
:10125900372ECFEEC4BF4700382ECFEEC4BF4800AB
:101269002020002D20D2BBBCB6B2CBB5A5202D00C5
:0B13CE00C104013501013600013401AB
:100F2E00E53524FE602914604D2402706C7BFF7A37
:100F3E001279297D017F0112173B7BFF7A127931DD
:100F4E007D027F0112173B7BFF7A12793980207B5D
:100F5E00FF7A1279417D017F0112173B7BFF7A12D6
:100F6E0079497D027F0112173B7BFF7A1279517D01
:100F7E00037F0102173B7BFF7A1279597D017F01B6
:100F8E0012173B7BFF7A1279617D027F0112173BAC
:0A0F9E007B067D037F011218A322D9
:1013F5008F0CEF6401600AEF64046005EF64077009
:10140500047D018023AF0CEF6402600AEF64056080
:1014150005EF640870047D02800EAF0CEF64036075
:1014250005EF640670077D03E4FF1217707F201235
:071435001AE87F10021AE81B
:10117E00E53664017003020F2EE53664027046E513
:10118E003414B40800503E9011A375F003A4C58327
:10119E0025F0C583730211BB0211BE0211C10211EB
:1011AE00C40211C70211CA0211CD0211D00209EFF9
:1011BE00020A77020AFF020B87020C0F020C97023B
:0611CE000D1F120DA72207
:10127900EFFD7C00C3940174809480400ED3ED94FB
:101289000374809480500475350122C3ED9404ECF5
:1012990064809480400FD3ED9406EC648094805070
:1012A9000475350222C3ED9407EC64809480400EE6
:0F12B900D3ED9408EC64809480500375350322C4
:101AC300EFFB64036009EB64066004EFB5050312E2
:031AD300117E225F
:101A9B00EFFD6401600AED64046005ED64077003FB
:041AAB0012117E2274
:1018CA007BFF7A1279697D01E4FF12173B7BFF7A6D
:1018DA001279697D02E4FF12173B7BFF7A1279695C
:0718EA007D03E4FF02173B40
:1011D4008D0B8B088A09890A1202676047D3940130
:1011E40074809480400774FF1202AD800BAB08AA90
:1011F40009A90AE50B1202CFAB08AA09A90A12022F
:1012040067FF121279AB08AA09A90A120267FFAD97
:101214000B121AC31218CAAB08AA09A90A12026748
:05122400FF1213F5228A
:101481008B088A09890A1202676038C39D7401506A
:10149100051202AD80031202CFAB08AA09A90A12F4
:1014A1000267FF121279AB08AA09A90A120267FFA3
:1014B100121A9B1218CAAB08AA09A90A120267FFDD
:0414C1001213F522EB
:10083B00AF36EF70030208CE64017007FB7A0079C4
:10084B00348072E53664027071E53414B4080050DC
:10085B007290086A75F003A4C58325F0C5837302F3
:10086B00088202088A02089202089A0208A2020869
:10087B00AA0208B20208BA7B007A00792180367B83
:10088B00007A007922802E7B007A00792380267BE8
:10089B00007A007924801E7B007A00792580167BF4
:1008AB00007A007926800E7B007A00792780067B00
:1008BB00007A0079287D080211D4E53664037003B1
:0408CB0012161422CB
:0A1B0A00E53664037003121614227E
:1008CF00AF36EF700302096264017007FB7A00799B
:1008DF00348072E53664027071E53414B408005048
:1008EF00729008FE75F003A4C58325F0C5837302CB
:1008FF00091602091E02092602092E0209360209EB
:10090F003E02094602094E7B007A00792180367B30
:10091F00007A007922802E7B007A00792380267B53
:10092F00007A007924801E7B007A00792580167B5F
:10093F00007A007926800E7B007A00792780067B6B
:10094F00007A0079287D08021481E536640370036C
:04095F0012165322F7
:0A1B1400E536640370031216532235
:1015D3007B087D01E4FF1218A37B087D02E4FF1260
:1015E30018A37B087D03E4FF1218A3750B10D20523
:1015F3007B80E4FDFF120FA87BFF7A12796CE4FD78
:101603007F0112173BE53664017003753501020F44
:011613002EA8
:10107400E536701B750B20C2057B60FD7F01120FE6
:10108400A87536011215D3753401AF340213F5E493
:10109400F5367F0C1219A27F011219A2750B10C22A
:1010A400057B207D027F06120FA8750B10C2057BFD
:1010B400207D037F06120FA8750B10C2057B80E408
:0B10C400FDFF120FA81216CEC204227E
:10169200E4F5367F0C1219A27F011219A2750B1004
:1016A200C2057B80E4FDFF120FA8750B10C2057BFB
:1016B200207D027F06120FA8750B10C2057B207DCC
:0C16C200037F06120FA81216CEC20422ED
:10143C00E53664027011AF341212791215D3AF3441
:10144C001213F575360122E536640370277F0C12F2
:10145C0019A2750B10C2057B207D027F06120FA806
:10146C00750B10C2057B207D037F06120FA8121985
:05147C00531205E022FF
:10002600312EC9E8D6C3CAB1BCE400322EC9E8D61F
:10003600C3C8D5C6DA00332EC9E8D6C3D0C7C6DAD8
:1000460000342ECFEEC4BF414400352ECFEEC4BFE0
:10005600414500362ECFEEC4BF414600372ECFEEC7
:10006600C4BF414700382ECFEEC4BF414800312EF1
:10007600CFEEC4BF424100322ECFEEC4BF42420093
:10008600332ECFEEC4BF424300342ECFEEC4BF4260
:100096004400352ECFEEC4BF424500362ECFEEC407
:1000A600BF424600372ECFEEC4BF424700382ECFA0
:1000B600EEC4BF424800312ECFEEC4BF43410032EA
:1000C6002ECFEEC4BF434200332ECFEEC4BF434310
:1000D60000342ECFEEC4BF434400352ECFEEC4BF4E
:1000E600434500362ECFEEC4BF434600372ECFEE33
:1000F600C4BF434700382ECFEEC4BF434800312E5D
:10010600CFEEC4BF444100322ECFEEC4BF444200FE
:10011600332ECFEEC4BF444300342ECFEEC4BF44CB
:100126004400352ECFEEC4BF444500362ECFEEC474
:10013600BF444600372ECFEEC4BF444700382ECF0B
:10014600EEC4BF444800312ECFEEC4BF4541003255
:100156002ECFEEC4BF454200332ECFEEC4BF45437B
:1001660000342ECFEEC4BF454400352ECFEEC4BFBB
:10017600454500362ECFEEC4BF454600372ECFEE9E
:10018600C4BF454700382ECFEEC4BF454800312EC8
:10019600CFEEC4BF464100322ECFEEC4BF4642006A
:1001A600342ECFEEC4BF464400352ECFEEC4BF4634
:1001B6004500362ECFEEC4BF464600372ECFEEC4DE
:1001C600BF464700382ECFEEC4BF464800312ECF7B
:1001D600EEC4BF474100322ECFEEC4BF47420034C3
:1001E6002ECFEEC4BF474400352ECFEEC4BF4745E1
:1001F60000362ECFEEC4BF474600372ECFEEC4BF23
:10020600474700382ECFEEC4BF474800312ECFEE09
:10021600C4BF484100322ECFEEC4BF484200332E41
:10022600CFEEC4BF484300342ECFEEC4BF484400CF
:10023600352ECFEEC4BF484500362ECFEEC4BF489C
:100246004600372ECFEEC4BF484700382ECFEEC447
:10025600BF4848002D20B6FEBCB6B2CBB5A5202DB2
:010266000097
:1013D900012101012201012301012401012501014A
:0813E900260101270101280182
:101953007B087D01E4FF1218A37B087D02E4FF12DC
:0B19630018A37B087D03E4FF0218A31B
:1009EF00E5357003020A7624FE602C14605324024E
:1009FF0070751219537BFF7A0079267D017F0112E2
:100A0F00173B7BFF7A0079317D027F0112173B7B09
:100A1F00FF7A00793C80231219537BFF7A007947C4
:100A2F007D017F0112173B7BFF7A0079507D027F9A
:100A3F000112173B7BFF7A0079597D037F01021763
:100A4F003B1219537BFF7A0079627D017F011217E8
:100A5F003B7BFF7A00796B7D027F0112173B7B0690
:080A6F007D037F011218A32290
:100A7700E5357003020AFE24FE602C14605324023D
:100A870070751219537BFF7A0079747D017F01120B
:100A9700173B7BFF7A00797D7D027F0112173B7B35
:100AA700FF7A00798680231219537BFF7A00798FAA
:100AB7007D017F0112173B7BFF7A0079987D027FCA
:100AC7000112173B7BFF7A0079A17D037F01021793
:100AD7003B1219537BFF7A0079AA7D017F01121718
:100AE7003B7BFF7A0079B37D027F0112173B7B06C0
:080AF7007D037F011218A32208
:100AFF00E5357003020B8624FE602C14605324022C
:100B0F0070751219537BFF7A0079BC7D017F01123A
:100B1F00173B7BFF7A0079C57D027F0112173B7B64
:100B2F00FF7A0079CE80231219537BFF7A0079D791
:100B3F007D017F0112173B7BFF7A0079E07D027FF9
:100B4F000112173B7BFF7A0079E97D037F010217C2
:100B5F003B1219537BFF7A0079F27D017F01121747
:100B6F003B7BFF7A0079FB7D027F0112173B7B06EF
:080B7F007D037F011218A3227F
:100B8700E5357003020C0E24FE602C14605324021A
:100B970070751219537BFF7A0179047D017F011269
:100BA700173B7BFF7A01790D7D027F0112173B7B93
:100BB700FF7A01791680231219537BFF7A01791F77
:100BC7007D017F0112173B7BFF7A0179287D027F28
:100BD7000112173B7BFF7A0179317D037F010217F1
:100BE7003B1219537BFF7A01793A7D017F01121776
:100BF7003B7BFF7A0179437D027F0112173B7B061E
:080C07007D037F011218A322F6
:100C0F00E5357003020C9624FE602C146053240209
:100C1F0070751219537BFF7A01794C7D017F011298
:100C2F00173B7BFF7A0179557D027F0112173B7BC2
:100C3F00FF7A01795E80231219537BFF7A0179675E
:100C4F007D017F0112173B7BFF7A0179707D027F57
:100C5F000112173B7BFF7A0179797D037F01021720
:100C6F003B1219537BFF7A0179827D017F011217A5
:100C7F003B7BFF7A01798B7D027F0112173B7B064D
:080C8F007D037F011218A3226E
:100C9700E5357003020D1E24FE602C1460532402F8
:100CA70070751219537BFF7A0179947D017F0112C8
:100CB700173B7BFF7A01799D7D027F0112173B7BF2
:100CC700FF7A01791680231219537BFF7A0179A6DF
:100CD7007D017F0112173B7BFF7A0179AF7D027F90
:100CE7000112173B7BFF7A0179B87D037F01021759
:100CF7003B1219537BFF7A0179C17D017F011217DE
:100D07003B7BFF7A0179CA7D027F0112173B7B0685
:080D17007D037F011218A322E5
:100D1F00E5357003020DA624FE602C1460532402E7
:100D2F0070751219537BFF7A0179D37D017F011200
:100D3F00173B7BFF7A0179DC7D027F0112173B7B2A
:100D4F00FF7A01791680231219537BFF7A0179E517
:100D5F007D017F0112173B7BFF7A0179EE7D027FC8
:100D6F000112173B7BFF7A0179F77D037F01021791
:100D7F003B1219537BFF7A0279007D017F01121715
:100D8F003B7BFF7A0279097D027F0112173B7B06BD
:080D9F007D037F011218A3225D
:100DA700E5357003020E2E24FE602C1460532402D6
:100DB70070751219537BFF7A0279127D017F011238
:100DC700173B7BFF7A02791B7D027F0112173B7B62
:100DD700FF7A02792480231219537BFF7A02792D37
:100DE7007D017F0112173B7BFF7A0279367D027FF7
:100DF7000112173B7BFF7A02793F7D037F010217C0
:100E07003B1219537BFF7A0279487D017F01121744
:100E17003B7BFF7A0279517D027F0112173B7B06EC
:080E27007D037F011218A322D4
:1005E000E53414B4080040030206AB9005F975F039
:1005F00003A4C58325F0C5837302061102062502F4
:10060000063802064B02065E0206710206840206E6
:1006100097E536640170067535017521011209EF01
:10062000AF210206A8E53664017006753501752212
:1006300001120A77AF228070E536640170067535C5
:1006400001752301120AFFAF23805DE53664017056
:1006500006753501752401120B87AF24804AE536F3
:1006600064017006753501752501120C0FAF2580E8
:1006700037E53664017006753501752601120C9751
:10068000AF268024E53664017006753501752701B3
:10069000120D1FAF278011E5366401700675350114
:1006A000752801120DA7AF281213F57536027BFFCE
:0B06B0007A02795AE4FD7F0102173B3B
:1018F100E536640170061218CA0205E0E536640295
:1019010070061218CA0214C5E53664037003121377
:0219110016229C
:10100E00B0B4455343202020A1FA2020CDCBB3F617
:10101E0000B0B4454E54455220A1FA2020B1A3B4DD
:10102E00E6002A20C9E8D6C3CAB1BCE4202A00CA09
:10103E00B12020B7D62020C3EB002A20C9E8D6C3A2
:10104E00C8D5C6DA202A003231C4EA3032D4C230D2
:10105E0032C8D5002A20C9E8D6C3D0C7C6DA202A9E
:06106E0000D0C7C6DA0045
:0313F100012F00C9
:10170500750B10D2057B207D027F06120FA8750B85
:1017150010D2057B207D037F06120FA87BFF7A1070
:10172500790E7D02E4FF12173B7BFF7A10791F7D4E
:0617350003E4FF02173B74
:101590007BFF7A107930E4FD7F0112173B7BFF7AE5
:1015A00010793D7D017F0212173BAB1C7D017F014D
:1015B000121934AB1D7D017F03121934AB1E7D015E
:1015C0007F05121934121705752F0312196E7F0F3C
:0315D0000219A25B
:10187B007BFF7A107948E4FD7F0112173B7BFF7ADF
:10188B001079557D017F0112173B121705752F013A
:08189B0012196E7F0F0219A261
:101852007BFF7A107962E4FD7F0112173B7BFF7AEE
:1018620010796F7D017F0212173B1217057D017FF0
:09187200041217707F0F0219A285
:1014C5001218CA7B08E4FDFF1218A3121953E5345C
:1014D5006401702CE52124FE60151460202402703F
:1014E5001F121590851C2B851D2C851E2D80111214
:1014F500187B85322E85302985332A8003121852B0
:041505007536032212
:10191300E52F24FE600D146010240270137D017FF7
:1019230001800A7D017F0380047D017F051217700A
:011933002291
:101AAF00E52FD39401748094804004152F80028F0A
:041ABF002F021913C6
:101AFA00E52FC39F5004052F8003752F0102191388
:10196E00E52F6013E53414700EE52124FE600304A8
:08197E0070057F03121AAF226D
:10198600E52F6013E53414700EE52124FE60030490
:0819960070057F03121AFA220A
:1017A000E52F64017008AB2B7D017F01801AE52FC6
:1017B00064027008AB2C7D017F03800CE52F64036D
:0F17C000700CAB2D7D017F051219341219132205
:1017CF00E52F64017008AB2E7D017F01801AE52F94
:1017DF0064027008AB297D017F03800CE52F640341
:0F17EF00700CAB2A7D017F0512193412191322D9
:10000E00C3E52B9417748094805004052B8003E471
:05001E00F52B0217A004
:1019B400D3E52B9400748094804004152B80037528
:0519C4002B170217A023
:1019C900C3E52C943B748094805004052C8003E477
:0519D900F52C0217A02F
:1019DE00D3E52C9400748094804004152C800375FC
:0519EE002C3B0217A0D4
:1019F300C3E52D943B748094805004052D8003E44B
:051A0300F52D0217A003
:101A0800D3E52D9400748094804004152D800375CF
:051A18002D3B0217A0A8
:101A1D00C3E52E9463748094805004052E8003E4F6
:051A2D00F52E0217CFA9
:101A3200D3E52E9400748094804004152E800375A3
:051A42002E630217CF26
:101A4700C3E52E940C748094805004052E8003E423
:051A5700F52E0217CF7F
:101A5C00D3E52E9400748094804004152E80037579
:051A6C002E0C0217CF53
:101A7100C3E52E941F748094805004052E8003E4E6
:051A8100F52E0217CF55
:101A8600D3E52E9400748094804004152E8003754F
:051A96002E1F0217CF16
:10161400E534147039E52124FE601D146030240281
:10162400702CE52F24FE600A14600A2402701F0245
:10163400000E0219C90219F3E52F24FE600A146092
:0F1644000A24027009021A1D021A47121A712293
:10165300E534147039E52124FE601D146030240242
:10166300702CE52F24FE600A14600A2402701F0206
:1016730019B40219DE021A08E52F24FE600A146069
:0F1683000A24027009021A32021A5C121A862215
:10131600E534147043E52124FE602314603A240268
:101326007036E52F24FE600C14600E2402702985A9
:101336002B1C8024852C1D801F852D1E801AE52FD1
:1013460024FE600C14600E2402700D852E32800877
:0B1356008529308003852A33021986A8
:030000000209638F
:0C096300787FE4F6D8FD7581380209AAFF
:10026700BB010689828A83E0225002E722BBFE0295
:09027700E32289828A83E49322C8
:10028000BB010CE58229F582E5833AF583E0225033
:1002900006E92582F8E622BBFE06E92582F8E2227D
:0D02A000E58229F582E5833AF583E4932297
:1002AD00BB010989828A83F8E028F022500327F7E1
:1002BD0022BBFE05F8E328F3228A838982F8E493B2
:0202CD002822E5
:1002CF00BB010689828A83F0225002F722BBFE010E
:0202DF00F32208
:1002E100E88FF0A4CC8BF0A42CFCE98EF0A42CFCBC
:1002F1008AF0EDA42CFCEA8EF0A4CDA8F08BF0A43A
:100301002DCC3825F0FDE98FF0A42CCD35F0FCEB98
:100311008EF0A4FEA9F0EB8FF0A4CFC5F02ECD395D
:0F032100FEE43CFCEAA42DCE35F0FDE43CFC22CA
:10150900C2D5E830E70FB2D5E4C39BFBE49AFAE40D
:1015190099F9E498F8EC30E717B2D512153F1203A0
:10152900A5E4C39BFBE49AFAE499F9E498F88003EB
:101539001203A530D50DE4C39FFFE49EFEE49DFD93
:04154900E49CFC2200
:10033000E8600FECC313FCED13FDEE13FEEF13FFAB
:03034000D8F122CF
:10034300D083D082F8E4937012740193700DA3A349
:1003530093F8740193F5828883E47374029368605D
:06036300EFA3A3A380DF5D
:10096F00021361E493A3F8E493A34003F68001F22A
:10097F0008DFF48029E493A3F85407240CC8C33389
:10098F00C4540F4420C8834004F456800146F6DF58
:10099F00E4800B01020408102040809013ABE47E2A
:1009AF00019360BCA3FF543F30E509541FFEE4934D
:1009BF00A360010ECF54C025E060A840B8E493A314
:1009CF00FAE493A3F8E493A3C8C582C8CAC583CA3F
:1009DF00F0A3C8C582C8CAC583CADFE9DEE780BEF7
:0113F40000F8
:1003690075F008758200EF2FFFEE33FECD33CDCC4B
:1003790033CCC58233C5829BED9AEC99E5829840CE
:100389000CF582EE9BFEED9AFDEC99FC0FD5F0D6AB
:10039900E4CEFBE4CDFAE4CCF9A88222B800C1B9D5
:1003A9000059BA002DEC8BF084CFCECDFCE5F0CB13
:1003B900F97818EF2FFFEE33FEED33FDEC33FCEB4C
:1003C90033FB10D703994004EB99FB0FD8E5E4F907
:1003D900FA227818EF2FFFEE33FEED33FDEC33FCF4
:1003E900C933C910D7059BE99A4007EC9BFCE99AE8
:1003F900F90FD8E0E4C9FAE4CCFB2275F010EF2F2D
:10040900FFEE33FEED33FDCC33CCC833C810D7072C
:100419009BEC9AE899400AED9BFDEC9AFCE899F867
:0E0429000FD5F0DAE4CDFBE4CCFAE4C8F922FA
:00000001FF
