:06118B001210AC020D245D
:10085500D6B2CEEFB4F3D5BDBDA9CAAC00D3CECFC9
:10086500B7BCF2BDE900202000BFAACABCD3CECFD9
:10087500B700D3CECFB7BDE9C9DC00D6D6D6B2D640
:10088500B2CEEFB7C0D3F9BDA9CAAC0035312B4CF8
:100895004344D6C6D7F700B0B4C8CED2E2BCFCB745
:1008A500B5BBD800C4D1B6C8D1A1D4F100BCF2B54E
:1008B500A500C0A7C4D100B0B4C8CED2E2BCFCD359
:1008C500CECFB7BFAACABC00C4D1B6C8A3BABCF2C2
:0E08D500B5A500C4D1B6C8A3BAC0A7C4D1004F
:0C10CC00012200012100012000011F0092
:100BC9001210FE7BFF7A087955E4FD7F01120D862C
:100BD900E52170137D017F01120F097F20120F900B
:100BE9007F10120F90800D7BFF7A08796B7D017F52
:100BF90001120D867BFF7A0879627D017F02120D51
:100C090086E521B401137D027F01120F097F2012AD
:100C19000F907F10120F90800D7BFF7A08796B7D02
:100C2900027F01120D867BFF7A08796E7D027F02B1
:040C3900120D8622F0
:100F41001210FE7BFF7A087977E4FD7F02120D868D
:100F51007BFF7A0879807D01E4FF120D867BFF7AA1
:100F61000879917D027F01120D867BFF7A08799CB9
:070F71007D037F01020D86E4
:100C3D001210FE7BFF7A0879A9E4FD7F02120D8662
:100C4D00E52070137D017F01120F097F20120F9097
:100C5D007F10120F90800D7BFF7A08796B7D017FDD
:100C6D0001120D867BFF7A0879B27D017F03120D8B
:100C7D0086E520B401137D027F01120F097F20123A
:100C8D000F907F10120F90800D7BFF7A08796B7D8E
:100C9D00027F01120D867BFF7A0879B77D027F03F3
:040CAD00120D86227C
:100FAC001210FE7BFF7A0879BCE4FDFF120D86E57A
:100FBC001F700D7BFF7A0879CD7D037F03120D86A0
:100FCC00E51FB4010D7BFF7A0879D87D037F0312EE
:030FDC000D86225D
:100FDF00BF0209E521D3940040021521BF0A09E59C
:100FEF0021C3940150020521BF060FE5217003753F
:0D0FFF002201E521B40103752202020BC995
:101166008F0A120F41E50A6006E4F522120BC92226
:10106100BF0209E520D3940040021520BF0A09E51B
:1010710020C3940150020520BF060985201F120FCD
:07108100AC752203020C3DD7
:100D24007509FF120BC9E52265096024852209E5CE
:100D34002214600F14601114601324037012120B38
:100D4400C9800D120F418008120C3D8003120FACB4
:100D54001204AA8F08E50860CDE52214601114601E
:100D640015146019240370BEAF08120FDF80B7AFEB
:100D74000812116680B0AF0812106180A9120E2FFC
:020D840080A449
:041088007D017C006A
:10108C008F18ED4C6003121140C2A6C2A5851880C2
:10109C007F017E00121176D2A7D2A7D2A7C2A722B7
:100F78007E00E5172514FFEE3516FEE5122FF582E3
:080F8800E5113EF583E493FF3F
:100F90008F18121140D2A6C2A58518807F017E004D
:0C0FA000121176D2A7D2A7D2A7C2A722B6
:101140007580FFC2A6D2A5D2A7E58020E7FBC2A783
:03115000AF80224B
:1010AC007F301210887D017C007F0112108C7D0135
:1010BC007C007F0612108C7D017C007F0C02108C52
:1010FE007D017C007F0112108C7F341210887D01DF
:07110E007C007F3002108C11
:100F0900ED1460111460151460192403701AEF248C
:100F190080F50B8013EF2490F50B800CEF2488F5F6
:100F29000B8005EF2498F50B7D017C00AF0B1210A7
:080F39008C7F0A7E0002117694
:100DDF007D017C007F0812108C7F907E0112112BF9
:100DEF007D017C007F0C12108C7F907E0112112BE5
:100DFF007D017C007F0812108C7F907E0112112BD9
:100E0F007D017C007F0C12108C7F907E0112112BC4
:100E1F007D017C007F0812108C7F907E0102112BC8
:100D86008B0C8A0D890EEDD394005002E4FDEDD351
:100D9600940340027D0353070FED14600F14601196
:100DA60014601324037012430780800D430790805C
:100DB600084307888003430798121088AB0CAA0DD6
:100DC600A90E1210E5FF6010120F907401250EF5A2
:090DD6000EE4350DF50D80E42258
:100EC9008B0CEDD394005002E4FDEDD39403400262
:100ED9007D0353070FED14600F1460111460132480
:100EE900037012430780800D4307908008430788E9
:100EF9008003430798E4FDFC12108CAF0C020F909D
:04096F008E0C8F0D4E
:10097300E4F511F5127D01FC7F3412108C7D017CAE
:10098300007F3612108CE4F510E510C39409505023
:10099300E4F50EE50E2480FF121088E5102480FF95
:1009A300121088E4F50F7E00E512250FFFEE3511D6
:1009B300FEE50D2FF582E50C120F8A050FE50FC337
:1009C300941040E274102512F512E43511F5110567
:1009D3000EE50EC3942040BB74082510F51080A9C2
:1009E3007D017C007F3612108C7D017C007F3002FC
:0209F300108C66
:0409F5008E118F12BE
:1009F900E4F515F5167D01FC7F3412108C7D017C20
:100A0900007F3612108C75130DE5132480FF121028
:100A1900887D017C007F8012108CE4F5147E00E54E
:100A2900162514FFEE3515FEE5122FF582E5111294
:100A39000F8A0514E514C3940240E274022516F5E1
:100A490016E43515F5150513E513C3941D40BA7D54
:100A5900017C007F3612108C7D017C007F300210F2
:010A69008C00
:04070B008E118F12AA
:10070F00E4F516F5177D01FC7F3412108C7D017C0A
:10071F00007F3612108CE4F515E515C39409507B54
:10072F00E515703875131EE5132480FF121088E548
:10073F00152480FF121088E4F514120F780514E5C4
:10074F0014C3940240F474022517F517E43516F517
:10075F00160513E513C3942040CD8036E4F513E559
:10076F00132480FF121088E5152480FF121088E4EF
:10077F00F514120F780514E514C3940240F47402B3
:10078F002517F517E43516F5160513E513C3940E63
:10079F0040CD74082515F5150207287D017C007FD3
:0D07AF003612108C7D017C007F3002108C12
:040A6A008E118F1248
:100A6E00E4F515F5167D01FC7F3412108C7D017CAA
:100A7E00007F3612108C75130FE5132480FF1210B1
:100A8E00887D017C007F8812108CE4F5147E00E5D1
:100A9E00162514FFEE3515FEE5122FF582E511121F
:100AAE000F8A0514E514C3940240E274022516F56C
:100ABE0016E43515F5150513E513C3941F40BA7DDD
:100ACE00017C007F3612108C7D017C007F3002107D
:010ADE008C8B
:040ADF008E118F12D3
:100AE300E4F515F5167D01FC7F3412108C7D017C35
:100AF300007F3612108C75130DE5132480FF12103E
:100B0300887D017C007F8112108CE4F5147E00E562
:100B1300162514FFEE3515FEE5122FF582E51112A9
:100B23000F8A0514E514C3940240E274022516F5F6
:100B330016E43515F5150513E513C3941D40BA7D69
:100B4300017C007F3612108C7D017C007F30021007
:010B53008C15
:040633008E118F1283
:10063700E4F516F5177D01FC7F3412108C7D017CE3
:10064700007F3612108CE4F515E515C394094003B5
:100657000206F9E515704A75131EE5132480FF128B
:100667001088E5152481FF121088E4F5147E00E553
:10067700172514FFEE3516FEE5122FF582E5111248
:100687000F8A0514E514C3940240E274022517F596
:1006970017E43516F5160513E513C3942040BB8000
:1006A70048E4F513E5132480FF121088E51524812B
:1006B700FF121088E4F5147E00E5172514FFEE35C8
:1006C70016FEE5122FF582E511120F8A0514E514BF
:1006D700C3940240E274022517F517E43516F516A0
:1006E7000513E513C3940E40BB74082515F51502D1
:1006F70006507D017C007F3612108C7D017C007FC7
:040707003002108C20
:040B54008E118F125D
:100B5800E4F515F5167D01FC7F3412108C7D017CBF
:100B6800007F3612108C75130FE5132480FF1210C6
:100B7800887D017C007F8912108CE4F5147E00E5E5
:100B8800162514FFEE3515FEE5122FF582E5111234
:100B98000F8A0514E514C3940240E274022516F581
:100BA80016E43515F5150513E513C3941F40BA7DF2
:100BB800017C007F3612108C7D017C007F30021092
:010BC8008CA0
:0B117600EF1FAC0670011E4C70F6224B
:10112B00EF1FAC0670011E4C600A7D027CEFDCFEEB
:04113B00DDFC80EC6B
:01113F00228D
:1004AA00E4F50C7590FFC2932097137F14FE121186
:1004BA002B3097FD7F147E0012112B750C012096AC
:1004CA00147F147E0012112B3096FD7F147E0012C9
:1004DA00112B750C052095147F147E0012112B30F8
:1004EA0095FD7F147E0012112B750C092094147F40
:1004FA00147E0012112B3094FD7F147E0012112BF2
:10050A00750C0D7590FFC2922097147F147E00120D
:10051A00112B3097FD7F147E0012112B750C0220CF
:10052A0096147F147E0012112B3096FD7F147E00E4
:10053A0012112B750C062095147F147E0012112BB4
:10054A003095FD7F147E0012112B750C0A2094142D
:10055A007F147E0012112B3094FD7F147E0012113D
:10056A002B750C0E7590FFC2912097147F147E0094
:10057A0012112B3097FD7F147E0012112B750C037C
:10058A002096147F147E0012112B3096FD7F147E64
:10059A000012112B750C072095147F147E0012117E
:1005AA002B3095FD7F147E0012112B750C0B2094B5
:1005BA00147F147E0012112B3094FD7F147E0012DA
:1005CA00112B750C0F7590FFC2902097147F147E23
:1005DA000012112B3097FD7F147E0012112B750C1F
:1005EA00042096147F147E0012112B3096FD7F147E
:1005FA007E0012112B750C082095147F147E0012B0
:10060A00112B3095FD7F147E0012112B750C0C20D6
:10061A0094147F147E0012112B3094FD7F147E00F7
:08062A0012112B750C10AF0C2E
:0106320022A5
:10000300526F756E643A00000000000000000000AB
:10001300000000018003C003C00180000000000055
:1000230000000000000000000000000000000000CD
:1000330000000000000000000000000000000000BD
:10004300000000000000000000180039E070F230EA
:10005300CE300E300E0C3E07C00200000000000F31
:10006300800FE01FE00C00FFFFFFFFFFFFFFFFFF1C
:10007300FFFFFFFFFFFFFF80000000000000000004
:1000830000000000000001800000000000000000EC
:1000930000000000000001800000000000000000DC
:1000A30000000000000001800000000000000000CC
:1000B30000000000000001800000000000000000BC
:1000C30000000000000001800000000000000000AC
:1000D300000000000000018000000000000000009C
:1000E300000000000000018000000000000000008C
:1000F300000000000000018000000000000000007C
:10010300000000000000018000000000000000006B
:10011300000000000000018000000000000000005B
:1001230000000000000001FFFFFFFFFFFFFFFFFFD4
:10013300FFFFFFFFFFFFFF80000000000000000043
:10014300000000000000018000000000000000002B
:10015300000000000000018000000000000000001B
:10016300000000000000018000000000000000000B
:1001730000000000000001800000000000000000FB
:1001830000000000000001800000000000000000EB
:1001930000000000000001800000000000000000DB
:1001A30000000000000001800000000000000000CB
:1001B30000000000000001800000000000000000BB
:1001C30000000000000001800000000000000000AB
:1001D300000000000000018000000000000000009B
:1001E300000000000000018000000000000000008B
:1001F300000000000000018000000000000000007B
:10020300000000000000018000000000000000006A
:10021300000000000000018000000000000000005A
:10022300000000000000018000000000000000004A
:1002330000000000000001FFFFFFFFFFFFFFFFFFC3
:10024300FFFFFFFFFFFFFF80000000000000000032
:10025300000000000000018000000000000000001A
:10026300000000000000018000000000000000000A
:1002730000000000000001800000000000000000FA
:1002830000000000000001800000000000000000EA
:1002930000000000000001800000000000000000DA
:1002A30000000000000001800000000000000000CA
:1002B30000000000000001800000000000000000BA
:1002C30000000000000001800000000000000000AA
:1002D300000000000000018000000000000000009A
:1002E300000000000000018000000000000000008A
:1002F300000000000000018000000000000000007A
:100303000000000000000180000000000000000069
:100313000000000000000180000000000000000059
:100323000000000000000180000000000000000049
:100333000000000000000180000000000000000039
:1003430000000000000001FFFFFFFFFFFFFFFFFFB2
:10035300FFFFFFFFFFFFFF80000000000000000021
:100363000000000000000180000000000000000009
:1003730000000000000001800000000000000000F9
:1003830000000000000001800000000000000000E9
:1003930000000000000001800000000000000000D9
:1003A30000000000000001800000000000000000C9
:1003B30000000000000001800000000000000000B9
:1003C30000000000000001800000000000000000A9
:1003D3000000000000000180000000000000000099
:1003E3000000000000000180000000000000000089
:1003F3000000000000000180000000000000000079
:100403000000000000000180000000000000000068
:100413000000000000000180000000000000000058
:100423000000000000000180000000000000000048
:100433000000000000000180000000000000000038
:100443000000000000000180000000000000000028
:1004530000000000000001FFFFFFFFFFFFFFFFFFA1
:10046300FFFFFFFFFFFFFF01C00638300C600446AB
:100473006740B2710A496A4B1070E63E010F880D5E
:10048300D0183409D4011407C01C302808080453B9
:100493001E54A294978289A001A001A0018001505B
:0704A300023006180C07F0FF
:0C10D80001260001250B01240B01230060
:100E2F00750BFF1210AC7F907E0112112B1210FE6A
:100E3F007E007F6A12096F7BFF7A007903E4FD7FE2
:100E4F0003120D867B24E4FDFF120EC9120E7D12D4
:100E5F0004AA8F0AE50A60F7E52614600A0470EF0A
:0E0E6F00AF0A120CB180E8AF0A1207BC80E196
:100CB1008F0CE50CB40216E52575F00A8464016019
:100CC1000985252474F62525F525121038E50CB47F
:100CD1000A16E52575F00A846403600985252474E4
:100CE1000A2525F525121038E50CB40514E52575FE
:100CF100F00A84E5F06401600585252415251210AC
:100D010038E50CB40714E52575F00A84E5F06402B2
:100D110060058525240525121038E50CB4060375F8
:030D210026012286
:060E7D007C007D0AAF2598
:100E83008C0F8D10EF24F4602724F760151460276E
:100E930024F760151460272415702AAF10AE0F02D3
:100EA30009F5AF10AE0F02070BAF10AE0F020A6ABF
:100EB300AF10AE0F020ADFAF10AE0F020633AF1052
:060EC300AE0F120B5422D9
:1007BC008F0CE50C64057029E523D39400400215D9
:1007CC0023E523600D24FE600F0470157C007D0A68
:1007DC00800A7C007D4A80047C047D8AAF25120E41
:1007EC0083E50C64077029E523C3940250020523AA
:1007FC00E523600D24FE600F0470157C007D0A80DB
:10080C000A7C007D4A80047C047D8AAF25120E830D
:10081C00E50C64067032E523600E24FE601704704C
:10082C0024120E7DE4FD80187C007D4AAF25120E4B
:10083C00837D01800B7C047D8AAF25120E837D02A3
:09084C00AF25121115E4F5262276
:04103800AD25AF240F
:10103C008F0D8D0E121153EF70097C007D2AAF0DB0
:10104C00120E83AF0E121153EF70097C007D0AAFA4
:05105C000E120E8322BC
:10100C00EF24F4601B24F7601114601724F7600DB3
:10101C00146013241570127F00227F01227F02229C
:0C102C007F03227F04227F05227FFF2229
:091181007F067819E4F608DFFC92
:01118A002242
:1011530012100CEFC3940640037FFF2274192FF87B
:02116300E6FFA5
:011165002267
:1011150012100CEFC39406500CEDD39402500674D4
:05112500192FF8A605DA
:01112A0022A2
:030000000208E310
:0C08E300787FE4F6D8FD75812602092A12
:1010E500BB010689828A83E0225002E722BBFE0209
:0910F500E32289828A83E493223C
:1008EF0002118BE493A3F8E493A34003F68001F283
:1008FF0008DFF48029E493A3F85407240CC8C3330A
:10090F00C4540F4420C8834004F456800146F6DFD8
:10091F00E4800B01020408102040809010CCE47E8C
:10092F00019360BCA3FF543F30E509541FFEE493CD
:10093F00A360010ECF54C025E060A840B8E493A394
:10094F00FAE493A3F8E493A3C8C582C8CAC583CABF
:10095F00F0A3C8C582C8CAC583CADFE9DEE780BE77
:0110E400000B
:00000001FF
