:1000C0004141414141414141004141414141414161
:0A00D000004141414100414141005F
:1000590012009B7BFF7A0079C0E4FDFF1200037B4D
:10006900FF7A0079C9E4FD7F011200037BFF7A0062
:1000790079D1E4FD7F021200037BFF7A0079D6E48F
:10008900FD7F0312000312013F7FE87E0312010A7C
:0200990080F4F1
:0E00F300C2A5C2A71201018D80120101D2A781
:080101007F027EEFDEFEDFFC51
:0101090022D3
:0A012B00AD07C2A61200F3C2A7221E
:0A013500AD07D2A61200F3C2A72204
:08013F007F0112012B020101F6
:10009B00D2B21201017F3012012B1201017F0C121F
:1000AB00012B1201017F0612012B1201017F01129C
:0500BB00012B02010110
:10000300AC07EDD394005002E4FDEDD3940340021A
:100013007D0353040FED14600F1460111460132457
:10002300037012430480800D4304908008430488C6
:100033008003430498120101AF0412012B12010142
:100043001200DAFF600F120135120101740129F960
:06005300E43AFA80EB2202
:10010A00EF1FAC0670011E4C600A7D027CEFDCFE1C
:04011A00DDFC80EC9C
:01011E0022BE
:0300000002011FDB
:0C011F00787FE4F6D8FD758107020059D6
:1000DA00BB010689828A83E0225002E722BBFE0224
:0900EA00E32289828A83E4932257
:00000001FF
