:10002E007E007F71E4FD1200037E007F7D7D011254
:0B003E000003E4F5087849E6F5812294
:0D006300007F087E9A7D7ADDFEDEFCDFFA6C
:01007000226D
:1000490074492508F8A6810508E508B40203E4F512
:0A0059000874492508F8E6F5812235
:0C007100C2A0120063B2A012004980F689
:0C007D00C2A7120063B2A712004980F66F
:10000300AB07AA06AF02EDC43354E0240AF8A607EF
:10001300AF03EDC43354E02409F8A607EDC4335409
:0B002300E0240AFF74492DF8A6072214
:0300000002008972
:0C008900787FE4F6D8FD75814A02002E55
:00000001FF
