:061FD700121E7B0215281A
:100ADE00D6B2CEEFB4F3D5BDBDA9CAAC00D3CECF3E
:100AEE00B7BCF2BDE900202000BFAACABCD3CECF4E
:100AFE00B700B2E9BFB4B4E6B5B500D3CECFB7BD3B
:100B0E00E9C9DCA3BA00D6D6D6B2D6B2CEEFB7C0FC
:100B1E00D3F9BDA9CAAC0035312B4C4344D6C6D748
:100B2E00F700B0B453313020CFF2CFC2D2BBD2B324
:100B3E0000B0B4BCFCBDE9C9DCA3BA00C9CFCFC2BA
:100B4E00D7F3D3D2C8B7C8CFB7B5BBD80032203190
:100B5E0030203520372036203600D3CECFB7D6D032
:100B6E00D4DDCDA3CEAA53313600B7C5D6C3D6B287
:100B7E00CEEFA3BA00D1A1D4F1B5D8BFE9BAF3C86C
:100B8E00B7C8CF00D7F3D3D2D1A1CDE3B6B9BBF25C
:100B9E00CDC1B6B900B0B4C8B7C8CFB7C5D6C300BB
:100BAE00C4D1B6C8D1A1D4F100BCF2B5A500C0A77E
:100BBE00C4D100B0B4C8CED2E2BCFCD3CECFB7BF46
:100BCE00AACABC00C4D1B6C8A3BABCF2B5A500C4AB
:0A0BDE00D1B6C8A3BAC0A7C4D10065
:0F149E00014E00014D00014C00014B00014A00BE
:10122100121ED37BFF7A0A79DEE4FD7F0112198851
:10123100E54D70137D017F01121C097F20121C8E68
:101241007F10121C8E800D7BFF7A0A79F47D017F5D
:10125100011219887BFF7A0A79EB7D017F0212194D
:1012610088E54DB401137D027F01121C097F201214
:101271001C8E7F10121C8E800D7BFF7A0A79F47D03
:10128100027F011219887BFF7A0A79F77D027F02BA
:10129100121988E54DB402137D037F01121C097FE9
:1012A10020121C8E7F10121C8E800D7BFF7A0A7912
:1012B100F47D037F011219887BFF7A0B79007D038E
:0612C1007F0212198822D1
:10117100E54A7032121ED37BFF7A0B7909E4FD7FB9
:10118100021219887BFF7A0B79147D01E4FF121991
:10119100887BFF7A0B79257D027F011219887BFFFD
:1011A1007A0B79308036E54A64017036121ED37BA2
:1011B100FF7A0B793FE4FD7F021219887BFF7A0BDE
:1011C100794A7D01E4FF1219887BFF7A0B795B7DF7
:1011D100027F011219887BFF7A0B79687D03E4FF96
:1011E100803AE54A64027037121ED37BFF7A0B798D
:1011F10078E4FD7F021219887BFF7A0B79837D01E8
:10120100E4FF1219887BFF7A0B79927D02E4FF12C9
:1012110019887BFF7A0B79A37D037F01121988223C
:10183100121ED37BFF7A0B79AEE4FD7F0212198869
:10184100E54C70137D017F01121C097F20121C8E53
:101851007F10121C8E800D7BFF7A0A79F47D017F47
:10186100011219887BFF7A0B79B77D017F03121969
:1018710088E54CB401137D027F01121C097F2012FF
:101881001C8E7F10121C8E800D7BFF7A0A79F47DED
:10189100027F011219887BFF7A0B79BC7D027F03DD
:0418A100121988226E
:101CAA00121ED37BFF7A0B79C1E4FDFF121988E576
:101CBA004B700D7BFF7A0B79D27D037F0312198853
:101CCA00E54BB4010D7BFF7A0B79DD7D037F0312AF
:031CDA0019882244
:101C4100BF0209E54DD394004002154DBF0A09E5D5
:101C51004DC394025002054DBF0617E54D70037543
:101C61004E01E54DB40103754E02E54DB402037515
:051C71004E05021221E6
:101E0F00BF0209E54AD394004002154ABF0A09E50B
:101E1F004AC394025002054ABF0606E4F54E121259
:041E2F00210211710A
:101DE800BF0209E54CD394004002154CBF0A09E52F
:101DF8004CC394015002054CBF0609854C4B121C7C
:071E0800AA754E0302183118
:101528007509FF121221E54E65096034854E09E5FB
:101538004E14601514601714601914601B14601D94
:101548002405701C121221801712117180121218B2
:1015580031800D121CAA80081209BA8003121D6A74
:101568001208318F08E50860BDE54E146017146055
:101578001B14601F146021146027240570A8AF088D
:10158800121C4180A1AF08121E0F809AAF08121DCD
:10159800E8809312136D808EAF087E00121B948032
:0915A80085AF08121E0F02152E7A
:041E33007D017C00B1
:101E37008F24ED4C6003121EFFC2A6C2A585248025
:101E47007F017E00121FA5D2A7D2A7D2A7C2A722C1
:101C76007E00E5232520FFEE3522FEE51D2FF582A9
:081C8600E51C3EF583E493FF29
:101C8E008F24121EFFD2A6C2A58524807F017E005E
:0C1C9E00121FA5D2A7D2A7D2A7C2A7226E
:101EFF007580FFC2A6D2A5D2A7E58020E7FBC2A7B7
:031F0F00AF80227E
:101E7B007F30121E337D017C007F01121E377D01E6
:101E8B007C007F06121E377D017C007F0C021E3703
:101ED3007D017C007F01121E377F34121E337D018A
:071EE3007C007F30021E3776
:101C0900ED1460111460151460192403701AEF247F
:101C190080F50A8013EF2490F50A800CEF2488F5EB
:101C29000A8005EF2498F50A7D017C00AF0A121E8F
:081C3900377F0A7E00021FA59F
:101988008B1E8A1F8920EDD394005002E4FDEDD30D
:10199800940340027D0353070FED14600F14601188
:1019A80014601324037012430780800D430790804E
:1019B800084307888003430798121E33AB1EAA1FEB
:1019C800A9201212C7FF6010121C8E74012520F581
:0919D80020E4351FF51F80E42214
:101B14008B0CEDD394005002E4FDEDD3940340020A
:101B24007D0353070FED14600F1460111460132428
:101B3400037012430780800D430790800843078891
:101B44008003430798E4FDFC121E37AF0C021C8E81
:04163A008E0C8F0D76
:10163E00E4F511F5127D01FC7F34121E377D017C1D
:10164E00007F36121E37E4F510E510C39409505092
:10165E00E4F50EE50E2480FF121E33E5102480FF04
:10166E00121E33E4F50F7E00E512250FFFEE351145
:10167E00FEE50D2FF582E50C121C88050FE50FC354
:10168E00941040E274102512F512E43511F511058F
:10169E000EE50EC3942040BB74082510F51080A9EA
:1016AE007D017C007F36121E377D017C007F30026B
:0216BE001E37D5
:061745008E1C8F1D8D1E9D
:10174B00E4F521F5227D01FC7F34121E377D017CEF
:10175B00007F36121E37751F0DE51F2480FF121EEA
:10176B0033E51E2480FF121E33E4F5207E00E522B4
:10177B002520FFEE3521FEE51D2FF582E51C121C01
:10178B00880520E520C3940240E274022522F5224D
:10179B00E43521F521051FE51FC3941D40BB7D01D9
:1017AB007C007F36121E377D017C007F30021E3796
:060FFF008E1C8F1D8D1EEB
:10100500E4F522F5237D01FC7F34121E377D017C3A
:10101500007F36121E37E4F521E521C3940940030C
:101025000210A7E521703A751F1EE51F2480FF12E7
:101035001E33E5212480251EFF121E33E4F5201200
:101045001C760520E520C3940240F474022523F59F
:1010550023E43522F522051FE51FC3942040CB80EC
:1010650038E4F51FE51F2480FF121E33E521248097
:10107500251EFF121E33E4F520121C760520E520FF
:10108500C3940240F474022523F523E43522F522A6
:10109500051FE51FC3940E40CB74082521F52102D9
:1010A500101E7D017C007F36121E377D017C007F7E
:0410B50030021E37B0
:0617BB008E1C8F1D8D1E27
:1017C100E4F521F5227D01FC7F34121E377D017C79
:1017D100007F36121E37751F0FE51F2480FF121E72
:1017E10033E51E2488FF121E33E4F5207E00E52236
:1017F1002520FFEE3521FEE51D2FF582E51C121C8B
:10180100880520E520C3940240E274022522F522D6
:10181100E43521F521051FE51FC3941F40BB7D0160
:101821007C007F36121E377D017C007F30021E371F
:0B1FA500EF1FAC0670011E4C70F6220E
:101EEA00EF1FAC0670011E4C600A7D027CEFDCFE1F
:041EFA00DDFC80EC9F
:011EFE0022C1
:10083100E4F50C7590FFC2932097137F14FE121EEE
:10084100EA3097FD7F147E00121EEA750C01209696
:10085100147F147E00121EEA3096FD7F147E001272
:100861001EEA750C052095147F147E00121EEA30D5
:1008710095FD7F147E00121EEA750C092094147FE9
:10088100147E00121EEA3094FD7F147E00121EEACF
:10089100750C0D7590FFC2922097147F147E001283
:1008A1001EEA3097FD7F147E00121EEA750C0220AD
:1008B10096147F147E00121EEA3096FD7F147E008E
:1008C100121EEA750C062095147F147E00121EEA92
:1008D1003095FD7F147E00121EEA750C0A209414D7
:1008E1007F147E00121EEA3094FD7F147E00121EDA
:1008F100EA750C0E7590FFC2912097147F147E004B
:10090100121EEA3097FD7F147E00121EEA750C0359
:100911002096147F147E00121EEA3096FD7F147E0D
:1009210000121EEA750C072095147F147E00121E1A
:10093100EA3095FD7F147E00121EEA750C0B20949F
:10094100147F147E00121EEA3094FD7F147E001283
:100951001EEA750C0F7590FFC2902097147F147ECC
:1009610000121EEA3097FD7F147E00121EEA750CFC
:10097100042096147F147E00121EEA3096FD7F1427
:100981007E00121EEA750C082095147F147E001259
:100991001EEA3095FD7F147E00121EEA750C0C20B4
:1009A10094147F147E00121EEA3094FD7F147E00A1
:0809B100121EEA750C10AF0CD8
:0109B900221B
:10000E0052643A3100204F4E00204F464600204F9A
:10001E004E200000000000000000000FF008100B42
:10002E00D00BD00BD00BD008100FF000000000004A
:10003E0000000000000000000000000000000000B2
:10004E0000000000000000000000000000000000A2
:10005E000000000000180039E070F230CE300E3093
:10006E000E0C3E07C00200000000000F800FE01FC4
:10007E00E00C00FFFFFFFFFFFFFFFFFFFFFFFFFF93
:10008E00FFFFFF80000000000000000000000000E5
:10009E0000000180000000000000000000000000D1
:1000AE0000000180000000000000000000000000C1
:1000BE0000000180000000000000000000000000B1
:1000CE0000000180000000000000000000000000A1
:1000DE000000018000000000000000000000000091
:1000EE000000018000000000000000000000000081
:1000FE000000018000000000000000000000000071
:10010E000000018000000000000000000000000060
:10011E000000018000000000000000000000000050
:10012E000000018000000000000000000000000040
:10013E00000001FFFFFFFFFFFFFFFFFFFFFFFFFFBD
:10014E00FFFFFF8000000000000000000000000024
:10015E000000018000000000000000000000000010
:10016E000000018000000000000000000000000000
:10017E0000000180000000000000000000000000F0
:10018E0000000180000000000000000000000000E0
:10019E0000000180000000000000000000000000D0
:1001AE0000000180000000000000000000000000C0
:1001BE0000000180000000000000000000000000B0
:1001CE0000000180000000000000000000000000A0
:1001DE000000018000000000000000000000000090
:1001EE000000018000000000000000000000000080
:1001FE000000018000000000000000000000000070
:10020E00000001800000000000000000000000005F
:10021E00000001800000000000000000000000004F
:10022E00000001800000000000000000000000003F
:10023E00000001800000000000000000000000002F
:10024E00000001FFFFFFFFFFFFFFFFFFFFFFFFFFAC
:10025E00FFFFFF8000000000000000000000000013
:10026E0000000180000000000000000000000000FF
:10027E0000000180000000000000000000000000EF
:10028E0000000180000000000000000000000000DF
:10029E0000000180000000000000000000000000CF
:1002AE0000000180000000000000000000000000BF
:1002BE0000000180000000000000000000000000AF
:1002CE00000001800000000000000000000000009F
:1002DE00000001800000000000000000000000008F
:1002EE00000001800000000000000000000000007F
:1002FE00000001800000000000000000000000006F
:10030E00000001800000000000000000000000005E
:10031E00000001800000000000000000000000004E
:10032E00000001800000000000000000000000003E
:10033E00000001800000000000000000000000002E
:10034E00000001800000000000000000000000001E
:10035E00000001FFFFFFFFFFFFFFFFFFFFFFFFFF9B
:10036E00FFFFFF8000000000000000000000000002
:10037E0000000180000000000000000000000000EE
:10038E0000000180000000000000000000000000DE
:10039E0000000180000000000000000000000000CE
:1003AE0000000180000000000000000000000000BE
:1003BE0000000180000000000000000000000000AE
:1003CE00000001800000000000000000000000009E
:1003DE00000001800000000000000000000000008E
:1003EE00000001800000000000000000000000007E
:1003FE00000001800000000000000000000000006E
:10040E00000001800000000000000000000000005D
:10041E00000001800000000000000000000000004D
:10042E00000001800000000000000000000000003D
:10043E00000001800000000000000000000000002D
:10044E00000001800000000000000000000000001D
:10045E00000001800000000000000000000000000D
:10046E00000001FFFFFFFFFFFFFFFFFFFFFFFFFF8A
:10047E00FFFFFF07C01C3028080804531E54A29427
:10048E00978289A001A001A00180015002300618B8
:03049E000C07F058
:0614AD0001530001520092
:10136D00750BFF121E7B7F907E01121EEA121ED39B
:10137D00121F7D7E007F8112163A7BFF7A00790E57
:10138D00E4FD7F061219887B24E4FDFF121B147CFB
:10139D00007D21AF51121AD17BFF7A007913E4FD44
:1013AD007F02121988E4F556AB56FD7F011216C067
:1013BD00E552704D1208318F0AE50A641070237BD7
:1013CD00FF7A007917FD7F021219881208318F0AF2
:1013DD00E50AB410F67BFF7A00791CE4FD7F02125A
:1013ED001988E55314600A04700CAF0A1218A58011
:1013FD0005AF0A121918121F8D121F4B1219E18019
:04140D00AF754E0465
:0114110022B8
:091FB0007F187857E4F608DFFC05
:011FB9002205
:1010B900EF24F5B41C00400302116E9010D275F0B4
:1010C90003A4C58325F0C5837302112602112F02DB
:1010D900113802114102114A02115302115C021125
:1010E9006502116E02116E02112902113202113BC1
:1010F90002114402114D02115602115F02116802D8
:10110900116E02116E02112C02113502113E0211EB
:101119004702115002115902116202116B7F00221C
:101129007F01227F02227F03227F04227F05227F03
:1011390006227F07227F08227F09227F0A227F0B4E
:10114900227F0C227F0D227F0E227F0F227F102209
:101159007F11227F12227F13227F14227F15227F83
:0811690016227F17227FFF22EE
:101F12001210B9EFC3941840037FFF2274572FF8B1
:021F2200E6FFD8
:011F2400229A
:0F1F5D001210B9EFC39418500674572FF8A60549
:011F6C002252
:101F6D00EFC3941840037FFF2274572FF8E6FF222A
:0914B30001510B01500B014F0027
:1018A5008F0CE50CB40216E55175F00A84640160ED
:1018B5000985515074F62551F551121D96E50CB464
:1018C5000A16E55175F00A84640360098551507460
:1018D5000A2551F551121D96E50CB40514E551750F
:1018E500F00A84E5F0640160058551501551121D1B
:1018F50096E50CB40714E55175F00A84E5F0640229
:1019050060058551500551121D96E50CB406037509
:0319150053012259
:101918008F0CE50C64057029E54FD394004002153F
:101928004FE54F600D24FE600F0470157C007D218B
:10193800800A7C007D6180047C047D81AF51121A8D
:10194800D1E50C64077029E54FC394025002054F96
:10195800E54F600D24FE600F0470157C007D21802A
:101968000A7C007D6180047C047D81AF51121AD10C
:10197800E50CB4060AAD51AF4F121A3AE4F55322FA
:101AD1008C0F8D10EF24F4601E24F7601214602027
:101AE10024F7600F14602224157027E4FD800AE4B6
:101AF100FD800FE4FD80147D01AF10AE0F0217458C
:101B01007D01AF10AE0F020FFF7D01AF10AE0F12BE
:031B110017BB22DD
:041D9600AD51AF504C
:101D9A008F0D8D0E121F12EF70097C007D41AF0D61
:101DAA00121AD1AF0E121F12EF70097C007D21AFFB
:051DBA000E121AD122F7
:101A3A008D0DEF14601B14602C2402703F7C007D16
:101A4A0061AF0D121AD17D01AF0D121F5D7D288085
:101A5A00267C007D21AF0D121AD1E4FDAF0D121FB5
:101A6A005DE4FD80127C047D81AF0D121AD17D02E6
:0D1A7A00AF0D121F5D7D50AF0D121EB92281
:101B5400000000000000018003C003C001800000F9
:101B64000000000000000000000000000000000071
:101B740000000000000018183C3C3C3C1818000011
:101B84000000000000000000000000000000000051
:1014BC00013502013C02013F0201380D01360201E7
:1014CC003D02014002013917013702013E02014180
:0414DC0002013A21AE
:101F4B00120F3AE4FF1204A17F011204A17F0202D7
:021F5B0004A1DF
:100F3A007857E6B401047F0180027F00785AE6FE02
:100F4A00B401047D0180027D00EEB402047E0180BA
:100F5A00027E00EF6008ED60057535018014EF70C0
:100F6A0009ED7006EF6008EE6005E4F5358003755B
:100F7A0035027858E6B401047F0180027F00785B6D
:100F8A00E6FEB401047D0180027D00EEB402047E17
:100F9A000180027E00EF6008ED600575360180145D
:100FAA00EF7009ED7006EF6008EE6005E4F5368033
:100FBA00037536027859E6B401047F0180027F0086
:100FCA00785CE6FEB401047D0180027D00EEB40285
:100FDA00047E0180027E00EF6007ED600475370130
:100FEA0022EF7009ED7006EF6007EE6004E4F53752
:040FFA002275370223
:010FFE0022D0
:0204A1008F0CBE
:1004A300E50C75F00AA4240BF53BE50C1460391434
:1004B300606524026003020547750D00750E007523
:1004C3000F3575100075110075123C751300751406
:1004D300007515387519FF751A17751B45751600C4
:1004E30075170075183F805C750D00750E00750F4C
:1004F3003675100075110075123D751300751400E3
:100503007515397519FF751A0F751BFF751600756B
:100513001700751840802D750D00750E00750F3787
:1005230075100075110075123E7513007514007572
:10053300153A7519FF751A17751BBB7516007517D4
:1005430000751841AB0DAA0EA90F1212C7640270F1
:100553003AAB10AA11A9121212C7640260227E1BC1
:100563007F54AB16AA17A9181212C7FD851B8285E3
:100573001A8312136BAB16AA17A918740212132F3E
:10058300AB10AA11A912740202082D7DC87C00AF1A
:100593000C121D3EEF700302081EE53B04FF121F01
:1005A30012EF64046010E53B2402FF121F12EF6494
:1005B3000460030206D4AB0DAA0EA90F1212C7AB37
:1005C30010AA11A91212132FE53B04FF121F12EFF9
:1005D30064047052AB0DAA0EA90F1212C7701EABA2
:1005E30013AA14A9151212C7FF121F38EF24ECFD2A
:1005F300AB13AA14A9151212C7FF121EB9AB13AA83
:1006030014A9151212C7FF121F38EFD39400400329
:10061300020830E53B04FFE4FD121F5D7E007F41CD
:10062300E53B040206B4E53B2402FF121F12EF640C
:100633000460030206D4AB0DAA0EA90F1212C770F1
:100643001EAB13AA14A9151212C7FF121F38EF24E9
:10065300ECFDAB13AA14A9151212C7FF121EB9ABF6
:100663000DAA0EA90F1212C7B4011EAB13AA14A927
:10067300151212C7FF121F38EF24D8FDAB13AA14AB
:10068300A9151212C7FF121EB9AB13AA14A915128A
:1006930012C7FF121F38EFD394004003020830E55E
:1006A3003B2402FFE4FD121F5D7E007F41E53B24F6
:1006B30002FD851B82851A8312136BAB13AA14A93F
:1006C30015740112130D0556AB56E4FD7F01021696
:1006D300C0AB16AA17A9181212C7253BFF121F1287
:1006E300EF640460287E007F41AB16AA17A9181295
:1006F30012C7FD851B82851A8312136BAB16AA17CB
:10070300A9181212C7253BFFE4FD121F5DAB16AA01
:1007130017A918740112130D1212C7253BFF121FDC
:1007230012EF640460030207D0AB0DAA0EA90F12E7
:1007330012C7AB10AA11A91212132FAB0DAA0EA93F
:100743000F1212C7AB13AA14A915B4010C1212C7C6
:10075300FF121F38EF24D8800A1212C7FF121F3866
:10076300EF24ECFDAB13AA14A9151212C7FF121E36
:10077300B9AB13AA14A9151212C7FF121F38EFD36E
:100783009400503EAB16AA17A9181212C7253BFFB7
:10079300E4FD121F5D7E007F41AB16AA17A9181254
:1007A30012C7FD851B82851A8312136BAB13AA1420
:1007B300A915740112130D0556AB56E4FD7F011202
:1007C30016C0AB16AA17A918740212132FAB16AAD8
:1007D30017A9181212C7C394084005740212132FE5
:1007E300AB0DAA0EA90F1212C7640170067E1B7F00
:1007F3007480047E1B7F54AB16AA17A9181212C764
:10080300FD851B82851A8312136BAB16AA17A918D1
:100813001212C7253BFF7D03121F5DAB0DAA0EA964
:0D0823000F1212C7AB10AA11A91212132F49
:0108300022A5
:1014E000022500000E2700000000000000000000A0
:0414F00000000000F8
:101F7D00438901758CFC758A67D2A9D28CD2AF22A8
:03000B00021F25AC
:101F2500C0E0758CFC758A670526E52670020525D7
:031F3500D0E032C7
:101D3E00EF25E02427F8E6FA08E6FBC3E5269BFB31
:101D4E00E5259AFAC3EB9DEA9C400EEF25E0242789
:0C1D5E00F8A62508A6267F01227F00229F
:101A870052643A320052643A330001C00638300CCF
:101A97006004466740B2710A496A4B1070E63E011E
:101AA7000F880DD0183409D4011403801CF820ECDA
:101AB7003044180208020C060A021206105E320CA5
:0A1AC70012271FCB0D100E1403149C
:1014F4000890020103000301020A0C8403020300A2
:10150400010201040302010A0148000149000145E6
:101514000B01461501471F01420D014317014421E8
:100BE800E54BB4010E750C00750D00750E84750F7C
:100BF8000C800C750C00750D00750E90750F08E5CE
:100C080049C3950F4003020CC37DA07C0F7F0612D9
:100C18001D3EEF7003020CC3E549C3950F40030264
:100C28000CC3AB0CAA0DA90E85498275830012125C
:100C3800E0606C24FE602C14604714606A24FA603B
:100C48007524097074E5452407FF7D04121F5D7E35
:100C58001A7FB17D071217457D78AF42121EB9057C
:100C6800428056E5462407FF7D04121F5D7E1A7FE9
:100C7800917D07120FFF7D78AF43121EB90543809F
:100C880038E5472407FF7D04121F5D7E1A7F917D9A
:100C9800071217BB7D78AF44121EB90544801A7B32
:100CA800FF7A1A798780067BFF7A1A798CE4FD7FB0
:0B0CB80006121988800375480A0549E0
:010CC300220E
:100CC4007DB87C0B7F03121D3EEF7003020D9575FA
:100CD4000C01E545250CFF121F12EF6404600302AA
:100CE4000D89E545250C14FF121F12EF64047003EF
:100CF400020D89E545250C14FF121F12EF640160F3
:100D04000EE545250C14FF121F12EF6402703AE53C
:100D140045250C14FF121F38EF24ECFDE545250C86
:100D240014FF121EB9E545250C14FF121F38EFD32A
:100D340094005051E545250C14FFE4FD121F5D7E1F
:100D4400007F41E50C14FD8039E545250CFF7D0449
:100D5400121F5D7E1A7FB1AD0C121745E50C1425E8
:100D640045FF7D04121F5D7E1A7FB1E50C14FD1250
:100D74001745E545250CFFE4FD121F5D7E007F410C
:100D8400AD0C121745050CE50CD394075003020C67
:010D9400D688
:010D9500223B
:100D96007DD07C077F04121D3EEF7003020E67753F
:100DA6000C01E546250CFF121F12EF6404600302D6
:100DB6000E5BE546250C14FF121F12EF6404700348
:100DC600020E5BE546250C14FF121F12EF6401604C
:100DD6000EE546250C14FF121F12EF6402703AE569
:100DE60046250C14FF121F38EF24ECFDE546250CB2
:100DF60014FF121EB9E546250C14FF121F38EFD357
:100E060094005051E546250C14FFE4FD121F5D7E4B
:100E1600007F41E50C14FD8039E546250CFF7D0475
:100E2600121F5D7E1A7F91AD0C120FFFE50C142583
:100E360046FF7D04121F5D7E1A7F91E50C14FD129C
:100E46000FFFE546250CFFE4FD121F5D7E007F4186
:100E5600AD0C120FFF050CE50CD394075003020DE1
:010E6600A8E3
:010E67002268
:100E68007DA07C0F7F05121D3EEF7003020F3975C0
:100E78000C01E547250CFF121F12EF640460030202
:100E88000F2DE547250C14FF121F12EF64047003A1
:100E9800020F2DE547250C14FF121F12EF640160A5
:100EA8000EE547250C14FF121F12EF6402703AE595
:100EB80047250C14FF121F38EF24ECFDE547250CDD
:100EC80014FF121EB9E547250C14FF121F38EFD383
:100ED80094005051E547250C14FFE4FD121F5D7E78
:100EE800007F41E50C14FD8039E547250CFF7D04A2
:100EF800121F5D7E1A7F91AD0C1217BBE50C1425ED
:100F080047FF7D04121F5D7E1A7F91E50C14FD12C8
:100F180017BBE547250CFFE4FD121F5D7E007F41EE
:100F2800AD0C1217BB050CE50CD394075003020E49
:010F38007A3E
:010F39002295
:0C1F8D00120BE8120CC4120D96020E6834
:091FBA007F15786FE4F608DFFCE6
:011FC30022FB
:1015B100EF12134115F80B16010C160A0D16130E36
:1015C100161C0F162510162E1115FB1516041616CE
:1015D1000D17161618161F1916281A16311B15FE87
:1015E1001F160720161021161922162223162B2446
:1015F100163425000016377F00227F01227F022248
:101601007F03227F04227F05227F06227F07227F1C
:1016110008227F09227F0A227F0B227F0C227F0D65
:10162100227F0E227F0F227F10227F11227F122222
:091631007F13227F14227FFF22A7
:101F38001215B1EFC3941540037FFF22746F2FF879
:021F4800E6FFB2
:011F4A002274
:101EB9001215B1EFC394155010D3ED64809480507E
:091EC90002E4FD746F2FF8A60578
:011ED20022ED
:101CDD00796F75206C6F737400CAC7B7F1B1A3B477
:101CED00E6C4E3B5C4BDE1B9FB00B1A3B4E6002081
:101CFD002000B2BBB1A3B4E600796F752077696E91
:011D0D0000D5
:1019E1007F15121F12EF640460127F0B121F12EF9A
:1019F100640460087F1F121F12BF040D7FE87E037D
:0F1A0100121EEA755201E4F555E548640A702992
:101A1000F50DF50CAF0C121F6DBF0403750D01051C
:101A20000CE50CC3941840ECE50D700D7FE87E03C7
:091A3000121EEA75550175520100
:011A3900228A
:1009BA00121ED3E5556003020A4C121ED37BFF7A3E
:1009CA001C79DDE4FDFF121988AB56E4FD7F0512A0
:1009DA0016C07BFF7A1C79E67D01E4FF121988E5CF
:1009EA005470137D027F01121C097F20121C8E7F16
:1009FA0010121C8E800D7BFF7A1C79FC7D027F0110
:100A0A001219887BFF7A1C79F77D027F03121988F5
:100A1A00E554B401137D037F01121C097F20121CC7
:100A2A008E7F10121C8E800D7BFF7A1C79FC7D0351
:100A3A007F011219887BFF7A1C79FF7D037F0312DD
:100A4A001988E55564016003020ADD121ED37BFF93
:100A5A007A1D7906E4FDFF121988AB56E4FD7F057D
:100A6A001216C07BFF7A1C79E67D01E4FF12198811
:100A7A00E55470137D027F01121C097F20121C8E1F
:100A8A007F10121C8E800D7BFF7A1C79FC7D027F01
:100A9A00011219887BFF7A1C79F77D027F031219EC
:100AAA0088E554B401137D037F01121C097F2012CB
:100ABA001C8E7F10121C8E800D7BFF7A1C79FC7DA8
:100ACA00037F011219887BFF7A1C79FF7D037F035C
:040ADA001219882243
:101B9400EF64024E7009E554D3940040021554EFEB
:101BA400640A4E7009E554C3940150020554EF646D
:101BB400064E7014E554700AE556FD7C00E4FF12ED
:0B1BC4001E57121221E4F54E0209BA70
:101BCF00C9CFB4CEB4E6B5B5B5C3B7D6A3BA00B0D6
:101BDF00B4C8CED2E2BCFCB7B5BBD80030300031B0
:101BEF0030003230003330003430003530003630C2
:0A1BFF0000373000383000393000A4
:031524000156006D
:101D6A00121ED3E4FF121D0E8F567BFF7A1B79CF0A
:101D7A00E4FDFF121988AB567D017F031216C07B62
:0C1D8A00FF7A1B79DE7D02E4FF0219885D
:1016C0008F1C8D1DEBB40A00507A9016D1F8282893
:1016D000730216EF0216F70216FF02170702170F22
:1016E00002171702171F02172702172F0217377B3F
:1016F000FF7A1B79EB80467BFF7A1B79EE803E7B7D
:10170000FF7A1B79F180367BFF7A1B79F4802E7B80
:10171000FF7A1B79F780267BFF7A1B79FA801E7B84
:10172000FF7A1B79FD80167BFF7A1C7900800E7B87
:10173000FF7A1C790380067BFF7A1C7906AD1DAF0A
:051740001C12198822B3
:101E57008F0A8C0B8D0C121FCE7FA0121DBF121F75
:101E670099AF0A121DBF121F99AF0C121DBF121F87
:041E770099020003C9
:021D0E008F0A3A
:101D1000121FCE7FA0121DBF121F99AF0A121DBF46
:101D2000121F99121FCE7FA1121DBF121F99121EE2
:0D1D30009B8F0B7F01121FC4120003AF0B2D
:011D3D002283
:091FCE00D2A0D2A1C2A0C2A1223E
:07000300C2A0D2A1D2A0228D
:021DBF00AD076E
:101DC100E4FB74807E00A803088006CEA2E713CE50
:101DD10013D8F8FFEDF582EF558224FF92A0D2A12E
:061DE100C2A10BBB08DCEF
:011DE70022D9
:101E9B00E4FFD2A0FED2A130A00D7480A80608806A
:0D1EAB0002C313D8FC4207C2A10EBE08E816
:011EB8002207
:0A1FC400EF24FF92A0D2A1C2A122D7
:0B1F9900D2A0D2A1A2A0E433FFC2A19D
:011FA400221A
:03000000021412D5
:0C141200787FE4F6D8FD7581970214592C
:1012C700BB010689828A83E0225002E722BBFE0225
:0912D700E32289828A83E4932258
:1012E000BB010CE58229F582E5833AF583E02250C3
:1012F00006E92582F8E622BBFE06E92582F8E2220D
:0D130000E58229F582E5833AF583E4932226
:10130D00BB010989828A83F8E028F022500327F770
:10131D0022BBFE05F8E328F3228A838982F8E49341
:02132D00282274
:10132F00BB010689828A83F0225002F722BBFE019D
:02133F00F32297
:10134100D083D082F8E4937012740193700DA3A33B
:1013510093F8740193F5828883E47374029368604F
:06136100EFA3A3A380DF4F
:061367008A838982E47311
:10141E00021FD7E493A3F8E493A34003F68001F2EE
:10142E0008DFF48029E493A3F85407240CC8C333CF
:10143E00C4540F4420C8834004F456800146F6DF9E
:10144E00E4800B010204081020408090149EE47E7C
:10145E00019360BCA3FF543F30E509541FFEE49393
:10146E00A360010ECF54C025E060A840B8E493A35A
:10147E00FAE493A3F8E493A3C8C582C8CAC583CA85
:10148E00F0A3C8C582C8CAC583CADFE9DEE780BE3D
:0115270000C3
:00000001FF
