:060003001211CB020DAB4F
:10086600D6B2CEEFB4F3D5BDBDA9CAAC00D3CECFB8
:10087600B7BCF2BDE900202000BFAACABCD3CECFC8
:10088600B700D3CECFB7BDE9C9DC00D6D6D6B2D62F
:10089600B2CEEFB7C0D3F9BDA9CAAC0035312B4CE7
:1008A6004344D6C6D7F700B0B4C8CED2E2BCFCB734
:1008B600B5BBD800C4D1B6C8D1A1D4F100BCF2B53D
:1008C600A500C0A7C4D100B0B4C8CED2E2BCFCD348
:1008D600CECFB7BFAACABC00C4D1B6C8A3BABCF2B1
:0E08E600B5A500C4D1B6C8A3BAC0A7C4D1003E
:0C118300012200012100012000011F00DA
:100C50001212227BFF7A087966E4FD7F01120E0DE5
:100C6000E52170137D017F01120FD27F20121059F0
:100C70007F10121059800D7BFF7A08797C7D017FEF
:100C800001120E0D7BFF7A0879737D017F02120E2F
:100C90000DE521B401137D027F01120FD27F2012D6
:100CA00010597F10121059800D7BFF7A08797C7DD6
:100CB000027F01120E0D7BFF7A08797F7D027F0291
:040CC000120E0D22E1
:10100A001212227BFF7A087988E4FD7F02120E0D04
:10101A007BFF7A0879917D01E4FF120E0D7BFF7A3E
:10102A000879A27D027F01120E0D7BFF7A0879AD45
:07103A007D037F01020E0D92
:100CC4001212227BFF7A0879BAE4FD7F02120E0D1C
:100CD400E52070137D017F01120FD27F201210597D
:100CE4007F10121059800D7BFF7A08797C7D017F7B
:100CF40001120E0D7BFF7A0879C37D017F03120E6A
:100D04000DE520B401137D027F01120FD27F201262
:100D140010597F10121059800D7BFF7A08797C7D61
:100D2400027F01120E0D7BFF7A0879C87D027F03D2
:040D3400120E0D226C
:101075001212227BFF7A0879CDE4FDFF120E0DE5F1
:101085001F700D7BFF7A0879DE7D037F03120E0D3D
:10109500E51FB4010D7BFF7A0879E97D037F031213
:0310A5000E0D220B
:1010DA00BF0209E521D3940040021521BF0A09E5A0
:1010EA0021C3940150020521BF060FE52170037543
:0D10FA002201E521B40103752202020C5011
:10129D008F0A12100AE50A6006E4F522120C50229C
:10115C00BF0209E520D3940040021520BF0A09E51F
:10116C0020C3940150020520BF060985201F1210D0
:07117C0075752203020CC48B
:100DAB007509FF120C50E52265096024852209E5BF
:100DBB002214600F14601114601324037012120CB0
:100DCB0050800D12100A8008120CC480031210758B
:100DDB001204B58F08E50860CDE52214601114608C
:100DEB0015146019240370BEAF081210DA80B7AF68
:100DFB000812129D80B0AF0812115C80A9120E660A
:020E0B0080A4C1
:0411A7007D017C004A
:1011AB008F18ED4C6003121264C2A6C2A58518807D
:1011BB007F017E001212BDD2A7D2A7D2A7C2A7224F
:101041007E00E5172514FFEE3516FEE5122FF58219
:08105100E5113EF583E493FF75
:101059008F18121264D2A6C2A58518807F017E005E
:0C1069001212BDD2A7D2A7D2A7C2A722A4
:101264007580FFC2A6D2A5D2A7E58020E7FBC2A75E
:03127400AF802226
:1011CB007F301211A77D017C007F011211AB7D01D5
:1011DB007C007F061211AB7D017C007F0C0211ABF2
:101222007D017C007F011211AB7F341211A77D0179
:071232007C007F300211ABCC
:100FD200ED1460111460151460192403701AEF24C3
:100FE20080F50B8013EF2490F50B800CEF2488F52D
:100FF2000B8005EF2498F50B7D017C00AF0B1211DD
:08100200AB7F0A7E000212BD63
:100EBC007D017C007F081211AB7F907E0112124FD6
:100ECC007D017C007F0C1211AB7F907E0112124FC2
:100EDC007D017C007F081211AB7F907E0112124FB6
:100EEC007D017C007F0C1211AB7F907E0112124FA2
:100EFC007D017C007F081211AB7F907E0102124FA6
:100E0D008B0C8A0D890EEDD394005002E4FDEDD3C9
:100E1D00940340027D0353070FED14600F1460110E
:100E2D0014601324037012430780800D43079080D4
:100E3D000843078880034307981211A7AB0CAA0D2E
:100E4D00A90E121209FF60101210597401250EF52A
:090E5D000EE4350DF50D80E422D0
:100F52008B0CEDD394005002E4FDEDD394034002D8
:100F62007D0353070FED14600F14601114601324F6
:100F7200037012430780800D43079080084307885F
:100F82008003430798E4FDFC1211ABAF0C02105929
:040980008E0C8F0D3D
:10098400E4F511F5127D01FC7F341211AB7D017C7D
:10099400007F361211ABE4F510E510C394095050F2
:1009A400E4F50EE50E2480FF1211A7E5102480FF64
:1009B4001211A7E4F50F7E00E512250FFFEE3511A5
:1009C400FEE50D2FF582E50C121053050FE50FC35C
:1009D400941040E274102512F512E43511F5110556
:1009E4000EE50EC3942040BB74082510F51080A9B1
:1009F4007D017C007F361211AB7D017C007F3002CB
:020A040011AB34
:040A7C008E118F1236
:100A8000E4F515F5167D01FC7F341211AB7D017C78
:100A9000007F361211AB75130DE5132480FF121180
:100AA000A77D017C007F801211ABE4F5147E00E588
:100AB000162514FFEE3515FEE5122FF582E511120D
:100AC00010530514E514C3940240E274022516F590
:100AD00016E43515F5150513E513C3941D40BA7DCD
:100AE000017C007F361211AB7D017C007F3002114A
:010AF000AB5A
:040716008E118F129F
:10071A00E4F516F5177D01FC7F341211AB7D017CDF
:10072A00007F361211ABE4F515E515C39409507B29
:10073A00E515703875131EE5132480FF1211A7E51D
:10074A00152480FF1211A7E4F5141210410514E5CF
:10075A0014C3940240F474022517F517E43516F50C
:10076A00160513E513C3942040CD8036E4F513E54E
:10077A00132480FF1211A7E5152480FF1211A7E4A4
:10078A00F5141210410514E514C3940240F47402DE
:10079A002517F517E43516F5160513E513C3940E58
:1007AA0040CD74082515F5150207337D017C007FBD
:0D07BA00361211AB7D017C007F300211ABC7
:040AF1008E118F12C1
:100AF500E4F515F5167D01FC7F341211AB7D017C03
:100B0500007F361211AB75130FE5132480FF121108
:100B1500A77D017C007F881211ABE4F5147E00E50A
:100B2500162514FFEE3515FEE5122FF582E5111297
:100B350010530514E514C3940240E274022516F51A
:100B450016E43515F5150513E513C3941F40BA7D55
:100B5500017C007F361211AB7D017C007F300211D4
:010B6500ABE4
:040B66008E118F124B
:100B6A00E4F515F5167D01FC7F341211AB7D017C8D
:100B7A00007F361211AB75130DE5132480FF121195
:100B8A00A77D017C007F811211ABE4F5147E00E59C
:100B9A00162514FFEE3515FEE5122FF582E5111222
:100BAA0010530514E514C3940240E274022516F5A5
:100BBA0016E43515F5150513E513C3941D40BA7DE2
:100BCA00017C007F361211AB7D017C007F3002115F
:010BDA00AB6F
:04063E008E118F1278
:10064200E4F516F5177D01FC7F341211AB7D017CB8
:10065200007F361211ABE4F515E515C3940940038A
:10066200020704E515704A75131EE5132480FF1274
:1006720011A7E5152481FF1211A7E4F5147E00E508
:10068200172514FFEE3516FEE5122FF582E511123D
:1006920010530514E514C3940240E274022517F5C1
:1006A20017E43516F5160513E513C3942040BB80F5
:1006B20048E4F513E5132480FF1211A7E515248100
:1006C200FF1211A7E4F5147E00E5172514FFEE359D
:1006D20016FEE5122FF582E5111210530514E514EA
:1006E200C3940240E274022517F517E43516F51695
:1006F2000513E513C3940E40BB74082515F51502C6
:10070200065B7D017C007F361211AB7D017C007F90
:04071200300211ABF5
:040BDB008E118F12D6
:100BDF00E4F515F5167D01FC7F341211AB7D017C18
:100BEF00007F361211AB75130FE5132480FF12111E
:100BFF00A77D017C007F891211ABE4F5147E00E51F
:100C0F00162514FFEE3515FEE5122FF582E51112AC
:100C1F0010530514E514C3940240E274022516F52F
:100C2F0016E43515F5150513E513C3941F40BA7D6A
:100C3F00017C007F361211AB7D017C007F300211E9
:010C4F00ABF9
:060A06008E0C8F0D8D0E19
:100A0C00E4F511F5127D01FC7F341211AB7D017CF4
:100A1C00007F361211AB750F0DE50F2480FF1211FC
:100A2C00A7E50E2480FF1211A7E4F5107E00E51255
:100A3C002510FFEE3511FEE50D2FF582E50C121099
:100A4C00530510E510C3940240E274022512F5120E
:100A5C00E43511F511050FE50FC3941D40BB7D0165
:100A6C007C007F361211AB7D017C007F300211AB14
:0B12BD00EF1FAC0670011E4C70F62203
:10124F00EF1FAC0670011E4C600A7D027CEFDCFEC6
:04125F00DDFC80EC46
:011263002268
:1004B500E4F50C7590FFC2932097137F14FE12127A
:1004C5004F3097FD7F147E0012124F750C01209658
:1004D500147F147E0012124F3096FD7F147E001299
:1004E500124F750C052095147F147E0012124F30A3
:1004F50095FD7F147E0012124F750C092094147F10
:10050500147E0012124F3094FD7F147E0012124F9C
:10051500750C0D7590FFC2922097147F147E001202
:10052500124F3097FD7F147E0012124F750C02207A
:1005350096147F147E0012124F3096FD7F147E00B4
:1005450012124F750C062095147F147E0012124F5F
:100555003095FD7F147E0012124F750C0A209414FD
:100565007F147E0012124F3094FD7F147E0012120C
:100575004F750C0E7590FFC2912097147F147E0065
:1005850012124F3097FD7F147E0012124F750C0327
:100595002096147F147E0012124F3096FD7F147E34
:1005A5000012124F750C072095147F147E0012124D
:1005B5004F3095FD7F147E0012124F750C0B209461
:1005C500147F147E0012124F3094FD7F147E0012AA
:1005D500124F750C0F7590FFC2902097147F147EF3
:1005E5000012124F3097FD7F147E0012124F750CCA
:1005F500042096147F147E0012124F3096FD7F144E
:100605007E0012124F750C082095147F147E00127F
:10061500124F3095FD7F147E0012124F750C0C2081
:1006250094147F147E0012124F3094FD7F147E00C7
:0806350012124F750C10AF0CFE
:01063D00229A
:10000E00526F756E643A0000000000000000000F91
:10001E00F008100BD00BD00BD00BD008100FF00047
:10002E0000000000000000000000000000000000C2
:10003E0000000000000000000000000000000000B2
:10004E00000000000000000000180039E070F230DF
:10005E00CE300E300E0C3E07C00200000000000F26
:10006E00800FE01FE00C00FFFFFFFFFFFFFFFFFF11
:10007E00FFFFFFFFFFFFFF800000000000000000F9
:10008E0000000000000001800000000000000000E1
:10009E0000000000000001800000000000000000D1
:1000AE0000000000000001800000000000000000C1
:1000BE0000000000000001800000000000000000B1
:1000CE0000000000000001800000000000000000A1
:1000DE000000000000000180000000000000000091
:1000EE000000000000000180000000000000000081
:1000FE000000000000000180000000000000000071
:10010E000000000000000180000000000000000060
:10011E000000000000000180000000000000000050
:10012E0000000000000001FFFFFFFFFFFFFFFFFFC9
:10013E00FFFFFFFFFFFFFF80000000000000000038
:10014E000000000000000180000000000000000020
:10015E000000000000000180000000000000000010
:10016E000000000000000180000000000000000000
:10017E0000000000000001800000000000000000F0
:10018E0000000000000001800000000000000000E0
:10019E0000000000000001800000000000000000D0
:1001AE0000000000000001800000000000000000C0
:1001BE0000000000000001800000000000000000B0
:1001CE0000000000000001800000000000000000A0
:1001DE000000000000000180000000000000000090
:1001EE000000000000000180000000000000000080
:1001FE000000000000000180000000000000000070
:10020E00000000000000018000000000000000005F
:10021E00000000000000018000000000000000004F
:10022E00000000000000018000000000000000003F
:10023E0000000000000001FFFFFFFFFFFFFFFFFFB8
:10024E00FFFFFFFFFFFFFF80000000000000000027
:10025E00000000000000018000000000000000000F
:10026E0000000000000001800000000000000000FF
:10027E0000000000000001800000000000000000EF
:10028E0000000000000001800000000000000000DF
:10029E0000000000000001800000000000000000CF
:1002AE0000000000000001800000000000000000BF
:1002BE0000000000000001800000000000000000AF
:1002CE00000000000000018000000000000000009F
:1002DE00000000000000018000000000000000008F
:1002EE00000000000000018000000000000000007F
:1002FE00000000000000018000000000000000006F
:10030E00000000000000018000000000000000005E
:10031E00000000000000018000000000000000004E
:10032E00000000000000018000000000000000003E
:10033E00000000000000018000000000000000002E
:10034E0000000000000001FFFFFFFFFFFFFFFFFFA7
:10035E00FFFFFFFFFFFFFF80000000000000000016
:10036E0000000000000001800000000000000000FE
:10037E0000000000000001800000000000000000EE
:10038E0000000000000001800000000000000000DE
:10039E0000000000000001800000000000000000CE
:1003AE0000000000000001800000000000000000BE
:1003BE0000000000000001800000000000000000AE
:1003CE00000000000000018000000000000000009E
:1003DE00000000000000018000000000000000008E
:1003EE00000000000000018000000000000000007E
:1003FE00000000000000018000000000000000006E
:10040E00000000000000018000000000000000005D
:10041E00000000000000018000000000000000004D
:10042E00000000000000018000000000000000003D
:10043E00000000000000018000000000000000002D
:10044E00000000000000018000000000000000001D
:10045E0000000000000001FFFFFFFFFFFFFFFFFF96
:10046E00FFFFFFFFFFFFFF01C00638300C600446A0
:10047E006740B2710A496A4B1070E63E010F880D53
:10048E00D0183409D4011407C01C302808080453AE
:10049E001E54A294978289A001A001A00180015050
:0704AE00023006180C07F0F4
:03118F00012A0032
:100E6600750BFF1211CB7F907E0112124F121222C8
:100E76001212AD7E007F751209807BFF7A00790E13
:100E8600E4FD7F03120E0D7B24E4FDFF120F527C5E
:100E9600007D15AF29120F0C1204B58F0AE52A142E
:100EA600600A04700CAF0A120D388005AF0A1207EB
:060EB600C71210A880E243
:0912C8007F067819E4F608DFFC4A
:0112D10022FA
:10110700EF24F4601B24F7601114601724F7600DB7
:10111700146013241570127F00227F01227F0222A0
:0C1127007F03227F04227F05227FFF222D
:10127700121107EFC3940640037FFF2274192FF85A
:02128700E6FF80
:011289002242
:10123900121107EFC39406500CEDD39402500674B3
:05124900192FF8A605B5
:01124E00227D
:0911920001290B01280B012700C3
:100D38008F0CE50CB40216E52975F00A846401608D
:100D48000985292874F62529F529121133E50CB4EB
:100D58000A16E52975F00A84640360098529287450
:100D68000A2529F529121133E50CB40514E529756E
:100D7800F00A84E5F0640160058529281529121117
:100D880033E50CB40714E52975F00A84E5F064022C
:100D980060058529280529121133E50CB406037569
:030DA8002A0122FB
:1007C7008F0CE50C64057029E527D39400400215CA
:1007D70027E527600D24FE600F0470157C007D154A
:1007E700800A7C007D5580047C047D95AF29120F1B
:1007F7000CE50C64077029E527C39402500205270E
:10080700E527600D24FE600F0470157C007D1580C0
:100817000A7C007D5580047C047D95AF29120F0C5E
:10082700E50C64067038E527601424FE601D04702B
:100837002A7C007D15AF29120F0CE4FD80187C007F
:100847007D55AF29120F0C7D01800B7C047D95AF80
:0F08570029120F0C7D02AF29121239E4F52A2263
:100F0C008C0F8D10EF24F4602724F76015146027E4
:100F1C0024F760151460272415702AAF10AE0F0249
:100F2C000A7CAF10AE0F020716AF10AE0F020AF11B
:100F3C00AF10AE0F020B66AF10AE0F02063EAF1035
:060F4C00AE0F120BDB22C8
:04113300AD29AF280B
:101137008F0D8D0E121277EF70097C007D35AF0D84
:10114700120F0CAF0E121277EF70097C007D15AFEE
:051157000E120F0C2236
:100F9200000000000000018003C003C001800000C7
:100FA200000000000000000000000000000000003F
:100FB20000000000000018183C3C3C3C18180000DF
:100FC200000000000000000000000000000000001F
:03119B00012B0223
:1010A8007F2C7E011211EBEF6027E52BD3940240D1
:1010B8000B7E007F35E52B14FD120A067E0F7FB2EA
:1010C800AD2B120A06052BE52BC394084003752B9C
:0110D8000215
:0110D90022F4
:08119E000223000002250000FD
:1012AD00438901758CFC758A67D2A9D28CD2AF2285
:03000B0002128A54
:10128A00C0E0758CFC758A670524E5247002052385
:03129A00D0E0326F
:1011EB00C3E5249526FDE5239525FCC3ED9FEC9ED9
:0E11FB0040098523258524267F01227F0022BE
:030000000208F4FF
:0C08F400787FE4F6D8FD75812B02093BEB
:10120900BB010689828A83E0225002E722BBFE02E3
:09121900E32289828A83E4932216
:10090000020003E493A3F8E493A34003F68001F20A
:1009100008DFF48029E493A3F85407240CC8C333F8
:10092000C4540F4420C8834004F456800146F6DFC7
:10093000E4800B0102040810204080901183E47EC3
:10094000019360BCA3FF543F30E509541FFEE493BC
:10095000A360010ECF54C025E060A840B8E493A383
:10096000FAE493A3F8E493A3C8C582C8CAC583CAAE
:10097000F0A3C8C582C8CAC583CADFE9DEE780BE66
:0111A6000048
:00000001FF
