:0B087B001207E912083C12089180FEF1
:0B088600EF1FAC0670011E4C70F62244
:10085300EF1FAC0670011E4C600A7D027CEFDCFECC
:04086300DDFC80EC4C
:01086700226E
:0407A3007D017C0058
:1007A7008F39ED4C6003120868C2A6C2A58539804F
:1007B7007F017E00120886D2A7D2A7D2A7C2A7229E
:10071C007E00E5152512FFEE3514FEE5102FF5824F
:08072C00E50F3EF583E493FFA5
:100734008F39120868D2A6C2A58539807F017E0050
:0C074400120886D2A7D2A7D2A7C2A72213
:100868007580FFC2A6D2A5D2A7E58020E7FBC2A764
:03087800AF80222C
:1007E9007F301207A37D017C007F011207A77D01DD
:1007F9007C007F061207A77D017C007F0C0207A7FA
:10083C007D017C007F011207A77F341207A37D0185
:07084C007C007F300207A7CA
:1006E400ED1460111460151460192403701AEF24BA
:1006F40080F5368013EF2490F536800CEF2488F5CE
:10070400368005EF2498F5367D017C00AF3612075C
:08071400A77F0A7E000208869F
:100654007D017C007F081207A77F907E011208535A
:100664007D017C007F0C1207A77F907E0112085346
:100674007D017C007F081207A77F907E011208533A
:100684007D017C007F0C1207A77F907E0112085326
:100694007D017C007F081207A77F907E010208532A
:1005FB008B368A378938EDD394005002E4FDEDD366
:10060B00940340027D0353070FED14600F14601128
:10061B0014601324037012430780800D43079080EE
:10062B000843078880034307981207A3AB36AA3702
:10063B00A938120823FF601012073474012538F50E
:09064B0038E43537F53780E4226C
:1006A4008B3DEDD394005002E4FDEDD3940340025E
:1006B4007D0353070FED14600F14601114601324AD
:1006C400037012430780800D430790800843078816
:1006D4008003430798E4FDFC1207A7AF3D020734EB
:0403A1008E088F092A
:1003A500E4F50DF50E7D01FC7F341207A77D017C78
:1003B500007F361207A7E4F50CE50CC394095050ED
:1003C500E4F50AE50A2480FF1207A3E50C2480FF63
:1003D5001207A3E4F50B7E00E50E250BFFEE350DA8
:1003E500FEE5092FF582E50812072E050BE50BC37F
:1003F500941040E27410250EF50EE4350DF50D054B
:100405000AE50AC3942040BB7408250CF50C80A9A5
:100415007D017C007F361207A77D017C007F3002BD
:0204250007A727
:040264008E0F8F105A
:10026800E4F514F5157D01FC7F341207A77D017CA8
:10027800007F361207A7E4F513E513C39409507BF2
:10028800E513703875111EE5112480FF1207A3E5E8
:10029800132480FF1207A3E4F51212071C0512E5C8
:1002A80012C3940240F474022515F515E43514F5CB
:1002B800140511E511C3942040CD8036E4F511E50D
:1002C800112480FF1207A3E5132480FF1207A3E47B
:1002D800F51212071C0512E512C3940240F47402C9
:1002E8002515F515E43514F5140511E511C3940F1A
:1002F80040CD74082513F5130202817D017C007F2F
:0D030800361207A77D017C007F300207A799
:040427008E1D8F1E79
:10042B00E4F521F5227D01FC7F341207A77D017CC9
:10043B00007F361207A7751F0FE51F2480FF1207D9
:10044B00A37D017C007F881207A7E4F5207E00E5E1
:10045B00222520FFEE3521FEE51E2FF582E51D122C
:10046B00072E0520E520C3940240E274022522F5F5
:10047B0022E43521F521051FE51FC3941F40BA7DEA
:10048B00017C007F361207A77D017C007F300207BD
:01049B00A7B9
:04049C008E238F24F8
:1004A000E4F527F5287D01FC7F341207A77D017C48
:1004B000007F361207A775250DE5252480FF12075A
:1004C000A37D017C007F801207A7E4F5267E00E56E
:1004D000282526FFEE3527FEE5242FF582E5231299
:1004E000072E0526E526C3940240E274022528F56E
:1004F00028E43527F5270525E525C3941E40BA7D58
:10050000017C007F361207A77D017C007F30020747
:01051000A743
:04018C008E168F1725
:10019000E4F51BF51C7D01FC7F341207A77D017C73
:1001A000007F361207A7E4F51AE51AC39409400345
:1001B000020252E51A704A75181EE5182480FF12D3
:1001C00007A3E51A2481FF1207A3E4F5197E00E5D1
:1001D0001C2519FFEE351BFEE5172FF582E51612DB
:1001E000072E0519E519C3940240E27402251CF597
:1001F0001CE4351BF51B0518E518C3942040BB8093
:1002000048E4F518E5182480FF1207A3E51A2481B5
:10021000FF1207A3E4F5197E00E51C2519FFEE3552
:100220001BFEE5172FF582E51612072E0519E519B5
:10023000C3940240E27402251CF51CE4351BF51B37
:100240000518E518C3940F40BB7408251AF51A0267
:1002500001A97D017C007F361207A77D017C007F0C
:04026000300207A7BA
:040511008E298F2A76
:10051500E4F52DF52E7D01FC7F341207A77D017CC6
:10052500007F361207A7752B0FE52B2480FF1207D6
:10053500A37D017C007F891207A7E4F52C7E00E5E9
:100545002E252CFFEE352DFEE52A2FF582E5291205
:10055500072E052CE52CC3940240E27402252EF5E6
:100565002EE4352DF52D052BE52BC3941F40BA7DC3
:10057500017C007F361207A77D017C007F300207D2
:01058500A7CE
:040586008E2F8F30F5
:10058A00E4F533F5347D01FC7F341207A77D017C45
:10059A00007F361207A775310DE5312480FF120757
:1005AA00A37D017C007F811207A7E4F5327E00E576
:1005BA00342532FFEE3533FEE5302FF582E52F1272
:1005CA00072E0532E532C3940240E274022534F55F
:1005DA0034E43533F5330531E531C3941E40BA7D31
:1005EA00017C007F361207A77D017C007F3002075D
:0105FA00A759
:10000300E4F53E7590FFC2932097137F14FE120808
:10001300533097FD7F147E00120853753E012096DE
:10002300147F147E001208533096FD7F147E001255
:100033000853753E052095147F147E001208533033
:1000430095FD7F147E00120853753E092094147F9A
:10005300147E001208533094FD7F147E001208535F
:10006300753E0D7590FFC2922097147F147E001287
:1000730008533097FD7F147E00120853753E02200B
:1000830096147F147E001208533096FD7F147E0071
:10009300120853753E062095147F147E00120853F0
:1000A3003095FD7F147E00120853753E0A20941488
:1000B3007F147E001208533094FD7F147E001208D3
:1000C30053753E0E7590FFC2912097147F147E00E6
:1000D3001208533097FD7F147E00120853753E03B8
:1000E3002096147F147E001208533096FD7F147EF1
:1000F30000120853753E072095147F147E001208E2
:10010300533095FD7F147E00120853753E0B2094E7
:10011300147F147E001208533094FD7F147E001266
:100123000853753E0F7590FFC2902097147F147E7D
:10013300001208533097FD7F147E00120853753E5A
:10014300042096147F147E001208533096FD7F140A
:100153007E00120853753E082095147F147E00120A
:1001630008533095FD7F147E00120853753E0C2012
:1001730094147F147E001208533094FD7F147E0084
:08018300120853753E10AF3E57
:01018B002251
:1007C700D6B2CEEFB4F3D5BDBDA9CAAC00D3CECF58
:1007D700B7BCF2BDE900BFAACABCD3CECFB70020D1
:0207E7002000F0
:06089A00013C01013A01DE
:09089100E53CB4010312075022FA
:100750007BFF7A0779C7E4FD7F011205FB7BFF7AF7
:100760000779D47D027F021205FB7BFF7A0779DDD2
:0C0770007D037F021205FB7F0102077C65
:10077C008F35E535B401071208097D02800AE5358D
:10078C00B4020A1208097D037F011206E47F2012CD
:07079C0007347F100207344F
:100809007BFF7A0779E67D027F011205FB7BFF7A80
:0A0819000779E67D037F010205FB6D
:03000000020315E3
:0C031500787FE4F6D8FD75813E02035CA1
:10082300BB010689828A83E0225002E722BBFE02D3
:09083300E32289828A83E4932206
:1003210002087BE493A3F8E493A34003F68001F26F
:1003310008DFF48029E493A3F85407240CC8C333DD
:10034100C4540F4420C8834004F456800146F6DFAC
:10035100E4800B010204081020408090089AE47E9A
:10036100019360BCA3FF543F30E509541FFEE493A1
:10037100A360010ECF54C025E060A840B8E493A368
:10038100FAE493A3F8E493A3C8C582C8CAC583CA93
:10039100F0A3C8C582C8CAC583CADFE9DEE780BE4B
:0108A0000057
:00000001FF
