:061FC000121E5A0214B0CB
:10138D00D6B2CEEFB4F3D5BDBDA9CAAC00D3CECF86
:10139D00B7BCF2BDE900202000BFAACABCD3CECF96
:1013AD00B700B2E9BFB4B4E6B5B500D3CECFB7BD83
:1013BD00E9C9DC00D6D6D6B2D6B2CEEFB7C0D3F9D6
:1013CD00BDA9CAAC0035312B4C4344D6C6D7F70066
:1013DD00B0B4C8CED2E2BCFCB7B5BBD800C4D1B650
:1013ED00C8D1A1D4F100BCF2B5A500C0A7C4D100ED
:1013FD00B0B4C8CED2E2BCFCD3CECFB7BFAACABC64
:10140D0000C4D1B6C8A3BABCF2B5A500C4D1B6C844
:07141D00A3BAC0A7C4D1006F
:0C153900014100014000013F00013E00A4
:10124200121EB27BFF7A13798DE4FD7F0112190E13
:10125200E54070137D017F01121BD57F20121C9186
:101262007F10121C91800D7BFF7A1379A37D017F81
:101272000112190E7BFF7A13799A7D017F021219EE
:101282000EE540B401137D027F01121BD57F2012AF
:101292001C917F10121C91800D7BFF7A1379A37D24
:1012A200027F0112190E7BFF7A1379A67D027F025B
:1012B20012190EE540B402137D037F01121BD57F84
:1012C20020121C917F10121C91800D7BFF7A1379E2
:1012D200A37D037F0112190E7BFF7A1379AF7D0381
:0612E2007F0212190E222A
:101C0D00121EB27BFF7A1379B8E4FD7F0212190E12
:101C1D007BFF7A1379C17D01E4FF12190E7BFF7AE8
:101C2D001379D27D027F0112190E7BFF7A1379DDB4
:071C3D007D037F0102190E77
:1017B700121EB27BFF7A1379EAE4FD7F0212190E3B
:1017C700E53F70137D017F01121BD57F20121C910D
:1017D7007F10121C91800D7BFF7A1379A37D017F07
:1017E7000112190E7BFF7A1379F37D017F0312191A
:1017F7000EE53FB401137D027F01121BD57F201236
:101807001C917F10121C91800D7BFF7A1379A37DA9
:10181700027F0112190E7BFF7A1379F87D027F038D
:0418270012190E2262
:101CAD00121EB27BFF7A1379FDE4FDFF12190EE5CA
:101CBD003E700D7BFF7A14790E7D037F0312190E92
:101CCD00E53EB4010D7BFF7A1479197D037F031274
:031CDD00190E22BB
:101C4400BF0209E540D3940040021540BF0A09E5EC
:101C540040C3940250020540BF0617E54070037567
:101C64004101E540B40103754102E540B402037546
:051C74004105021242CF
:101F2A008F0A121C0DE50A6006E4F54112124222DC
:101DEB00BF0209E53FD394004002153FBF0A09E546
:101DFB003FC394015002053FBF0609853F3E121CAD
:071E0B00AD7541030217B79A
:1014B0007509FF121242E54165096034854109E56D
:1014C0004114601514601714601914601B14601D1A
:1014D0002405701C1212428017121C0D8012121764
:1014E000B7800D121CAD8008120ADD8003121D6D3D
:1014F0001209548F08E50860BDE5411460171460B7
:101500001B14601F146021146027240570A8AF0805
:10151000121C4480A1AF08121F2A809AAF08121D26
:10152000EB80931212E8808EAF087E00121B608061
:0915300085AF08121F2A0214B64F
:041E12007D017C00D2
:101E16008F19ED4C6003121EDEC2A6C2A58519807D
:101E26007F017E00121F8ED2A7D2A7D2A7C2A722F9
:101C79007E00E5182515FFEE3517FEE5122FF582D2
:081C8900E5113EF583E493FF31
:101C91008F19121EDED2A6C2A58519807F017E0092
:0C1CA100121F8ED2A7D2A7D2A7C2A72282
:101EDE007580FFC2A6D2A5D2A7E58020E7FBC2A7D8
:031EEE00AF8022A0
:101E5A007F30121E127D017C007F01121E167D0149
:101E6A007C007F06121E167D017C007F0C021E1666
:101EB2007D017C007F01121E167F34121E127D01ED
:071EC2007C007F30021E16B8
:101BD500ED1460111460151460192403701AEF24B4
:101BE50080F50B8013EF2490F50B800CEF2488F51E
:101BF5000B8005EF2498F50B7D017C00AF0B121EC1
:081C0500167F0A7E00021F8E0B
:10190E008B108A118912EDD394005002E4FDEDD3B1
:10191E00940340027D0353070FED14600F14601102
:10192E0014601324037012430780800D43079080C8
:10193E00084307888003430798121E12AB10AA11A2
:10194E00A912121A57FF6010121C9174012512F57C
:09195E0012E43511F51180E422B8
:101AE0008B0CEDD394005002E4FDEDD3940340023F
:101AF0007D0353070FED14600F146011146013245D
:101B0000037012430780800D4307908008430788C5
:101B10008003430798E4FDFC121E16AF0C021C91D3
:0415C0008E0C8F0DF1
:1015C400E4F511F5127D01FC7F34121E167D017CB9
:1015D400007F36121E16E4F510E510C3940950502E
:1015E400E4F50EE50E2480FF121E12E5102480FFA0
:1015F400121E12E4F50F7E00E512250FFFEE3511E1
:10160400FEE50D2FF582E50C121C8B050FE50FC3CB
:10161400941040E274102512F512E43511F5110509
:101624000EE50EC3942040BB74082510F51080A964
:101634007D017C007F36121E167D017C007F300206
:021644001E1670
:0616CB008E118F128D1339
:1016D100E4F516F5177D01FC7F34121E167D017CA1
:1016E100007F36121E1675140DE5142480FF121E9C
:1016F10012E5132480FF121E12E4F5157E00E51792
:101701002515FFEE3516FEE5122FF582E511121CA7
:101711008B0515E515C3940240E274022517F517F0
:10172100E43516F5160514E514C3941D40BB7D017F
:101731007C007F36121E167D017C007F30021E1652
:061018008E118F128D13F2
:10101E00E4F517F5187D01FC7F34121E167D017C58
:10102E00007F36121E16E4F516E516C3940940032A
:10103E000210C0E516703A75141EE5142480FF12D6
:10104E001E12E51624802513FF121E12E4F515124A
:10105E001C790515E515C3940240F474022518F5A4
:10106E0018E43517F5170514E514C3942040CB800A
:10107E0038E4F514E5142480FF121E12E5162480C0
:10108E002513FF121E12E4F515121C790515E51530
:10109E00C3940240F474022518F518E43517F517B9
:1010AE000514E514C3940E40CB74082516F51602EC
:1010BE0010377D017C007F36121E167D017C007F6D
:0410CE0030021E16B8
:061741008E118F128D13C2
:10174700E4F516F5177D01FC7F34121E167D017C2A
:10175700007F36121E1675140FE5142480FF121E23
:1017670012E5132488FF121E12E4F5157E00E51713
:101777002515FFEE3516FEE5122FF582E511121C31
:101787008B0515E515C3940240E274022517F5177A
:10179700E43516F5160514E514C3941F40BB7D0107
:1017A7007C007F36121E167D017C007F30021E16DC
:0B1F8E00EF1FAC0670011E4C70F62225
:101EC900EF1FAC0670011E4C600A7D027CEFDCFE40
:041ED900DDFC80ECC0
:011EDD0022E2
:10095400E4F50C7590FFC2932097137F14FE121ECA
:10096400C93097FD7F147E00121EC9750C012096B4
:10097400147F147E00121EC93096FD7F147E00126F
:100984001EC9750C052095147F147E00121EC930F3
:1009940095FD7F147E00121EC9750C092094147FE6
:1009A400147E00121EC93094FD7F147E00121EC9ED
:1009B400750C0D7590FFC2922097147F147E00125F
:1009C4001EC93097FD7F147E00121EC9750C0220CB
:1009D40096147F147E00121EC93096FD7F147E008B
:1009E400121EC9750C062095147F147E00121EC9B0
:1009F4003095FD7F147E00121EC9750C0A209414D4
:100A04007F147E00121EC93094FD7F147E00121ED6
:100A1400C9750C0E7590FFC2912097147F147E0047
:100A2400121EC93097FD7F147E00121EC9750C0377
:100A34002096147F147E00121EC93096FD7F147E0A
:100A440000121EC9750C072095147F147E00121E17
:100A5400C93095FD7F147E00121EC9750C0B2094BD
:100A6400147F147E00121EC93094FD7F147E001280
:100A74001EC9750C0F7590FFC2902097147F147EC9
:100A840000121EC93097FD7F147E00121EC9750C1A
:100A9400042096147F147E00121EC93096FD7F1424
:100AA4007E00121EC9750C082095147F147E001256
:100AB4001EC93095FD7F147E00121EC9750C0C20D2
:100AC40094147F147E00121EC93094FD7F147E009E
:080AD400121EC9750C10AF0CD5
:010ADC0022F7
:10000E0052643A3100204F4E00204F464600204F9A
:10001E004E200000000000000000000FF008100B42
:10002E00D00BD00BD00BD008100FF000000000004A
:10003E0000000000000000000000000000000000B2
:10004E0000000000000000000000000000000000A2
:10005E000000000000180039E070F230CE300E3093
:10006E000E0C3E07C00200000000000F800FE01FC4
:10007E00E00C00FFFFFFFFFFFFFFFFFFFFFFFFFF93
:10008E00FFFFFF80000000000000000000000000E5
:10009E0000000180000000000000000000000000D1
:1000AE0000000180000000000000000000000000C1
:1000BE0000000180000000000000000000000000B1
:1000CE0000000180000000000000000000000000A1
:1000DE000000018000000000000000000000000091
:1000EE000000018000000000000000000000000081
:1000FE000000018000000000000000000000000071
:10010E000000018000000000000000000000000060
:10011E000000018000000000000000000000000050
:10012E000000018000000000000000000000000040
:10013E00000001FFFFFFFFFFFFFFFFFFFFFFFFFFBD
:10014E00FFFFFF8000000000000000000000000024
:10015E000000018000000000000000000000000010
:10016E000000018000000000000000000000000000
:10017E0000000180000000000000000000000000F0
:10018E0000000180000000000000000000000000E0
:10019E0000000180000000000000000000000000D0
:1001AE0000000180000000000000000000000000C0
:1001BE0000000180000000000000000000000000B0
:1001CE0000000180000000000000000000000000A0
:1001DE000000018000000000000000000000000090
:1001EE000000018000000000000000000000000080
:1001FE000000018000000000000000000000000070
:10020E00000001800000000000000000000000005F
:10021E00000001800000000000000000000000004F
:10022E00000001800000000000000000000000003F
:10023E00000001800000000000000000000000002F
:10024E00000001FFFFFFFFFFFFFFFFFFFFFFFFFFAC
:10025E00FFFFFF8000000000000000000000000013
:10026E0000000180000000000000000000000000FF
:10027E0000000180000000000000000000000000EF
:10028E0000000180000000000000000000000000DF
:10029E0000000180000000000000000000000000CF
:1002AE0000000180000000000000000000000000BF
:1002BE0000000180000000000000000000000000AF
:1002CE00000001800000000000000000000000009F
:1002DE00000001800000000000000000000000008F
:1002EE00000001800000000000000000000000007F
:1002FE00000001800000000000000000000000006F
:10030E00000001800000000000000000000000005E
:10031E00000001800000000000000000000000004E
:10032E00000001800000000000000000000000003E
:10033E00000001800000000000000000000000002E
:10034E00000001800000000000000000000000001E
:10035E00000001FFFFFFFFFFFFFFFFFFFFFFFFFF9B
:10036E00FFFFFF8000000000000000000000000002
:10037E0000000180000000000000000000000000EE
:10038E0000000180000000000000000000000000DE
:10039E0000000180000000000000000000000000CE
:1003AE0000000180000000000000000000000000BE
:1003BE0000000180000000000000000000000000AE
:1003CE00000001800000000000000000000000009E
:1003DE00000001800000000000000000000000008E
:1003EE00000001800000000000000000000000007E
:1003FE00000001800000000000000000000000006E
:10040E00000001800000000000000000000000005D
:10041E00000001800000000000000000000000004D
:10042E00000001800000000000000000000000003D
:10043E00000001800000000000000000000000002D
:10044E00000001800000000000000000000000001D
:10045E00000001800000000000000000000000000D
:10046E00000001FFFFFFFFFFFFFFFFFFFFFFFFFF8A
:10047E00FFFFFF07C01C3028080804531E54A29427
:10048E00978289A001A001A00180015002300618B8
:03049E000C07F058
:0615450001460001450013
:1012E800750BFF121E5A7F907E01121EC9121EB284
:1012F800121F5A7E007F811215C07BFF7A00790E7B
:10130800E4FD7F0612190E7B24E4FDFF121AE07C2F
:10131800007D21AF44121A9D7BFF7A007913E4FD0A
:101328007F0212190EE4F549AB49FD7F01121646FA
:10133800E545704D1209548F0AE50A641070237B45
:10134800FF7A007917FD7F0212190E1209548F0ACD
:10135800E50AB410F67BFF7A00791CE4FD7F0212DF
:10136800190EE54614600A04700CAF0A12182B8097
:1013780005AF0A12189E121F76121F6A121967808B
:04138800AF754104F8
:01138C00223E
:091F99007F18784AE4F608DFFC29
:011FA200221C
:1010D200EF24F5B41C0040030211879010EB75F069
:1010E20003A4C58325F0C5837302113F0211480290
:1010F200115102115A02116302116C02117502118F
:101102007E02118702118702114202114B02115411
:1011120002115D02116602116F0211780211810241
:10112200118702118702114502114E021157021155
:101132006002116902117202117B0211847F002286
:101142007F01227F02227F03227F04227F05227FEA
:1011520006227F07227F08227F09227F0A227F0B35
:10116200227F0C227F0D227F0E227F0F227F1022F0
:101172007F11227F12227F13227F14227F15227F6A
:0811820016227F17227FFF22D5
:101EF1001210D2EFC3941840037FFF22744A2FF8C7
:021F0100E6FFF9
:011F030022BB
:0F1F3A001210D2EFC394185006744A2FF8A60560
:011F49002275
:101F4A00EFC3941840037FFF22744A2FF8E6FF225A
:09154B0001440B01430B014200B5
:10182B008F0CE50CB40216E54475F00A8464016074
:10183B000985444374F62544F544121D99E50CB40F
:10184B000A16E54475F00A84640360098544437401
:10185B000A2544F544121D99E50CB40514E54475AD
:10186B00F00A84E5F0640160058544431544121DBC
:10187B0099E50CB40714E54475F00A84E5F06402AD
:10188B0060058544430544121D99E50CB4060375A8
:03189B00460122E1
:10189E008F0CE50C64057029E542D39400400215C7
:1018AE0042E542600D24FE600F0470157C007D2120
:1018BE00800A7C007D6180047C047D81AF44121A15
:1018CE009DE50C64077029E542C39402500205425F
:1018DE00E542600D24FE600F0470157C007D2180B2
:1018EE000A7C007D6180047C047D81AF44121A9DC8
:1018FE00E50CB4060AAD44AF421219C0E4F5462217
:101A9D008C0F8D10EF24F4601E24F760121460205B
:101AAD0024F7600F14602224157027E4FD800AE4EA
:101ABD00FD800FE4FD80147D01AF10AE0F0216CB3B
:101ACD007D01AF10AE0F0210187D01AF10AE0F12D9
:031ADD001741228C
:041D9900AD44AF4363
:101D9D008F0D8D0E121EF1EF70097C007D41AF0D80
:101DAD00121A9DAF0E121EF1EF70097C007D21AF4E
:051DBD000E121A9D2228
:1019C0008D0DEF14601B14602C2402703F7C007D91
:1019D00061AF0D121A9D7D01AF0D121F3A7D288057
:1019E000267C007D21AF0D121A9DE4FDAF0D121F64
:1019F0003AE4FD80127C047D81AF0D121A9D7D02B8
:0D1A0000AF0D121F3A7D50AF0D121E98223F
:101B2000000000000000018003C003C0018000002D
:101B300000000000000000000000000000000000A5
:101B400000000000000018183C3C3C3C1818000045
:101B50000000000000000000000000000000000085
:1015540001300B01311501321F012D0D012E170130
:101564002F21012A02013302013602012B02013428
:0D15740002013702012C020135020138028C
:0C1F6A00120F531204A11206320207C32A
:100F5300784AE6B401047F0180027F00784DE6FE03
:100F6300B401047D0180027D00EEB402047E0180A1
:100F7300027E00EF6008ED6005752A018014EF70B2
:100F830009ED7006EF6008EE6005E4F52A8003754D
:100F93002A02784BE6B401047F0180027F00784E79
:100FA300E6FEB401047D0180027D00EEB402047EFE
:100FB3000180027E00EF6008ED6005752B0180144F
:100FC300EF7009ED7006EF6008EE6005E4F52B8025
:100FD30003752B02784CE6B401047F0180027F0085
:100FE300784FE6FEB401047D0180027D00EEB40279
:100FF300047E0180027E00EF6007ED6004752C0122
:1010030022EF7009ED7006EF6007EE6004E4F52C43
:0410130022752C0214
:0110170022B6
:1004A100E52AB40216E5336402600C7E1B7F20ADA1
:1004B100361216CB753602753302227DC87C00E4F4
:1004C100FF121D41EF700302062EE53004FF121EDC
:1004D100F1EF64046010E5302402FF121EF1EF64B5
:1004E10004600302058B852A33E53004FF121EF1F7
:1004F100EF64047032E52A700EAF2D121F17EF243E
:10050100ECFDAF2D121E98AF2D121F17EFD39400E3
:100511004003020631E53004FFE4FD121F3A7E007C
:100521007F41E530048052E5302402FF121EF1EFD5
:1005310064047056E52A700EAF2D121F17EF24ECDC
:10054100FDAF2D121E98E52AB4010EAF2D121F1713
:10055100EF24D8FDAF2D121E98AF2D121F17EFD328
:1005610094004003020631E5302402FFE4FD121F2E
:100571003A7E007F41E5302402FD1216CB052D05A0
:1005810049AB49E4FD7F01021646E5302536FF12ED
:100591001EF1EF640460137E007F41AD361216CB6D
:1005A100E5302536FFE4FD121F3A0536E5302536E4
:1005B100FF121EF1EF6404704C852A33E52AAF2D3A
:1005C100B40108121F17EF24D88006121F17EF2459
:1005D100ECFDAF2D121E98AF2D121F17EFD3940013
:1005E1005020E5302536FFE4FD121F3A7E007F41A1
:1005F100AD361216CB052D0549AB49E4FD7F01123D
:100601001646753602E536C394084003753602E591
:100611002AB401067E1B7F4080047E1B7F20AD36FD
:100621001216CBE5302536FF7D03121F3A852A339A
:0106310022A6
:10063200E52BB40216E5346402600C7E1B7F20AD0C
:1006420037121018753702753402227DC87C007F7C
:1006520001121D41EF70030207BFE53104FF121EB4
:10066200F1EF64046010E5312402FF121EF1EF6421
:1006720004600302071C852B34E53104FF121EF1CE
:10068200EF64047032E52B700EAF2E121F17EF24A9
:10069200ECFDAF2E121E98AF2E121F17EFD394004F
:1006A20040030207C2E53104FFE4FD121F3A7E0057
:1006B2007F41E531048052E5312402FF121EF1EF41
:1006C20064047056E52B700EAF2E121F17EF24EC48
:1006D200FDAF2E121E98E52BB4010EAF2E121F177E
:1006E200EF24D8FDAF2E121E98AF2E121F17EFD394
:1006F200940040030207C2E5312402FFE4FD121F09
:100702003A7E007F41E5312402FD121018052E05C4
:1007120049AB49E4FD7F01021646E5312537FF1258
:100722001EF1EF640460137E007F41AD3712101892
:10073200E5312537FFE4FD121F3A0537E53125374C
:10074200FF121EF1EF6404704C852B34E52BAF2EA3
:10075200B40108121F17EF24D88006121F17EF24C6
:10076200ECFDAF2E121E98AF2E121F17EFD394007E
:100772005020E5312537FFE4FD121F3A7E007F410C
:10078200AD37121018052E0549AB49E4FD7F011261
:100792001646753702E537C394084003753702E5FC
:1007A2002BB401067E1B7F4080047E1B7F20AD3769
:1007B200121018E5312537FF7D03121F3A852B34BD
:0107C2002214
:1007C300E52CB40216E5356402600C7E1B7F20AD78
:1007D30038121741753802753502227DC87C007FB7
:1007E30002121D41EF7003020950E53204FF121E8D
:1007F300F1EF64046010E5322402FF121EF1EF648E
:100803000460030208AD852C35E53204FF121EF1A6
:10081300EF64047032E52C700EAF2F121F17EF2414
:10082300ECFDAF2F121E98AF2F121F17EFD39400BA
:100833004003020953E53204FFE4FD121F3A7E0030
:100843007F41E532048052E5322402FF121EF1EFAC
:1008530064047056E52C700EAF2F121F17EF24ECB3
:10086300FDAF2F121E98E52CB4010EAF2F121F17E8
:10087300EF24D8FDAF2F121E98AF2F121F17EFD3FF
:1008830094004003020953E5322402FFE4FD121FE2
:100893003A7E007F41E5322402FD121741052F0500
:1008A30049AB49E4FD7F01021646E5322538FF12C4
:1008B3001EF1EF640460137E007F41AD38121741CF
:1008C300E5322538FFE4FD121F3A0538E5322538B5
:1008D300FF121EF1EF6404704C852C35E52CAF2F0D
:1008E300B40108121F17EF24D88006121F17EF2434
:1008F300ECFDAF2F121E98AF2F121F17EFD39400EA
:100903005020E5322538FFE4FD121F3A7E007F4177
:10091300AD38121741052F0549AB49E4FD7F01129C
:100923001646753802E538C394084003753802E566
:100933002CB401067E1B7F4080047E1B7F20AD38D4
:10094300121741E5322538FF7D03121F3A852C35F6
:010953002281
:10158100021A00000E1C0000000000000000000014
:041591000000000056
:101F5A00438901758CFC758A67D2A9D28CD2AF22CB
:03000B00021F04CD
:101F0400C0E0758CFC758A67051BE51B7002051A19
:031F1400D0E032E8
:101D4100EF25E0241CF8E6FA08E6FBC3E51B9BFB44
:101D5100E51A9AFAC3EB9DEA9C400EEF25E0241C9C
:0C1D6100F8A61A08A61B7F01227F0022B2
:101A0D0052643A320052643A330001C00638300C49
:101A1D006004466740B2710A496A4B1070E63E0198
:101A2D000F880DD0183409D4011403801CF820EC54
:101A3D003044180208020C060A021206105E320C1F
:0A1A4D0012271FCB0D100E14031416
:101595000886020103000301020A0C7A0302030014
:1015A500010201040302010A013C00013D00013969
:0715B5000D013A17013B2173
:100C0100E53EB4010E750C00750D00750E7A750F79
:100C11000C800C750C00750D00750E86750F08E5BE
:100C21003DC3950F4003020CDC7DA07C0F7F0612B3
:100C31001D41EF7003020CDCE53DC3950F4003023B
:100C41000CDCAB0CAA0DA90E853D82758300121A2E
:100C510070606C24FE602C14604714606A24FA6092
:100C61007524097074E5302407FF7D04121F3A7E54
:100C71001A7F377D071216CB7D78AF39121E980582
:100C8100398056E5312407FF7D04121F3A7E1A7F11
:100C9100177D071210187D78AF3A121E98053A8019
:100CA10038E5322407FF7D04121F3A7E1A7F177D33
:100CB100071217417D78AF3B121E98053B801A7BC6
:100CC100FF7A1A790D80067BFF7A1A7912E4FD7F8B
:0B0CD1000612190E8003753C0A053D59
:010CDC0022F5
:100CDD007DB87C0B7F03121D41EF7003020DAE75C5
:100CED000C01E530250CFF121EF1EF6404600302C8
:100CFD000DA2E530250C14FF121EF1EF64047003F4
:100D0D00020DA2E530250C14FF121EF1EF640160F7
:100D1D000EE530250C14FF121EF1EF6402703AE55A
:100D2D0030250C14FF121F17EF24ECFDE530250CB8
:100D3D0014FF121E98E530250C14FF121F17EFD368
:100D4D0094005051E530250C14FFE4FD121F3A7E3E
:100D5D00007F41E50C14FD8039E530250CFF7D0445
:100D6D00121F3A7E1A7F37AD0C1216CBE50C1425E7
:100D7D0030FF7D04121F3A7E1A7F37E50C14FD12E9
:100D8D0016CBE530250CFFE4FD121F3A7E007F41A6
:100D9D00AD0C1216CB050CE50CD394075003020CC9
:010DAD00EF56
:010DAE002222
:100DAF007DD07C077F04121D41EF7003020E80750A
:100DBF000C01E531250CFF121EF1EF6404600302F4
:100DCF000E74E531250C14FF121EF1EF640470034D
:100DDF00020E74E531250C14FF121EF1EF64016051
:100DEF000EE531250C14FF121EF1EF6402703AE587
:100DFF0031250C14FF121F17EF24ECFDE531250CE4
:100E0F0014FF121E98E531250C14FF121F17EFD394
:100E1F0094005051E531250C14FFE4FD121F3A7E6A
:100E2F00007F41E50C14FD8039E531250CFF7D0471
:100E3F00121F3A7E1A7F17AD0C121018E50C1425ED
:100E4F0031FF7D04121F3A7E1A7F17E50C14FD1235
:100E5F001018E531250CFFE4FD121F3A7E007F418B
:100E6F00AD0C121018050CE50CD394075003020DAE
:010E7F00C1B1
:010E8000224F
:100E81007DA07C0F7F05121D41EF7003020F52758B
:100E91000C01E532250CFF121EF1EF640460030220
:100EA1000F46E532250C14FF121EF1EF64047003A6
:100EB100020F46E532250C14FF121EF1EF640160AA
:100EC1000EE532250C14FF121EF1EF6402703AE5B3
:100ED10032250C14FF121F17EF24ECFDE532250C0F
:100EE10014FF121E98E532250C14FF121F17EFD3C1
:100EF10094005051E532250C14FFE4FD121F3A7E97
:100F0100007F41E50C14FD8039E532250CFF7D049D
:100F1100121F3A7E1A7F17AD0C121741E50C1425EA
:100F210032FF7D04121F3A7E1A7F17E50C14FD1261
:100F31001741E532250CFFE4FD121F3A7E007F4187
:100F4100AD0C121741050CE50CD394075003020EAA
:010F5100930C
:010F5200227C
:0C1F7600120C01120CDD120DAF020E81E6
:091FA3007F187862E4F608DFFC07
:011FAC002212
:10118A00EF24F5B41C00400302123F9011A375F03E
:10119A0003A4C58325F0C583730211F70212000266
:1011AA00120902121202121B02122402122D021238
:1011BA003602123F02123F0211FA02120302120C05
:1011CA0002121502121E02122702123002123902EC
:1011DA00123F02123F0211FD02120602120F021200
:1011EA001802122102122A02123302123C7F002232
:1011FA007F01227F02227F03227F04227F05227F32
:10120A0006227F07227F08227F09227F0A227F0B7C
:10121A00227F0C227F0D227F0E227F0F227F102237
:10122A007F11227F12227F13227F14227F15227FB1
:08123A0016227F17227FFF221C
:101F170012118AEFC3941840037FFF2274622FF8CF
:021F2700E6FFD3
:011F29002295
:101E980012118AEFC394185010D3ED6480948050C7
:091EA80002E4FD74622FF8A605A6
:011EB100220E
:101CE000796F75206C6F737400CAC7B7F1B1A3B474
:101CF000E6C4E3B5C4BDE1B9FB00B1A3B4E600207E
:101D00002000B2BBB1A3B4E600796F752077696E8D
:011D100000D2
:101967007F15121EF1EF640460127F0B121EF1EF58
:10197700640460087F1F121EF1BF040D7FE87E0319
:0F198700121EC9754501E4F548E53C640A702954
:10199600F50DF50CAF0C121F4ABF0403750D0105BA
:1019A6000CE50CC3941840ECE50D700D7FE87E0342
:0919B600121EC9754801754501B6
:0119BF002205
:100ADD00121EB2E5486003020B6F121EB27BFF7A45
:100AED001C79E0E4FDFF12190EAB49E4FD7F051200
:100AFD0016467BFF7A1C79E97D01E4FF12190EE59C
:100B0D004770137D027F01121BD57F20121C917F30
:100B1D0010121C91800D7BFF7A1C79FF7D027F01E5
:100B2D0012190E7BFF7A1C79FA7D027F0312190EC2
:100B3D00E547B401137D037F01121BD57F20121CE5
:100B4D00917F10121C91800D7BFF7A1C79FF7D0324
:100B5D007F0112190E7BFF7A1D79027D037F03122F
:100B6D00190EE54864016003020C00121EB27BFFF2
:100B7D007A1D7909E4FDFF12190EAB49E4FD7F05DD
:100B8D001216467BFF7A1C79E97D01E4FF12190EDE
:100B9D00E54770137D027F01121BD57F20121C913A
:100BAD007F10121C91800D7BFF7A1C79FF7D027FD7
:100BBD000112190E7BFF7A1C79FA7D027F0312193F
:100BCD000EE547B401137D037F01121BD57F201263
:100BDD001C917F10121C91800D7BFF7A1C79FF7D7B
:100BED00037F0112190E7BFF7A1D79027D037F03AE
:040BFD0012190E2299
:101B6000EF64024E7009E547D3940040021547EF39
:101B7000640A4E7009E547C3940150020547EF64BB
:101B8000064E7014E547700AE549FD7C00E4FF123B
:0B1B90001E36121242E4F541020ADD8D
:101B9B00C9CFB4CEB4E6B5B5B5C3B7D6A3BA00B00A
:101BAB00B4C8CED2E2BCFCB7B5BBD80030300031E4
:101BBB0030003230003330003430003530003630F6
:0A1BCB0000373000383000393000D8
:0315BC00014900E2
:101D6D00121EB2E4FF121D118F497BFF7A1B799B66
:101D7D00E4FDFF12190EAB497D017F031216467B60
:0C1D8D00FF7A1B79AA7D02E4FF02190E08
:101646008F0C8D0DEBB40A00507A901657F82828A7
:101656007302167502167D02168502168D02169500
:1016660002169D0216A50216AD0216B50216BD7B20
:10167600FF7A1B79B780467BFF7A1B79BA803E7B5F
:10168600FF7A1B79BD80367BFF7A1B79C0802E7B63
:10169600FF7A1B79C380267BFF7A1B79C6801E7B67
:1016A600FF7A1B79C980167BFF7A1B79CC800E7B6B
:1016B600FF7A1B79CF80067BFF7A1B79D2AD0DAFFF
:0516C6000C12190E22B8
:091FB700D2A0D2A1C2A0C2A12255
:07000300C2A0D2A1D2A0228D
:021DC200AD076B
:101DC400E4FB74807E00A803088006CEA2E713CE4D
:101DD40013D8F8FFEDF582EF558224FF92A0D2A12B
:061DE400C2A10BBB08DCEC
:011DEA0022D6
:101E7A00E4FFD2A0FED2A130A00D7480A80608808B
:0D1E8A0002C313D8FC4207C2A10EBE08E837
:011E97002228
:0A1FAD00EF24FF92A0D2A1C2A122EE
:0B1F8200D2A0D2A1A2A0E433FFC2A1B4
:011F8D002231
:101E36008F0A8C0B8D0C121FB77FA0121DC2121FAA
:101E460082AF0A121DC2121F82AF0C121DC2121FD0
:041E56008202000301
:021D11008F0A37
:101D1300121FB77FA0121DC2121F82AF0A121DC26B
:101D2300121F82121FB77FA1121DC2121F82121E21
:0D1D33007A8F0B7F01121FAD120003AF0B62
:011D40002280
:03000000021424C3
:0C142400787FE4F6D8FD75818D02146B12
:101A5700BB010689828A83E0225002E722BBFE028D
:091A6700E32289828A83E49322C0
:101A7000BB010CE58229F582E5833AF583E022502B
:101A800006E92582F8E622BBFE06E92582F8E22275
:0D1A9000E58229F582E5833AF583E493228F
:10143000021FC0E493A3F8E493A34003F68001F2F3
:1014400008DFF48029E493A3F85407240CC8C333BD
:10145000C4540F4420C8834004F456800146F6DF8C
:10146000E4800B0102040810204080901539E47ECE
:10147000019360BCA3FF543F30E509541FFEE49381
:10148000A360010ECF54C025E060A840B8E493A348
:10149000FAE493A3F8E493A3C8C582C8CAC583CA73
:1014A000F0A3C8C582C8CAC583CADFE9DEE780BE2B
:0115BF00002B
:00000001FF
