:061FB000121E4C0214B0E9
:10138D00D6B2CEEFB4F3D5BDBDA9CAAC00D3CECF86
:10139D00B7BCF2BDE900202000BFAACABCD3CECF96
:1013AD00B700B2E9BFB4B4E6B5B500D3CECFB7BD83
:1013BD00E9C9DC00D6D6D6B2D6B2CEEFB7C0D3F9D6
:1013CD00BDA9CAAC0035312B4C4344D6C6D7F70066
:1013DD00B0B4C8CED2E2BCFCB7B5BBD800C4D1B650
:1013ED00C8D1A1D4F100BCF2B5A500C0A7C4D100ED
:1013FD00B0B4C8CED2E2BCFCD3CECFB7BFAACABC64
:10140D0000C4D1B6C8A3BABCF2B5A500C4D1B6C844
:07141D00A3BAC0A7C4D1006F
:0C153900014100014000013F00013E00A4
:10124200121EA27BFF7A13798DE4FD7F0112190E23
:10125200E54070137D017F01121BC77F20121C83A2
:101262007F10121C83800D7BFF7A1379A37D017F8F
:101272000112190E7BFF7A13799A7D017F021219EE
:101282000EE540B401137D027F01121BC77F2012BD
:101292001C837F10121C83800D7BFF7A1379A37D40
:1012A200027F0112190E7BFF7A1379A67D027F025B
:1012B20012190EE540B402137D037F01121BC77F92
:1012C20020121C837F10121C83800D7BFF7A1379FE
:1012D200A37D037F0112190E7BFF7A1379AF7D0381
:0612E2007F0212190E222A
:101BFF00121EA27BFF7A1379B8E4FD7F0212190E31
:101C0F007BFF7A1379C17D01E4FF12190E7BFF7AF6
:101C1F001379D27D027F0112190E7BFF7A1379DDC2
:071C2F007D037F0102190E85
:1017B700121EA27BFF7A1379EAE4FD7F0212190E4B
:1017C700E53F70137D017F01121BC77F20121C8329
:1017D7007F10121C83800D7BFF7A1379A37D017F15
:1017E7000112190E7BFF7A1379F37D017F0312191A
:1017F7000EE53FB401137D027F01121BC77F201244
:101807001C837F10121C83800D7BFF7A1379A37DC5
:10181700027F0112190E7BFF7A1379F87D027F038D
:0418270012190E2262
:101C9F00121EA27BFF7A1379FDE4FDFF12190EE5E8
:101CAF003E700D7BFF7A14790E7D037F0312190EA0
:101CBF00E53EB4010D7BFF7A1479197D037F031282
:031CCF00190E22C9
:101C3600BF0209E540D3940040021540BF0A09E5FA
:101C460040C3940250020540BF0617E54070037575
:101C56004101E540B40103754102E540B402037554
:051C66004105021242DD
:101F1A008F0A121BFFE50A6006E4F54112124222FB
:101DDD00BF0209E53FD394004002153FBF0A09E554
:101DED003FC394015002053FBF0609853F3E121CBB
:071DFD009F7541030217B7B7
:1014B0007509FF121242E54165096034854109E56D
:1014C0004114601514601714601914601B14601D1A
:1014D0002405701C1212428017121BFF8012121773
:1014E000B7800D121C9F8008120ADD8003121D5F59
:1014F0001209548F08E50860BDE5411460171460B7
:101500001B14601F146021146027240570A8AF0805
:10151000121C3680A1AF08121F1A809AAF08121D44
:10152000DD80931212E8808EAF087E00121B52807D
:0915300085AF08121F1A0214B65F
:041E04007D017C00E0
:101E08008F19ED4C6003121ECEC2A6C2A58519809B
:101E18007F017E00121F7ED2A7D2A7D2A7C2A72217
:101C6B007E00E5182515FFEE3517FEE5122FF582E0
:081C7B00E5113EF583E493FF3F
:101C83008F19121ECED2A6C2A58519807F017E00B0
:0C1C9300121F7ED2A7D2A7D2A7C2A722A0
:101ECE007580FFC2A6D2A5D2A7E58020E7FBC2A7E8
:031EDE00AF8022B0
:101E4C007F30121E047D017C007F01121E087D0173
:101E5C007C007F06121E087D017C007F0C021E0890
:101EA2007D017C007F01121E087F34121E047D0119
:071EB2007C007F30021E08D6
:101BC700ED1460111460151460192403701AEF24C2
:101BD70080F50B8013EF2490F50B800CEF2488F52C
:101BE7000B8005EF2498F50B7D017C00AF0B121ECF
:081BF700087F0A7E00021F7E38
:10190E008B108A118912EDD394005002E4FDEDD3B1
:10191E00940340027D0353070FED14600F14601102
:10192E0014601324037012430780800D43079080C8
:10193E00084307888003430798121E04AB10AA11B0
:10194E00A912121A49FF6010121C8374012512F598
:09195E0012E43511F51180E422B8
:101AD2008B0CEDD394005002E4FDEDD3940340024D
:101AE2007D0353070FED14600F146011146013246B
:101AF200037012430780800D4307908008430788D4
:101B02008003430798E4FDFC121E08AF0C021C83FD
:0415C0008E0C8F0DF1
:1015C400E4F511F5127D01FC7F34121E087D017CC7
:1015D400007F36121E08E4F510E510C3940950503C
:1015E400E4F50EE50E2480FF121E04E5102480FFAE
:1015F400121E04E4F50F7E00E512250FFFEE3511EF
:10160400FEE50D2FF582E50C121C7D050FE50FC3D9
:10161400941040E274102512F512E43511F5110509
:101624000EE50EC3942040BB74082510F51080A964
:101634007D017C007F36121E087D017C007F300214
:021644001E087E
:0616CB008E118F128D1339
:1016D100E4F516F5177D01FC7F34121E087D017CAF
:1016E100007F36121E0875140DE5142480FF121EAA
:1016F10004E5132480FF121E04E4F5157E00E517AE
:101701002515FFEE3516FEE5122FF582E511121CA7
:101711007D0515E515C3940240E274022517F517FE
:10172100E43516F5160514E514C3941D40BB7D017F
:101731007C007F36121E087D017C007F30021E086E
:061018008E118F128D13F2
:10101E00E4F517F5187D01FC7F34121E087D017C66
:10102E00007F36121E08E4F516E516C39409400338
:10103E000210C0E516703A75141EE5142480FF12D6
:10104E001E04E51624802513FF121E04E4F5151266
:10105E001C6B0515E515C3940240F474022518F5B2
:10106E0018E43517F5170514E514C3942040CB800A
:10107E0038E4F514E5142480FF121E04E5162480CE
:10108E002513FF121E04E4F515121C6B0515E5154C
:10109E00C3940240F474022518F518E43517F517B9
:1010AE000514E514C3940E40CB74082516F51602EC
:1010BE0010377D017C007F36121E087D017C007F7B
:0410CE0030021E08C6
:061741008E118F128D13C2
:10174700E4F516F5177D01FC7F34121E087D017C38
:10175700007F36121E0875140FE5142480FF121E31
:1017670004E5132488FF121E04E4F5157E00E5172F
:101777002515FFEE3516FEE5122FF582E511121C31
:101787007D0515E515C3940240E274022517F51788
:10179700E43516F5160514E514C3941F40BB7D0107
:1017A7007C007F36121E087D017C007F30021E08F8
:0B1F7E00EF1FAC0670011E4C70F62235
:101EB900EF1FAC0670011E4C600A7D027CEFDCFE50
:041EC900DDFC80ECD0
:011ECD0022F2
:10095400E4F50C7590FFC2932097137F14FE121ECA
:10096400B93097FD7F147E00121EB9750C012096D4
:10097400147F147E00121EB93096FD7F147E00127F
:100984001EB9750C052095147F147E00121EB93013
:1009940095FD7F147E00121EB9750C092094147FF6
:1009A400147E00121EB93094FD7F147E00121EB90D
:1009B400750C0D7590FFC2922097147F147E00125F
:1009C4001EB93097FD7F147E00121EB9750C0220EB
:1009D40096147F147E00121EB93096FD7F147E009B
:1009E400121EB9750C062095147F147E00121EB9D0
:1009F4003095FD7F147E00121EB9750C0A209414E4
:100A04007F147E00121EB93094FD7F147E00121EE6
:100A1400B9750C0E7590FFC2912097147F147E0057
:100A2400121EB93097FD7F147E00121EB9750C0397
:100A34002096147F147E00121EB93096FD7F147E1A
:100A440000121EB9750C072095147F147E00121E27
:100A5400B93095FD7F147E00121EB9750C0B2094DD
:100A6400147F147E00121EB93094FD7F147E001290
:100A74001EB9750C0F7590FFC2902097147F147ED9
:100A840000121EB93097FD7F147E00121EB9750C3A
:100A9400042096147F147E00121EB93096FD7F1434
:100AA4007E00121EB9750C082095147F147E001266
:100AB4001EB93095FD7F147E00121EB9750C0C20F2
:100AC40094147F147E00121EB93094FD7F147E00AE
:080AD400121EB9750C10AF0CE5
:010ADC0022F7
:10000E0052643A3100204F4E00204F464600204F9A
:10001E004E200000000000000000000FF008100B42
:10002E00D00BD00BD00BD008100FF000000000004A
:10003E0000000000000000000000000000000000B2
:10004E0000000000000000000000000000000000A2
:10005E000000000000180039E070F230CE300E3093
:10006E000E0C3E07C00200000000000F800FE01FC4
:10007E00E00C00FFFFFFFFFFFFFFFFFFFFFFFFFF93
:10008E00FFFFFF80000000000000000000000000E5
:10009E0000000180000000000000000000000000D1
:1000AE0000000180000000000000000000000000C1
:1000BE0000000180000000000000000000000000B1
:1000CE0000000180000000000000000000000000A1
:1000DE000000018000000000000000000000000091
:1000EE000000018000000000000000000000000081
:1000FE000000018000000000000000000000000071
:10010E000000018000000000000000000000000060
:10011E000000018000000000000000000000000050
:10012E000000018000000000000000000000000040
:10013E00000001FFFFFFFFFFFFFFFFFFFFFFFFFFBD
:10014E00FFFFFF8000000000000000000000000024
:10015E000000018000000000000000000000000010
:10016E000000018000000000000000000000000000
:10017E0000000180000000000000000000000000F0
:10018E0000000180000000000000000000000000E0
:10019E0000000180000000000000000000000000D0
:1001AE0000000180000000000000000000000000C0
:1001BE0000000180000000000000000000000000B0
:1001CE0000000180000000000000000000000000A0
:1001DE000000018000000000000000000000000090
:1001EE000000018000000000000000000000000080
:1001FE000000018000000000000000000000000070
:10020E00000001800000000000000000000000005F
:10021E00000001800000000000000000000000004F
:10022E00000001800000000000000000000000003F
:10023E00000001800000000000000000000000002F
:10024E00000001FFFFFFFFFFFFFFFFFFFFFFFFFFAC
:10025E00FFFFFF8000000000000000000000000013
:10026E0000000180000000000000000000000000FF
:10027E0000000180000000000000000000000000EF
:10028E0000000180000000000000000000000000DF
:10029E0000000180000000000000000000000000CF
:1002AE0000000180000000000000000000000000BF
:1002BE0000000180000000000000000000000000AF
:1002CE00000001800000000000000000000000009F
:1002DE00000001800000000000000000000000008F
:1002EE00000001800000000000000000000000007F
:1002FE00000001800000000000000000000000006F
:10030E00000001800000000000000000000000005E
:10031E00000001800000000000000000000000004E
:10032E00000001800000000000000000000000003E
:10033E00000001800000000000000000000000002E
:10034E00000001800000000000000000000000001E
:10035E00000001FFFFFFFFFFFFFFFFFFFFFFFFFF9B
:10036E00FFFFFF8000000000000000000000000002
:10037E0000000180000000000000000000000000EE
:10038E0000000180000000000000000000000000DE
:10039E0000000180000000000000000000000000CE
:1003AE0000000180000000000000000000000000BE
:1003BE0000000180000000000000000000000000AE
:1003CE00000001800000000000000000000000009E
:1003DE00000001800000000000000000000000008E
:1003EE00000001800000000000000000000000007E
:1003FE00000001800000000000000000000000006E
:10040E00000001800000000000000000000000005D
:10041E00000001800000000000000000000000004D
:10042E00000001800000000000000000000000003D
:10043E00000001800000000000000000000000002D
:10044E00000001800000000000000000000000001D
:10045E00000001800000000000000000000000000D
:10046E00000001FFFFFFFFFFFFFFFFFFFFFFFFFF8A
:10047E00FFFFFF07C01C3028080804531E54A29427
:10048E00978289A001A001A00180015002300618B8
:03049E000C07F058
:0615450001460001450013
:1012E800750BFF121E4C7F907E01121EB9121EA2B2
:1012F800121F4A7E007F811215C07BFF7A00790E8B
:10130800E4FD7F0612190E7B24E4FDFF121AD27C3D
:10131800007D21AF44121A8F7BFF7A007913E4FD18
:101328007F0212190EE4F549AB49FD7F01121646FA
:10133800E545704D1209548F0AE50A641070237B45
:10134800FF7A007917FD7F0212190E1209548F0ACD
:10135800E50AB410F67BFF7A00791CE4FD7F0212DF
:10136800190EE54614600A04700CAF0A12182B8097
:1013780005AF0A12189E121F66121F5A1219B4805E
:04138800AF754104F8
:01138C00223E
:091F89007F18784AE4F608DFFC39
:011F9200222C
:1010D200EF24F5B41C0040030211879010EB75F069
:1010E20003A4C58325F0C5837302113F0211480290
:1010F200115102115A02116302116C02117502118F
:101102007E02118702118702114202114B02115411
:1011120002115D02116602116F0211780211810241
:10112200118702118702114502114E021157021155
:101132006002116902117202117B0211847F002286
:101142007F01227F02227F03227F04227F05227FEA
:1011520006227F07227F08227F09227F0A227F0B35
:10116200227F0C227F0D227F0E227F0F227F1022F0
:101172007F11227F12227F13227F14227F15227F6A
:0811820016227F17227FFF22D5
:101EE1001210D2EFC3941840037FFF22744A2FF8D7
:021EF100E6FF0A
:011EF30022CC
:0F1F2A001210D2EFC394185006744A2FF8A60570
:011F39002285
:101F3A00EFC3941840037FFF22744A2FF8E6FF226A
:09154B0001440B01430B014200B5
:10182B008F0CE50CB40216E54475F00A8464016074
:10183B000985444374F62544F544121D8BE50CB41D
:10184B000A16E54475F00A84640360098544437401
:10185B000A2544F544121D8BE50CB40514E54475BB
:10186B00F00A84E5F0640160058544431544121DBC
:10187B008BE50CB40714E54475F00A84E5F06402BB
:10188B0060058544430544121D8BE50CB4060375B6
:03189B00460122E1
:10189E008F0CE50C64057029E542D39400400215C7
:1018AE0042E542600D24FE600F0470157C007D2120
:1018BE00800A7C007D6180047C047D81AF44121A15
:1018CE008FE50C64077029E542C39402500205426D
:1018DE00E542600D24FE600F0470157C007D2180B2
:1018EE000A7C007D6180047C047D81AF44121A8FD6
:1018FE00E50CB4060AAD44AF42121967E4F5462270
:101A8F008C0F8D10EF24F4601E24F7601214602069
:101A9F0024F7600F14602224157027E4FD800AE4F8
:101AAF00FD800FE4FD80147D01AF10AE0F0216CB49
:101ABF007D01AF10AE0F0210187D01AF10AE0F12E7
:031ACF001741229A
:041D8B00AD44AF4371
:101D8F008F0D8D0E121EE1EF70097C007D41AF0D9E
:101D9F00121A8FAF0E121EE1EF70097C007D21AF7A
:051DAF000E121A8F2244
:101967008D0DEF14601B14602C2402703F7C007DEA
:1019770061AF0D121A8F7D01AF0D121F2A7D2880CE
:10198700267C007D21AF0D121A8FE4FDAF0D121FCB
:101997002AE4FD80127C047D81AF0D121A8F7D022F
:0D19A700AF0D121F2A7D50AF0D121E8A22B7
:101B1200000000000000018003C003C0018000003B
:101B220000000000000000000000000000000000B3
:101B320000000000000018183C3C3C3C1818000053
:101B42000000000000000000000000000000000093
:1015540001300B01311501321F012D0D012E170130
:101564002F21012A02013302013602012B02013428
:0D15740002013702012C020135020138028C
:0C1F5A00120F531204A11206320207C33A
:100F5300784AE6B401047F0180027F00784DE6FE03
:100F6300B401047D0180027D00EEB402047E0180A1
:100F7300027E00EF6008ED6005752A018014EF70B2
:100F830009ED7006EF6008EE6005E4F52A8003754D
:100F93002A02784BE6B401047F0180027F00784E79
:100FA300E6FEB401047D0180027D00EEB402047EFE
:100FB3000180027E00EF6008ED6005752B0180144F
:100FC300EF7009ED7006EF6008EE6005E4F52B8025
:100FD30003752B02784CE6B401047F0180027F0085
:100FE300784FE6FEB401047D0180027D00EEB40279
:100FF300047E0180027E00EF6007ED6004752C0122
:1010030022EF7009ED7006EF6007EE6004E4F52C43
:0410130022752C0214
:0110170022B6
:1004A100E52AB40216E5336402600C7E1B7F12ADAF
:1004B100361216CB753602753302227DC87C00E4F4
:1004C100FF121D33EF700302062EE53004FF121EEA
:1004D100E1EF64046010E5302402FF121EE1EF64D5
:1004E10004600302058B852A33E53004FF121EE107
:1004F100EF64047032E52A700EAF2D121F07EF244E
:10050100ECFDAF2D121E8AAF2D121F07EFD3940001
:100511004003020631E53004FFE4FD121F2A7E008C
:100521007F41E530048052E5302402FF121EE1EFE5
:1005310064047056E52A700EAF2D121F07EF24ECEC
:10054100FDAF2D121E8AE52AB4010EAF2D121F0731
:10055100EF24D8FDAF2D121E8AAF2D121F07EFD346
:1005610094004003020631E5302402FFE4FD121F2E
:100571002A7E007F41E5302402FD1216CB052D05B0
:1005810049AB49E4FD7F01021646E5302536FF12ED
:100591001EE1EF640460137E007F41AD361216CB7D
:1005A100E5302536FFE4FD121F2A0536E5302536F4
:1005B100FF121EE1EF6404704C852A33E52AAF2D4A
:1005C100B40108121F07EF24D88006121F07EF2479
:1005D100ECFDAF2D121E8AAF2D121F07EFD3940031
:1005E1005020E5302536FFE4FD121F2A7E007F41B1
:1005F100AD361216CB052D0549AB49E4FD7F01123D
:100601001646753602E536C394084003753602E591
:100611002AB401067E1B7F3280047E1B7F12AD3619
:100621001216CBE5302536FF7D03121F2A852A33AA
:0106310022A6
:10063200E52BB40216E5346402600C7E1B7F12AD1A
:1006420037121018753702753402227DC87C007F7C
:1006520001121D33EF70030207BFE53104FF121EC2
:10066200E1EF64046010E5312402FF121EE1EF6441
:1006720004600302071C852B34E53104FF121EE1DE
:10068200EF64047032E52B700EAF2E121F07EF24B9
:10069200ECFDAF2E121E8AAF2E121F07EFD394006D
:1006A20040030207C2E53104FFE4FD121F2A7E0067
:1006B2007F41E531048052E5312402FF121EE1EF51
:1006C20064047056E52B700EAF2E121F07EF24EC58
:1006D200FDAF2E121E8AE52BB4010EAF2E121F079C
:1006E200EF24D8FDAF2E121E8AAF2E121F07EFD3B2
:1006F200940040030207C2E5312402FFE4FD121F09
:100702002A7E007F41E5312402FD121018052E05D4
:1007120049AB49E4FD7F01021646E5312537FF1258
:100722001EE1EF640460137E007F41AD37121018A2
:10073200E5312537FFE4FD121F2A0537E53125375C
:10074200FF121EE1EF6404704C852B34E52BAF2EB3
:10075200B40108121F07EF24D88006121F07EF24E6
:10076200ECFDAF2E121E8AAF2E121F07EFD394009C
:100772005020E5312537FFE4FD121F2A7E007F411C
:10078200AD37121018052E0549AB49E4FD7F011261
:100792001646753702E537C394084003753702E5FC
:1007A2002BB401067E1B7F3280047E1B7F12AD3785
:1007B200121018E5312537FF7D03121F2A852B34CD
:0107C2002214
:1007C300E52CB40216E5356402600C7E1B7F12AD86
:1007D30038121741753802753502227DC87C007FB7
:1007E30002121D33EF7003020950E53204FF121E9B
:1007F300E1EF64046010E5322402FF121EE1EF64AE
:100803000460030208AD852C35E53204FF121EE1B6
:10081300EF64047032E52C700EAF2F121F07EF2424
:10082300ECFDAF2F121E8AAF2F121F07EFD39400D8
:100833004003020953E53204FFE4FD121F2A7E0040
:100843007F41E532048052E5322402FF121EE1EFBC
:1008530064047056E52C700EAF2F121F07EF24ECC3
:10086300FDAF2F121E8AE52CB4010EAF2F121F0706
:10087300EF24D8FDAF2F121E8AAF2F121F07EFD31D
:1008830094004003020953E5322402FFE4FD121FE2
:100893002A7E007F41E5322402FD121741052F0510
:1008A30049AB49E4FD7F01021646E5322538FF12C4
:1008B3001EE1EF640460137E007F41AD38121741DF
:1008C300E5322538FFE4FD121F2A0538E5322538C5
:1008D300FF121EE1EF6404704C852C35E52CAF2F1D
:1008E300B40108121F07EF24D88006121F07EF2454
:1008F300ECFDAF2F121E8AAF2F121F07EFD3940008
:100903005020E5322538FFE4FD121F2A7E007F4187
:10091300AD38121741052F0549AB49E4FD7F01129C
:100923001646753802E538C394084003753802E566
:100933002CB401067E1B7F3280047E1B7F12AD38F0
:10094300121741E5322538FF7D03121F2A852C3506
:010953002281
:10158100021A00000E1C0000000000000000000014
:041591000000000056
:101F4A00438901758CFC758A67D2A9D28CD2AF22DB
:03000B00021EF4DE
:101EF400C0E0758CFC758A67051BE51B7002051A2A
:031F0400D0E032F8
:101D3300EF25E0241CF8E6FA08E6FBC3E51B9BFB52
:101D4300E51A9AFAC3EB9DEA9C400EEF25E0241CAA
:0C1D5300F8A61A08A61B7F01227F0022C0
:1019FF0052643A320052643A330001C00638300C58
:101A0F006004466740B2710A496A4B1070E63E01A6
:101A1F000F880DD0183409D4011403801CF820EC62
:101A2F003044180208020C060A021206105E320C2D
:0A1A3F0012271FCB0D100E14031424
:101595000886020103000301020A0C7A0302030014
:1015A500010201040302010A013C00013D00013969
:0715B5000D013A17013B2173
:100C0100E53EB4010E750C00750D00750E7A750F79
:100C11000C800C750C00750D00750E86750F08E5BE
:100C21003DC3950F4003020CDC7DA07C0F7F0612B3
:100C31001D33EF7003020CDCE53DC3950F40030249
:100C41000CDCAB0CAA0DA90E853D82758300121A2E
:100C510062606C24FE602C14604714606A24FA60A0
:100C61007524097074E5302407FF7D04121F2A7E64
:100C71001A7F297D071216CB7D78AF39121E8A059E
:100C8100398056E5312407FF7D04121F2A7E1A7F21
:100C9100097D071210187D78AF3A121E8A053A8035
:100CA10038E5322407FF7D04121F2A7E1A7F097D51
:100CB100071217417D78AF3B121E8A053B801A7BD4
:100CC100FF7A1979FF80067BFF7A1A7904E4FD7FA8
:0B0CD1000612190E8003753C0A053D59
:010CDC0022F5
:100CDD007DB87C0B7F03121D33EF7003020DAE75D3
:100CED000C01E530250CFF121EE1EF6404600302D8
:100CFD000DA2E530250C14FF121EE1EF6404700304
:100D0D00020DA2E530250C14FF121EE1EF64016007
:100D1D000EE530250C14FF121EE1EF6402703AE56A
:100D2D0030250C14FF121F07EF24ECFDE530250CC8
:100D3D0014FF121E8AE530250C14FF121F07EFD386
:100D4D0094005051E530250C14FFE4FD121F2A7E4E
:100D5D00007F41E50C14FD8039E530250CFF7D0445
:100D6D00121F2A7E1A7F29AD0C1216CBE50C142505
:100D7D0030FF7D04121F2A7E1A7F29E50C14FD1207
:100D8D0016CBE530250CFFE4FD121F2A7E007F41B6
:100D9D00AD0C1216CB050CE50CD394075003020CC9
:010DAD00EF56
:010DAE002222
:100DAF007DD07C077F04121D33EF7003020E807518
:100DBF000C01E531250CFF121EE1EF640460030204
:100DCF000E74E531250C14FF121EE1EF640470035D
:100DDF00020E74E531250C14FF121EE1EF64016061
:100DEF000EE531250C14FF121EE1EF6402703AE597
:100DFF0031250C14FF121F07EF24ECFDE531250CF4
:100E0F0014FF121E8AE531250C14FF121F07EFD3B2
:100E1F0094005051E531250C14FFE4FD121F2A7E7A
:100E2F00007F41E50C14FD8039E531250CFF7D0471
:100E3F00121F2A7E1A7F09AD0C121018E50C14250B
:100E4F0031FF7D04121F2A7E1A7F09E50C14FD1253
:100E5F001018E531250CFFE4FD121F2A7E007F419B
:100E6F00AD0C121018050CE50CD394075003020DAE
:010E7F00C1B1
:010E8000224F
:100E81007DA07C0F7F05121D33EF7003020F527599
:100E91000C01E532250CFF121EE1EF640460030230
:100EA1000F46E532250C14FF121EE1EF64047003B6
:100EB100020F46E532250C14FF121EE1EF640160BA
:100EC1000EE532250C14FF121EE1EF6402703AE5C3
:100ED10032250C14FF121F07EF24ECFDE532250C1F
:100EE10014FF121E8AE532250C14FF121F07EFD3DF
:100EF10094005051E532250C14FFE4FD121F2A7EA7
:100F0100007F41E50C14FD8039E532250CFF7D049D
:100F1100121F2A7E1A7F09AD0C121741E50C142508
:100F210032FF7D04121F2A7E1A7F09E50C14FD127F
:100F31001741E532250CFFE4FD121F2A7E007F4197
:100F4100AD0C121741050CE50CD394075003020EAA
:010F5100930C
:010F5200227C
:0C1F6600120C01120CDD120DAF020E81F6
:091F93007F187862E4F608DFFC17
:011F9C002222
:10118A00EF24F5B41C00400302123F9011A375F03E
:10119A0003A4C58325F0C583730211F70212000266
:1011AA00120902121202121B02122402122D021238
:1011BA003602123F02123F0211FA02120302120C05
:1011CA0002121502121E02122702123002123902EC
:1011DA00123F02123F0211FD02120602120F021200
:1011EA001802122102122A02123302123C7F002232
:1011FA007F01227F02227F03227F04227F05227F32
:10120A0006227F07227F08227F09227F0A227F0B7C
:10121A00227F0C227F0D227F0E227F0F227F102237
:10122A007F11227F12227F13227F14227F15227FB1
:08123A0016227F17227FFF221C
:101F070012118AEFC3941840037FFF2274622FF8DF
:021F1700E6FFE3
:011F190022A5
:101E8A0012118AEFC39418500EEDD394005002E455
:071E9A00FD74622FF8A6059C
:011EA100221E
:101CD200796F75206C6F737400CAC7B7F1B1A3B482
:101CE200E6C4E3B5C4BDE1B9FB00B1A3B4E600208C
:101CF2002000B2BBB1A3B4E600796F752077696E9C
:011D020000E0
:1019B4007F15121EE1EF640460127F0B121EE1EF2B
:1019C400640460087F1F121EE1BF0406754501E42C
:0819D400F548E53C640A7022AD
:1019DC00F50DF50CAF0C121F3ABF0403750D010584
:1019EC000CE50CC3941840ECE50D700675480175B8
:0219FC004501A3
:0119FE0022C6
:100ADD00121EA2E5486003020B6F121EA27BFF7A65
:100AED001C79D2E4FDFF12190EAB49E4FD7F05120E
:100AFD0016467BFF7A1C79DB7D01E4FF12190EE5AA
:100B0D004770137D027F01121BC77F20121C837F4C
:100B1D0010121C83800D7BFF7A1C79F17D027F0101
:100B2D0012190E7BFF7A1C79EC7D027F0312190ED0
:100B3D00E547B401137D037F01121BC77F20121CF3
:100B4D00837F10121C83800D7BFF7A1C79F17D034E
:100B5D007F0112190E7BFF7A1C79F47D037F03123E
:100B6D00190EE54864016003020C00121EA27BFF02
:100B7D007A1C79FBE4FDFF12190EAB49E4FD7F05EC
:100B8D001216467BFF7A1C79DB7D01E4FF12190EEC
:100B9D00E54770137D027F01121BC77F20121C8356
:100BAD007F10121C83800D7BFF7A1C79F17D027FF3
:100BBD000112190E7BFF7A1C79EC7D027F0312194D
:100BCD000EE547B401137D037F01121BC77F201271
:100BDD001C837F10121C83800D7BFF7A1C79F17DA5
:100BED00037F0112190E7BFF7A1C79F47D037F03BD
:040BFD0012190E2299
:101B5200EF64024E7009E547D3940040021547EF47
:101B6200640A4E7009E547C3940150020547EF64C9
:101B7200064E7014E547700AE549FD7C00E4FF1249
:0B1B82001E28121242E4F541020ADDA9
:101B8D00C9CFB4CEB4E6B5B5B5C3B7D6A3BA00B018
:101B9D00B4C8CED2E2BCFCB7B5BBD80030300031F2
:101BAD003000323000333000343000353000363004
:0A1BBD0000373000383000393000E6
:0315BC00014900E2
:101D5F00121EA2E4FF121D038F497BFF7A1B798DA0
:101D6F00E4FDFF12190EAB497D017F031216467B6E
:0C1D7F00FF7A1B799C7D02E4FF02190E24
:101646008F0C8D0DEBB40A00507A901657F82828A7
:101656007302167502167D02168502168D02169500
:1016660002169D0216A50216AD0216B50216BD7B20
:10167600FF7A1B79A980467BFF7A1B79AC803E7B7B
:10168600FF7A1B79AF80367BFF7A1B79B2802E7B7F
:10169600FF7A1B79B580267BFF7A1B79B8801E7B83
:1016A600FF7A1B79BB80167BFF7A1B79BE800E7B87
:1016B600FF7A1B79C180067BFF7A1B79C4AD0DAF1B
:0516C6000C12190E22B8
:091FA700D2A0D2A1C2A0C2A12265
:07000300C2A0D2A1D2A0228D
:021DB400AD0779
:101DB600E4FB74807E00A803088006CEA2E713CE5B
:101DC60013D8F8FFEDF582EF558224FF92A0D2A139
:061DD600C2A10BBB08DCFA
:011DDC0022E4
:101E6C00E4FFD2A0FED2A130A00D7480A806088099
:0D1E7C0002C313D8FC4207C2A10EBE08E845
:011E89002236
:0A1F9D00EF24FF92A0D2A1C2A122FE
:0B1F7200D2A0D2A1A2A0E433FFC2A1C4
:011F7D002241
:101E28008F0A8C0B8D0C121FA77FA0121DB4121FD6
:101E380072AF0A121DB4121F72AF0C121DB4121F1A
:041E4800720200031F
:021D03008F0A45
:101D0500121FA77FA0121DB4121F72AF0A121DB4B5
:101D1500121F72121FA77FA1121DB4121F72121E6D
:0D1D25006C8F0B7F01121F9D120003AF0B8E
:011D3200228E
:03000000021424C3
:0C142400787FE4F6D8FD75818D02146B12
:101A4900BB010689828A83E0225002E722BBFE029B
:091A5900E32289828A83E49322CE
:101A6200BB010CE58229F582E5833AF583E0225039
:101A720006E92582F8E622BBFE06E92582F8E22283
:0D1A8200E58229F582E5833AF583E493229D
:10143000021FB0E493A3F8E493A34003F68001F203
:1014400008DFF48029E493A3F85407240CC8C333BD
:10145000C4540F4420C8834004F456800146F6DF8C
:10146000E4800B0102040810204080901539E47ECE
:10147000019360BCA3FF543F30E509541FFEE49381
:10148000A360010ECF54C025E060A840B8E493A348
:10149000FAE493A3F8E493A3C8C582C8CAC583CA73
:1014A000F0A3C8C582C8CAC583CADFE9DEE780BE2B
:0115BF00002B
:00000001FF
