:10009A007E007F03E4FD12006F7E007FE47D011283
:0B00AA00006FE4F5087849E6F58122BC
:1000B50074492508F8A6810508E508B40203E4F5A6
:0A00C5000874492508F8E6F58122C9
:10000300C2A07F107E271200CFB2A01200B5B2A00B
:100013007F647E001200CFB2A07F647E001200CF07
:10002300B2A07F647E001200CFB2A07F647E001274
:1000330000CFB2A07F647E001200CFB2A07F647EA7
:10004300001200CFB2A07F647E001200CFB2A07F67
:10005300647E001200CFB2A07F647E001200CFB294
:0C006300A07F647E001200CFB2A0809647
:1000E400C2A77FE87E031200CFB2A71200B580F248
:10006F00AB07AA06AF02EDC43354E0240AF8A60783
:10007F00AF03EDC43354E02409F8A607EDC433549D
:0B008F00E0240AFF74492DF8A60722A8
:1000CF00EF1FAC0670011E4C600A7D027CEFDCFE58
:0400DF00DDFC80ECD8
:0100E30022FA
:030000000200F407
:0C00F400787FE4F6D8FD75814A02009A7E
:00000001FF
