:060F2A00120E69020BD05B
:10077500D6B2CEEFB4F3D5BDBDA9CAAC00D3CECFAA
:10078500B7BCF2BDE900202000BFAACABCD3CECFBA
:10079500B700D3CECFB7BDE9C9DC00D6D6D6B2D621
:1007A500B2CEEFB7C0D3F9BDA9CAAC0035312B4CD9
:1007B5004344D6C6D7F700B0B4C8CED2E2BCFCB726
:1007C500B5BBD800C4D1B6C8D1A1D4F100BCF2B52F
:1007D500A500C0A7C4D100B0B4C8CED2E2BCFCD33A
:1007E500CECFB7BFAACABC00C4D1B6C8A3BABCF2A3
:0E07F500B5A500C4D1B6C8A3BAC0A7C4D10030
:0C0F0F00013B00013A00013900013800EC
:100AE900120EC07BFF7A077975E4FD7F01120C3283
:100AF900E53A70137D017F01120D1B7F20120DA2B3
:100B09007F10120DA2800D7BFF7A07798B7D017F03
:100B190001120C327BFF7A0779827D017F02120C68
:100B290032E53AB401137D027F01120D1B7F2012B9
:100B39000DA27F10120DA2800D7BFF7A07798B7DA4
:100B4900027F01120C327BFF7A07798E7D027F02C8
:040B5900120C322226
:100D5300120EC07BFF7A077997E4FD7F02120C32F3
:100D63007BFF7A0779A07D01E4FF120C327BFF7AC7
:100D73000779B17D027F01120C327BFF7A0779BCC0
:070D83007D037F01020C3229
:100B5D00120EC07BFF7A0779C97D047F02120C3219
:100B6D00E5397012FD7F01120D1B7F20120DA27F42
:100B7D0010120DA2800D7BFF7A07798BE4FD7F01AA
:100B8D00120C327BFF7A0779D2E4FD7F03120C320F
:100B9D00E539B401137D027F01120D1B7F20120D6B
:100BAD00A27F10120DA2800D7BFF7A07798B7D023B
:100BBD007F01120C327BFF7A0779D77D027F0312FA
:030BCD000C3222C5
:100DBE00120EC07BFF7A0779DCE4FDFF120C32E5E0
:100DCE0038700D7BFF7A0779ED7D037F03120C32AD
:100DDE00E538B4010D7BFF7A0779F87D037F0312A6
:030DEE000C3222A2
:100DF100BF0209E53AD394004002153ABF0A09E55A
:100E01003AC394015002053ABF060FE53A700375E3
:0D0E11003B01E53AB40103753B02020AE91A
:100EFF008F0A120D53E50A6006E4F53B120AE92248
:100E1E00BF0209E539D3940040021539BF0A09E52E
:100E2E0039C3940150020539BF0609853938120DB0
:070E3E00BE753B03020B5DD2
:100BD0007509FF120AE9E53B65096024853B09E5D3
:100BE0003B14600F14601114601324037012120A76
:100BF000E9800D120D538008120B5D8003120DBEAB
:100C00001204638F08E50860CDE53B1460111460A1
:100C100015146019240370BEAF08120DF180B7AF30
:100C200008120EFF80B0AF08120E1E80A9120E89A6
:020C300080A49E
:040E45007D017C00AF
:100E49008F11ED4C6003120EECC2A6C2A58511806C
:100E59007F017E00120F1FD2A7D2A7D2A7C2A72255
:100D8A007E00E5182515FFEE3517FEE5132FF582CF
:080D9A00E5123EF583E493FF2E
:100DA2008F11120EECD2A6C2A58511807F017E00A2
:0C0DB200120F1FD2A7D2A7D2A7C2A722FF
:100EEC007580FFC2A6D2A5D2A7E58020E7FBC2A7DA
:030EFC00AF8022A2
:100E69007F30120E457D017C007F01120E497D0104
:100E79007C007F06120E497D017C007F0C020E4921
:100EC0007D017C007F01120E497F34120E457D01A9
:070ED0007C007F30020E4997
:100D1B00ED1460111460151460192403701AEF247C
:100D2B0080F50B8013EF2490F50B800CEF2488F5E6
:100D3B000B8005EF2498F50B7D017C00AF0B120E99
:080D4B00497F0A7E00020F1F20
:100C8B007D017C007F08120E497F907E01120ED7EA
:100C9B007D017C007F0C120E497F907E01120ED7D6
:100CAB007D017C007F08120E497F907E01120ED7CA
:100CBB007D017C007F0C120E497F907E01120ED7B6
:100CCB007D017C007F08120E497F907E01020ED7BA
:100C32008B0B8A0C890DEDD394005002E4FDEDD3A9
:100C4200940340027D0353070FED14600F146011EB
:100C520014601324037012430780800D43079080B1
:100C6200084307888003430798120E45AB0BAA0C72
:100C7200A90D120EA7FF6010120DA27401250DF529
:090C82000DE4350CF50C80E422B0
:100CDB008B0AEDD394005002E4FDEDD39403400254
:100CEB007D0353070FED14600F1460111460132470
:100CFB00037012430780800D4307908008430788D9
:100D0B008003430798E4FDFC120E49AF0A020DA2C3
:04088F008E0A8F0B33
:10089300E4F50FF5107D01FC7F34120E497D017CD8
:1008A300007F36120E49E4F50EE50EC3940950504D
:1008B300E4F50CE50C2480FF120E45E50E2480FFC1
:1008C300120E45E4F50D7E00E510250DFFEE350F04
:1008D300FEE50B2FF582E50A120D9C050DE50DC310
:1008E300941040E274102510F510E4350FF50F0550
:1008F3000CE50CC3942040BB7408250EF50E80A9AB
:100903007D017C007F36120E497D017C007F300221
:020913000E498B
:0406C4008E128F13F0
:1006C800E4F517F5187D01FC7F34120E497D017C95
:1006D800007F36120E49E4F516E516C39409507BDF
:1006E800E516703875141EE5142480FF120E45E5D2
:1006F800162480FF120E45E4F515120D8A0515E53E
:1007080015C3940240F474022518F518E43517F55A
:10071800170514E514C3942040CD8036E4F514E59C
:10072800142480FF120E45E5162480FF120E45E4BE
:10073800F515120D8A0515E515C3940240F47402E7
:100748002518F518E43517F5170514E514C3940FA3
:1007580040CD74082516F5160206E17D017C007F60
:0D07680036120E497D017C007F30020E49E3
:040915008E208F2180
:10091900E4F524F5257D01FC7F34120E497D017C27
:10092900007F36120E4975220FE5222480FF120E30
:10093900457D017C007F88120E49E4F5237E00E5A0
:10094900252523FFEE3524FEE5212FF582E520122A
:100959000D9C0523E523C3940240E274022525F585
:1009690025E43524F5240522E522C3941F40BA7DE8
:10097900017C007F36120E497D017C007F30020E1A
:010989004924
:04098A008E268F27FF
:10098E00E4F52AF52B7D01FC7F34120E497D017CA6
:10099E00007F36120E4975280DE5282480FF120EB1
:1009AE00457D017C007F80120E49E4F5297E00E52D
:1009BE002B2529FFEE352AFEE5272FF582E5261297
:1009CE000D9C0529E529C3940240E27402252BF5FE
:1009DE002BE4352AF52A0528E528C3941E40BA7D56
:1009EE00017C007F36120E497D017C007F30020EA5
:0109FE0049AF
:0405EC008E198F1ABB
:1005F000E4F51EF51F7D01FC7F34120E497D017C60
:10060000007F36120E49E4F51DE51DC39409400331
:100610000206B2E51D704A751B1EE51B2480FF1201
:100620000E45E51D2481FF120E45E4F51C7E00E514
:100630001F251CFFEE351EFEE51A2FF582E5191267
:100640000D9C051CE51CC3940240E27402251FF5B5
:100650001FE4351EF51E051BE51BC3942040BB801F
:1006600048E4F51BE51B2480FF120E45E51D24819F
:10067000FF120E45E4F51C7E00E51F251CFFEE353C
:100680001EFEE51A2FF582E519120D9C051CE51CCE
:10069000C3940240E27402251FF51FE4351EF51EC7
:1006A000051BE51BC3940F40BB7408251DF51D02F7
:1006B00006097D017C007F36120E497D017C007F9A
:0406C00030020E49AD
:0409FF008E2C8F2D7E
:100A0300E4F530F5317D01FC7F34120E497D017C24
:100A1300007F36120E49752E0FE52E2480FF120E2D
:100A2300457D017C007F89120E49E4F52F7E00E5A8
:100A330031252FFFEE3530FEE52D2FF582E52C1203
:100A43000D9C052FE52FC3940240E274022531F576
:100A530031E43530F530052EE52EC3941F40BA7DC1
:100A6300017C007F36120E497D017C007F30020E2F
:010A73004939
:040A74008E328F33FC
:100A7800E4F536F5377D01FC7F34120E497D017CA3
:100A8800007F36120E4975340DE5342480FF120EAE
:100A9800457D017C007F81120E49E4F5357E00E535
:100AA800372535FFEE3536FEE5332FF582E5321270
:100AB8000D9C0535E535C3940240E274022537F5EF
:100AC80037E43536F5360534E534C3941E40BA7D2F
:100AD800017C007F36120E497D017C007F30020EBA
:010AE80049C4
:0B0F1F00EF1FAC0670011E4C70F622A4
:100ED700EF1FAC0670011E4C600A7D027CEFDCFE42
:040EE700DDFC80ECC2
:010EEB0022E4
:10046300E4F50A7590FFC2932097137F14FE120ED2
:10047300D73097FD7F147E00120ED7750A012096A0
:10048300147F147E00120ED73096FD7F147E001267
:100493000ED7750A052095147F147E00120ED730EF
:1004A30095FD7F147E00120ED7750A092094147FE0
:1004B300147E00120ED73094FD7F147E00120ED7E7
:1004C300750A0D7590FFC2922097147F147E001257
:1004D3000ED73097FD7F147E00120ED7750A0220C7
:1004E30096147F147E00120ED73096FD7F147E0083
:1004F300120ED7750A062095147F147E00120ED7AC
:100503003095FD7F147E00120ED7750A0A209414CD
:100513007F147E00120ED73094FD7F147E00120EDE
:10052300D7750A0E7590FFC2912097147F147E0031
:10053300120ED73097FD7F147E00120ED7750A0373
:100543002096147F147E00120ED73096FD7F147E02
:1005530000120ED7750A072095147F147E00120E21
:10056300D73095FD7F147E00120ED7750A0B2094A9
:10057300147F147E00120ED73094FD7F147E001278
:100583000ED7750A0F7590FFC2902097147F147EC3
:1005930000120ED73097FD7F147E00120ED7750A16
:1005A300042096147F147E00120ED73096FD7F141C
:1005B3007E00120ED7750A082095147F147E001250
:1005C3000ED73095FD7F147E00120ED7750A0C20CE
:1005D30094147F147E00120ED73094FD7F147E0096
:0805E300120ED7750A10AF0AD1
:0105EB0022ED
:100003000000180039E070F230CE300E300E0C3E96
:1000130007C00200000000000F800FE01FE00C008B
:10002300FFFFFFFFFFFFFFFFFFFFFFFFFFFFFFFFDD
:10003300800000000000000000000000000000013C
:10004300800000000000000000000000000000012C
:10005300800000000000000000000000000000011C
:10006300800000000000000000000000000000010C
:1000730080000000000000000000000000000001FC
:1000830080000000000000000000000000000001EC
:1000930080000000000000000000000000000001DC
:1000A30080000000000000000000000000000001CC
:1000B30080000000000000000000000000000001BC
:1000C30080000000000000000000000000000001AC
:1000D300800000000000000000000000000000019C
:1000E300FFFFFFFFFFFFFFFFFFFFFFFFFFFFFFFF1D
:1000F300800000000000000000000000000000017C
:10010300800000000000000000000000000000016B
:10011300800000000000000000000000000000015B
:10012300800000000000000000000000000000014B
:10013300800000000000000000000000000000013B
:10014300800000000000000000000000000000012B
:10015300800000000000000000000000000000011B
:10016300800000000000000000000000000000010B
:1001730080000000000000000000000000000001FB
:1001830080000000000000000000000000000001EB
:1001930080000000000000000000000000000001DB
:1001A30080000000000000000000000000000001CB
:1001B30080000000000000000000000000000001BB
:1001C30080000000000000000000000000000001AB
:1001D300800000000000000000000000000000019B
:1001E300800000000000000000000000000000018B
:1001F300FFFFFFFFFFFFFFFFFFFFFFFFFFFFFFFF0C
:10020300800000000000000000000000000000016A
:10021300800000000000000000000000000000015A
:10022300800000000000000000000000000000014A
:10023300800000000000000000000000000000013A
:10024300800000000000000000000000000000012A
:10025300800000000000000000000000000000011A
:10026300800000000000000000000000000000010A
:1002730080000000000000000000000000000001FA
:1002830080000000000000000000000000000001EA
:1002930080000000000000000000000000000001DA
:1002A30080000000000000000000000000000001CA
:1002B30080000000000000000000000000000001BA
:1002C30080000000000000000000000000000001AA
:1002D300800000000000000000000000000000019A
:1002E300800000000000000000000000000000018A
:1002F300800000000000000000000000000000017A
:10030300FFFFFFFFFFFFFFFFFFFFFFFFFFFFFFFFFA
:100313008000000000000000000000000000000159
:100323008000000000000000000000000000000149
:100333008000000000000000000000000000000139
:100343008000000000000000000000000000000129
:100353008000000000000000000000000000000119
:100363008000000000000000000000000000000109
:1003730080000000000000000000000000000001F9
:1003830080000000000000000000000000000001E9
:1003930080000000000000000000000000000001D9
:1003A30080000000000000000000000000000001C9
:1003B30080000000000000000000000000000001B9
:1003C30080000000000000000000000000000001A9
:1003D3008000000000000000000000000000000199
:1003E3008000000000000000000000000000000189
:1003F3008000000000000000000000000000000179
:100403008000000000000000000000000000000168
:10041300FFFFFFFFFFFFFFFFFFFFFFFFFFFFFFFFE9
:1004230001C00638300C6004466740B2710A496A5D
:100433004B1070E63E010F880DD0183409D4011417
:1004430007C01C3028080804531E54A294978289BD
:10045300A001A001A001800150023006180C07F092
:030F1B00013C0096
:100E8900120E697F907E01120ED7120EC07E007F6E
:0E0E99002312088F7B24E4FDFF120CDB80FE89
:03000000020803F0
:0C080300787FE4F6D8FD75813C02084ABD
:100EA700BB010689828A83E0225002E722BBFE0249
:090EB700E32289828A83E493227C
:10080F00020F2AE493A3F8E493A34003F68001F2C6
:10081F0008DFF48029E493A3F85407240CC8C333EA
:10082F00C4540F4420C8834004F456800146F6DFB9
:10083F00E4800B0102040810204080900F0FE47E2B
:10084F00019360BCA3FF543F30E509541FFEE493AE
:10085F00A360010ECF54C025E060A840B8E493A375
:10086F00FAE493A3F8E493A3C8C582C8CAC583CAA0
:10087F00F0A3C8C582C8CAC583CADFE9DEE780BE58
:010F1E0000D2
:00000001FF
